{
  "transactions": [
    {
      "hash": "0xcac226a4d0d382e66ceb3c95475de9ae10420a2fc11ea2f7c8c939847ad7fd86",
      "transactionType": "CALL",
      "contractName": null,
      "contractAddress": "0x2477b8687745f494931748f5355770ba72ed3830",
      "function": "mint(address,uint256)",
      "arguments": [
        "0x4b992F2Fbf714C0fCBb23baC5130Ace48CaD00cd",
        "600000000000000000000000"
      ],
      "transaction": {
        "from": "0x4b992f2fbf714c0fcbb23bac5130ace48cad00cd",
        "to": "0x2477b8687745f494931748f5355770ba72ed3830",
        "gas": "0xb6bd",
        "value": "0x0",
        "input": "0x40c10f190000000000000000000000004b992f2fbf714c0fcbb23bac5130ace48cad00cd000000000000000000000000000000000000000000007f0e10af47c1c7000000",
        "nonce": "0x245",
        "chainId": "0x515"
      },
      "additionalContracts": [],
      "isFixedGasLimit": false
    },
    {
      "hash": "0xace8d0e7a566b1f54b5f1f7ee63a95ab30e1455f13dbc157d5b91ec7a51a92ff",
      "transactionType": "CALL",
      "contractName": null,
      "contractAddress": "0xf61cd89a9e9b2b23ce0bdac6e19c3db52c56ac07",
      "function": "mint(address,uint256)",
      "arguments": [
        "0x4b992F2Fbf714C0fCBb23baC5130Ace48CaD00cd",
        "600000000000000000000000"
      ],
      "transaction": {
        "from": "0x4b992f2fbf714c0fcbb23bac5130ace48cad00cd",
        "to": "0xf61cd89a9e9b2b23ce0bdac6e19c3db52c56ac07",
        "gas": "0xb6bd",
        "value": "0x0",
        "input": "0x40c10f190000000000000000000000004b992f2fbf714c0fcbb23bac5130ace48cad00cd000000000000000000000000000000000000000000007f0e10af47c1c7000000",
        "nonce": "0x246",
        "chainId": "0x515"
      },
      "additionalContracts": [],
      "isFixedGasLimit": false
    },
    {
      "hash": "0xeb22f16d3adaa7ea009fea36d7dbed92f9fa5a1cf21d5f2e2e238ae42a574644",
      "transactionType": "CALL",
      "contractName": null,
      "contractAddress": "0x2477b8687745f494931748f5355770ba72ed3830",
      "function": "approve(address,uint256)",
      "arguments": [
        "0x3642Fa7E78acFAbf2851619AcdB92Ac560eFc746",
        "115792089237316195423570985008687907853269984665640564039457584007913129639935"
      ],
      "transaction": {
        "from": "0x4b992f2fbf714c0fcbb23bac5130ace48cad00cd",
        "to": "0x2477b8687745f494931748f5355770ba72ed3830",
        "gas": "0x1082c",
        "value": "0x0",
        "input": "0x095ea7b30000000000000000000000003642fa7e78acfabf2851619acdb92ac560efc746ffffffffffffffffffffffffffffffffffffffffffffffffffffffffffffffff",
        "nonce": "0x247",
        "chainId": "0x515"
      },
      "additionalContracts": [],
      "isFixedGasLimit": false
    },
    {
      "hash": "0x33f7f33ec79c32cc11dd34196dba73bb210498882e9d85222e416400223ee96f",
      "transactionType": "CALL",
      "contractName": null,
      "contractAddress": "0xf61cd89a9e9b2b23ce0bdac6e19c3db52c56ac07",
      "function": "approve(address,uint256)",
      "arguments": [
        "0x3642Fa7E78acFAbf2851619AcdB92Ac560eFc746",
        "115792089237316195423570985008687907853269984665640564039457584007913129639935"
      ],
      "transaction": {
        "from": "0x4b992f2fbf714c0fcbb23bac5130ace48cad00cd",
        "to": "0xf61cd89a9e9b2b23ce0bdac6e19c3db52c56ac07",
        "gas": "0x1082c",
        "value": "0x0",
        "input": "0x095ea7b30000000000000000000000003642fa7e78acfabf2851619acdb92ac560efc746ffffffffffffffffffffffffffffffffffffffffffffffffffffffffffffffff",
        "nonce": "0x248",
        "chainId": "0x515"
      },
      "additionalContracts": [],
      "isFixedGasLimit": false
    },
    {
      "hash": "0x2fce9548b8fd6c04641baa8daac0bc169b6af79b820d79f5784afff4bd2434e7",
      "transactionType": "CALL",
      "contractName": null,
      "contractAddress": "0xf61cd89a9e9b2b23ce0bdac6e19c3db52c56ac07",
      "function": "approve(address,uint256)",
      "arguments": [
        "0xB4b2d15eBEC35e21E2FbCe3845Bff476082CC628",
        "115792089237316195423570985008687907853269984665640564039457584007913129639935"
      ],
      "transaction": {
        "from": "0x4b992f2fbf714c0fcbb23bac5130ace48cad00cd",
        "to": "0xf61cd89a9e9b2b23ce0bdac6e19c3db52c56ac07",
        "gas": "0x8e20",
        "value": "0x0",
        "input": "0x095ea7b3000000000000000000000000b4b2d15ebec35e21e2fbce3845bff476082cc628ffffffffffffffffffffffffffffffffffffffffffffffffffffffffffffffff",
        "nonce": "0x249",
        "chainId": "0x515"
      },
      "additionalContracts": [],
      "isFixedGasLimit": false
    },
    {
      "hash": "0x1447a84424cb9b337fb5cc81ae87f2f42bad182c0584c5f1b9b1b0f6ff93129b",
      "transactionType": "CALL",
      "contractName": null,
      "contractAddress": "0x3642fa7e78acfabf2851619acdb92ac560efc746",
      "function": "openBorrowAndReinvest(((address,address,uint24,int24,address),int24,int24,uint128,uint256,uint256,uint256,uint128,uint256))",
      "arguments": [
        "((0x2477B8687745f494931748F5355770BA72ED3830, 0xf61cD89a9E9b2B23Ce0bDac6E19C3DB52c56AC07, 3000, 60, 0x2d2A64DcD864Ba1C83dd634a8C19C4f695db10C0), -900, 900, 100000, 100000000000000000000000, 100000000000000000000000, 40000000000000000000000, 15000, 1000000000000000000)"
      ],
      "transaction": {
        "from": "0x4b992f2fbf714c0fcbb23bac5130ace48cad00cd",
        "to": "0x3642fa7e78acfabf2851619acdb92ac560efc746",
        "gas": "0x90154",
        "value": "0x0",
        "input": "0x00cb58390000000000000000000000002477b8687745f494931748f5355770ba72ed3830000000000000000000000000f61cd89a9e9b2b23ce0bdac6e19c3db52c56ac070000000000000000000000000000000000000000000000000000000000000bb8000000000000000000000000000000000000000000000000000000000000003c0000000000000000000000002d2a64dcd864ba1c83dd634a8c19c4f695db10c0fffffffffffffffffffffffffffffffffffffffffffffffffffffffffffffc7c000000000000000000000000000000000000000000000000000000000000038400000000000000000000000000000000000000000000000000000000000186a000000000000000000000000000000000000000000000152d02c7e14af680000000000000000000000000000000000000000000000000152d02c7e14af6800000000000000000000000000000000000000000000000000878678326eac90000000000000000000000000000000000000000000000000000000000000000003a980000000000000000000000000000000000000000000000000de0b6b3a7640000",
        "nonce": "0x24a",
        "chainId": "0x515"
      },
      "additionalContracts": [],
      "isFixedGasLimit": false
    },
    {
      "hash": "0x37084f9928ce7b0d77b88a8d1aae0b42c7c3b52c9b64379995695595e68c6a2b",
      "transactionType": "CALL",
      "contractName": null,
      "contractAddress": "0x3642fa7e78acfabf2851619acdb92ac560efc746",
      "function": "repayAndUnwind(uint256,uint256,uint256,uint256,uint128)",
      "arguments": [
        "1",
        "20000000000000000000000",
        "5000000000000000000000",
        "5000000000000000000000",
        "1000"
      ],
      "transaction": {
        "from": "0x4b992f2fbf714c0fcbb23bac5130ace48cad00cd",
        "to": "0x3642fa7e78acfabf2851619acdb92ac560efc746",
        "gas": "0x36a75",
        "value": "0x0",
        "input": "0xc22550b2000000000000000000000000000000000000000000000000000000000000000100000000000000000000000000000000000000000000043c33c193756480000000000000000000000000000000000000000000000000010f0cf064dd5920000000000000000000000000000000000000000000000000010f0cf064dd5920000000000000000000000000000000000000000000000000000000000000000003e8",
        "nonce": "0x24b",
        "chainId": "0x515"
      },
      "additionalContracts": [],
      "isFixedGasLimit": false
    },
    {
      "hash": "0x3467555f1b7208cf9e325132670b968f3b0aae58852a0a3157e24aacfa95bd24",
      "transactionType": "CALL",
      "contractName": null,
      "contractAddress": "0x3642fa7e78acfabf2851619acdb92ac560efc746",
      "function": "repayAllAndWithdraw(uint256)",
      "arguments": [
        "1"
      ],
      "transaction": {
        "from": "0x4b992f2fbf714c0fcbb23bac5130ace48cad00cd",
        "to": "0x3642fa7e78acfabf2851619acdb92ac560efc746",
        "gas": "0x2729a",
        "value": "0x0",
        "input": "0x39b5bccc0000000000000000000000000000000000000000000000000000000000000001",
        "nonce": "0x24c",
        "chainId": "0x515"
      },
      "additionalContracts": [],
      "isFixedGasLimit": false
    },
    {
      "hash": "0x722e7ed86bb34c748b17a6226ec62dbcfd4f8ba25b324d8a4f0512479971bb6f",
      "transactionType": "CALL",
      "contractName": null,
      "contractAddress": "0x3642fa7e78acfabf2851619acdb92ac560efc746",
      "function": "openBorrowAndReinvest(((address,address,uint24,int24,address),int24,int24,uint128,uint256,uint256,uint256,uint128,uint256))",
      "arguments": [
        "((0x2477B8687745f494931748F5355770BA72ED3830, 0xf61cD89a9E9b2B23Ce0bDac6E19C3DB52c56AC07, 3000, 60, 0x2d2A64DcD864Ba1C83dd634a8C19C4f695db10C0), -900, 900, 100000, 100000000000000000000000, 100000000000000000000000, 60000000000000000000000, 20000, 1000000000000000000)"
      ],
      "transaction": {
        "from": "0x4b992f2fbf714c0fcbb23bac5130ace48cad00cd",
        "to": "0x3642fa7e78acfabf2851619acdb92ac560efc746",
        "gas": "0x8efd2",
        "value": "0x0",
        "input": "0x00cb58390000000000000000000000002477b8687745f494931748f5355770ba72ed3830000000000000000000000000f61cd89a9e9b2b23ce0bdac6e19c3db52c56ac070000000000000000000000000000000000000000000000000000000000000bb8000000000000000000000000000000000000000000000000000000000000003c0000000000000000000000002d2a64dcd864ba1c83dd634a8c19c4f695db10c0fffffffffffffffffffffffffffffffffffffffffffffffffffffffffffffc7c000000000000000000000000000000000000000000000000000000000000038400000000000000000000000000000000000000000000000000000000000186a000000000000000000000000000000000000000000000152d02c7e14af680000000000000000000000000000000000000000000000000152d02c7e14af6800000000000000000000000000000000000000000000000000cb49b44ba602d8000000000000000000000000000000000000000000000000000000000000000004e200000000000000000000000000000000000000000000000000de0b6b3a7640000",
        "nonce": "0x24d",
        "chainId": "0x515"
      },
      "additionalContracts": [],
      "isFixedGasLimit": false
    },
    {
      "hash": "0x5a74c2eded81793d817ab09d360072bf5cf9a8e2aa51e20380502ce3830c8095",
      "transactionType": "CALL",
      "contractName": null,
      "contractAddress": "0xf61cd89a9e9b2b23ce0bdac6e19c3db52c56ac07",
      "function": "mint(address,uint256)",
      "arguments": [
        "0x4b992F2Fbf714C0fCBb23baC5130Ace48CaD00cd",
        "500000000000000000000000"
      ],
      "transaction": {
        "from": "0x4b992f2fbf714c0fcbb23bac5130ace48cad00cd",
        "to": "0xf61cd89a9e9b2b23ce0bdac6e19c3db52c56ac07",
        "gas": "0xc190",
        "value": "0x0",
        "input": "0x40c10f190000000000000000000000004b992f2fbf714c0fcbb23bac5130ace48cad00cd0000000000000000000000000000000000000000000069e10de76676d0800000",
        "nonce": "0x24e",
        "chainId": "0x515"
      },
      "additionalContracts": [],
      "isFixedGasLimit": false
    },
    {
      "hash": "0x4ca2ef1db1ee18198682468273fc1a2ca27108818951853d26edc591b48d3041",
      "transactionType": "CALL",
      "contractName": null,
      "contractAddress": "0xf61cd89a9e9b2b23ce0bdac6e19c3db52c56ac07",
      "function": "approve(address,uint256)",
      "arguments": [
        "0xB4b2d15eBEC35e21E2FbCe3845Bff476082CC628",
        "115792089237316195423570985008687907853269984665640564039457584007913129639935"
      ],
      "transaction": {
        "from": "0x4b992f2fbf714c0fcbb23bac5130ace48cad00cd",
        "to": "0xf61cd89a9e9b2b23ce0bdac6e19c3db52c56ac07",
        "gas": "0x8e20",
        "value": "0x0",
        "input": "0x095ea7b3000000000000000000000000b4b2d15ebec35e21e2fbce3845bff476082cc628ffffffffffffffffffffffffffffffffffffffffffffffffffffffffffffffff",
        "nonce": "0x24f",
        "chainId": "0x515"
      },
      "additionalContracts": [],
      "isFixedGasLimit": false
    },
    {
      "hash": "0x043a58cdda1d26262a5fd573c9945b8fc3f53d508d0bde7cc8bb0e240b1c33d5",
      "transactionType": "CALL",
      "contractName": null,
      "contractAddress": "0x2d2a64dcd864ba1c83dd634a8c19c4f695db10c0",
      "function": "syncPool((address,address,uint24,int24,address))",
      "arguments": [
        "(0x2477B8687745f494931748F5355770BA72ED3830, 0xf61cD89a9E9b2B23Ce0bDac6E19C3DB52c56AC07, 3000, 60, 0x2d2A64DcD864Ba1C83dd634a8C19C4f695db10C0)"
      ],
      "transaction": {
        "from": "0x4b992f2fbf714c0fcbb23bac5130ace48cad00cd",
        "to": "0x2d2a64dcd864ba1c83dd634a8c19c4f695db10c0",
        "gas": "0xe7f4",
        "value": "0x0",
        "input": "0xfc2cd0c80000000000000000000000002477b8687745f494931748f5355770ba72ed3830000000000000000000000000f61cd89a9e9b2b23ce0bdac6e19c3db52c56ac070000000000000000000000000000000000000000000000000000000000000bb8000000000000000000000000000000000000000000000000000000000000003c0000000000000000000000002d2a64dcd864ba1c83dd634a8c19c4f695db10c0",
        "nonce": "0x250",
        "chainId": "0x515"
      },
      "additionalContracts": [],
      "isFixedGasLimit": false
    },
    {
      "hash": "0xbebb10404da3382b3288b65020fdfdecff385f4d68d9baeffc0399473655720f",
      "transactionType": "CALL",
      "contractName": null,
      "contractAddress": "0x70df6c59673adaee5ac1354f1051bc6a232a3c53",
      "function": "setPoolRiskConfig(bytes32,(bool,bool,uint16,uint16,uint16,uint16,uint16,uint16,uint16,uint16,uint16,uint32,uint24,int24,int24))",
      "arguments": [
        "0xb566e82c46dc43d453be3bafdfb898f51610117a92439b0a4bf1433eac0e15dc",
        "(true, false, 2000, 2500, 1500, 4000, 3500, 0, 0, 0, 0, 0, 1, 1, 1)"
      ],
      "transaction": {
        "from": "0x4b992f2fbf714c0fcbb23bac5130ace48cad00cd",
        "to": "0x70df6c59673adaee5ac1354f1051bc6a232a3c53",
        "gas": "0xfa24",
        "value": "0x0",
        "input": "0x7ea66eaab566e82c46dc43d453be3bafdfb898f51610117a92439b0a4bf1433eac0e15dc0000000000000000000000000000000000000000000000000000000000000001000000000000000000000000000000000000000000000000000000000000000000000000000000000000000000000000000000000000000000000000000007d000000000000000000000000000000000000000000000000000000000000009c400000000000000000000000000000000000000000000000000000000000005dc0000000000000000000000000000000000000000000000000000000000000fa00000000000000000000000000000000000000000000000000000000000000dac00000000000000000000000000000000000000000000000000000000000000000000000000000000000000000000000000000000000000000000000000000000000000000000000000000000000000000000000000000000000000000000000000000000000000000000000000000000000000000000000000000000000000000000000000000000000000000000000000000000000000000000000000000000000000000000000000000000000000000000000000000000000000000000000100000000000000000000000000000000000000000000000000000000000000010000000000000000000000000000000000000000000000000000000000000001",
        "nonce": "0x251",
        "chainId": "0x515"
      },
      "additionalContracts": [],
      "isFixedGasLimit": false
    },
    {
      "hash": "0x10fc8b7ee5b60ece2305c39d1ecff9e2c64c01b0925250bd8e572772e9046397",
      "transactionType": "CALL",
      "contractName": null,
      "contractAddress": "0x9148f61ad2d5cef6a7c43c6c951a816475cd1bfe",
      "function": "liquidate(uint256,uint256,uint256,uint256)",
      "arguments": [
        "2",
        "30000000000000000000000",
        "0",
        "0"
      ],
      "transaction": {
        "from": "0x4b992f2fbf714c0fcbb23bac5130ace48cad00cd",
        "to": "0x9148f61ad2d5cef6a7c43c6c951a816475cd1bfe",
        "gas": "0x3c4c7",
        "value": "0x0",
        "input": "0x43857a1f000000000000000000000000000000000000000000000000000000000000000200000000000000000000000000000000000000000000065a4da25d3016c0000000000000000000000000000000000000000000000000000000000000000000000000000000000000000000000000000000000000000000000000000000000000",
        "nonce": "0x252",
        "chainId": "0x515"
      },
      "additionalContracts": [],
      "isFixedGasLimit": false
    }
  ],
  "receipts": [
    {
      "status": "0x1",
      "cumulativeGasUsed": "0x82ba8",
      "logs": [
        {
          "address": "0x2477b8687745f494931748f5355770ba72ed3830",
          "topics": [
            "0xddf252ad1be2c89b69c2b068fc378daa952ba7f163c4a11628f55a4df523b3ef",
            "0x0000000000000000000000000000000000000000000000000000000000000000",
            "0x0000000000000000000000004b992f2fbf714c0fcbb23bac5130ace48cad00cd"
          ],
          "data": "0x000000000000000000000000000000000000000000007f0e10af47c1c7000000",
          "blockHash": "0x3a89736513b681f9934404f7f86a67370300421f3f2402bb82e00991d8a8a62a",
          "blockNumber": "0x2c2ffe3",
          "blockTimestamp": "0x69b0ad2f",
          "transactionHash": "0xcac226a4d0d382e66ceb3c95475de9ae10420a2fc11ea2f7c8c939847ad7fd86",
          "transactionIndex": "0x6",
          "logIndex": "0x7",
          "removed": false
        }
      ],
      "logsBloom": "0x00000000000000000000000000000000000000000000000000000000000000000000000000000000000000000000000000000002000000000000000000000000000000000000000000000008000000000000000000000000000100000000000000000000020000000000000000020800000000000000000000000010000000000000000000001000000000000000000000000000000000000000000000000000000000001000000000000000000000000000000000000000000000000002000000000002000000000000000000000000000000000000000000000000000020000000000000000000000000000000000000000000000000000000000000000000",
      "type": "0x2",
      "transactionHash": "0xcac226a4d0d382e66ceb3c95475de9ae10420a2fc11ea2f7c8c939847ad7fd86",
      "transactionIndex": "0x6",
      "blockHash": "0x3a89736513b681f9934404f7f86a67370300421f3f2402bb82e00991d8a8a62a",
      "blockNumber": "0x2c2ffe3",
      "gasUsed": "0x844e",
      "effectiveGasPrice": "0x7a121",
      "blobGasUsed": "0x9c40",
      "from": "0x4b992f2fbf714c0fcbb23bac5130ace48cad00cd",
      "to": "0x2477b8687745f494931748f5355770ba72ed3830",
      "contractAddress": null,
      "daFootprintGasScalar": "0x190",
      "l1BaseFeeScalar": "0x7d0",
      "l1BlobBaseFee": "0x1",
      "l1BlobBaseFeeScalar": "0xdbba0",
      "l1Fee": "0x76",
      "l1GasPrice": "0x9",
      "l1GasUsed": "0x640"
    },
    {
      "status": "0x1",
      "cumulativeGasUsed": "0x8aff6",
      "logs": [
        {
          "address": "0xf61cd89a9e9b2b23ce0bdac6e19c3db52c56ac07",
          "topics": [
            "0xddf252ad1be2c89b69c2b068fc378daa952ba7f163c4a11628f55a4df523b3ef",
            "0x0000000000000000000000000000000000000000000000000000000000000000",
            "0x0000000000000000000000004b992f2fbf714c0fcbb23bac5130ace48cad00cd"
          ],
          "data": "0x000000000000000000000000000000000000000000007f0e10af47c1c7000000",
          "blockHash": "0x3a89736513b681f9934404f7f86a67370300421f3f2402bb82e00991d8a8a62a",
          "blockNumber": "0x2c2ffe3",
          "blockTimestamp": "0x69b0ad2f",
          "transactionHash": "0xace8d0e7a566b1f54b5f1f7ee63a95ab30e1455f13dbc157d5b91ec7a51a92ff",
          "transactionIndex": "0x7",
          "logIndex": "0x8",
          "removed": false
        }
      ],
      "logsBloom": "0x00000000000000000000000000000000000000000000000000000000000000000000010000000000000000000000000000000002000000000000000000000000000000000000000000000008000000000000000000000000000100000000000000000000020000000000000000020800000000000000000000000010000000000000000000000000000800000000000000000000000000000000000000000000000000000000000000000000000000040000000000000000000000000000000000000002000000000000000000000000000000000000000000000000000020000000000000000000000000000000000000000000000000000000000000000000",
      "type": "0x2",
      "transactionHash": "0xace8d0e7a566b1f54b5f1f7ee63a95ab30e1455f13dbc157d5b91ec7a51a92ff",
      "transactionIndex": "0x7",
      "blockHash": "0x3a89736513b681f9934404f7f86a67370300421f3f2402bb82e00991d8a8a62a",
      "blockNumber": "0x2c2ffe3",
      "gasUsed": "0x844e",
      "effectiveGasPrice": "0x7a121",
      "blobGasUsed": "0x9c40",
      "from": "0x4b992f2fbf714c0fcbb23bac5130ace48cad00cd",
      "to": "0xf61cd89a9e9b2b23ce0bdac6e19c3db52c56ac07",
      "contractAddress": null,
      "daFootprintGasScalar": "0x190",
      "l1BaseFeeScalar": "0x7d0",
      "l1BlobBaseFee": "0x1",
      "l1BlobBaseFeeScalar": "0xdbba0",
      "l1Fee": "0x76",
      "l1GasPrice": "0x9",
      "l1GasUsed": "0x640"
    },
    {
      "status": "0x1",
      "cumulativeGasUsed": "0x96498",
      "logs": [
        {
          "address": "0x2477b8687745f494931748f5355770ba72ed3830",
          "topics": [
            "0x8c5be1e5ebec7d5bd14f71427d1e84f3dd0314c0f7b2291e5b200ac8c7c3b925",
            "0x0000000000000000000000004b992f2fbf714c0fcbb23bac5130ace48cad00cd",
            "0x0000000000000000000000003642fa7e78acfabf2851619acdb92ac560efc746"
          ],
          "data": "0xffffffffffffffffffffffffffffffffffffffffffffffffffffffffffffffff",
          "blockHash": "0x3a89736513b681f9934404f7f86a67370300421f3f2402bb82e00991d8a8a62a",
          "blockNumber": "0x2c2ffe3",
          "blockTimestamp": "0x69b0ad2f",
          "transactionHash": "0xeb22f16d3adaa7ea009fea36d7dbed92f9fa5a1cf21d5f2e2e238ae42a574644",
          "transactionIndex": "0x8",
          "logIndex": "0x9",
          "removed": false
        }
      ],
      "logsBloom": "0x00000000000000000000000000000000000000000000000000000000000000000000000000000000000000000000000000000002000000000000000000200000000000000000000000000000000000000000000000000000000100000000002000000000001000000000000000020000000000000000000000000000000000000000000000001000000000000000000000000000000000000000000000000000020000001000000000000000000000000000000000000000000000000002000000000000000000000000000000000000000000000000000000000000000000000010000000000000000000000000000010000000000000000000000000000000",
      "type": "0x2",
      "transactionHash": "0xeb22f16d3adaa7ea009fea36d7dbed92f9fa5a1cf21d5f2e2e238ae42a574644",
      "transactionIndex": "0x8",
      "blockHash": "0x3a89736513b681f9934404f7f86a67370300421f3f2402bb82e00991d8a8a62a",
      "blockNumber": "0x2c2ffe3",
      "gasUsed": "0xb4a2",
      "effectiveGasPrice": "0x7a121",
      "blobGasUsed": "0x9c40",
      "from": "0x4b992f2fbf714c0fcbb23bac5130ace48cad00cd",
      "to": "0x2477b8687745f494931748f5355770ba72ed3830",
      "contractAddress": null,
      "daFootprintGasScalar": "0x190",
      "l1BaseFeeScalar": "0x7d0",
      "l1BlobBaseFee": "0x1",
      "l1BlobBaseFeeScalar": "0xdbba0",
      "l1Fee": "0x76",
      "l1GasPrice": "0x9",
      "l1GasUsed": "0x640"
    },
    {
      "status": "0x1",
      "cumulativeGasUsed": "0xa193a",
      "logs": [
        {
          "address": "0xf61cd89a9e9b2b23ce0bdac6e19c3db52c56ac07",
          "topics": [
            "0x8c5be1e5ebec7d5bd14f71427d1e84f3dd0314c0f7b2291e5b200ac8c7c3b925",
            "0x0000000000000000000000004b992f2fbf714c0fcbb23bac5130ace48cad00cd",
            "0x0000000000000000000000003642fa7e78acfabf2851619acdb92ac560efc746"
          ],
          "data": "0xffffffffffffffffffffffffffffffffffffffffffffffffffffffffffffffff",
          "blockHash": "0x3a89736513b681f9934404f7f86a67370300421f3f2402bb82e00991d8a8a62a",
          "blockNumber": "0x2c2ffe3",
          "blockTimestamp": "0x69b0ad2f",
          "transactionHash": "0x33f7f33ec79c32cc11dd34196dba73bb210498882e9d85222e416400223ee96f",
          "transactionIndex": "0x9",
          "logIndex": "0xa",
          "removed": false
        }
      ],
      "logsBloom": "0x00000000000000000000000000000000000000000000000000000000000000000000010000000000000000000000000000000002000000000000000000200000000000000000000000000000000000000000000000000000000100000000002000000000001000000000000000020000000000000000000000000000000000000000000000000000000800000000000000000000000000000000000000000000020000000000000000000000000000040000000000000000000000000000000000000000000000000000000000000000000000000000000000000000000000000010000000000000000000000000000010000000000000000000000000000000",
      "type": "0x2",
      "transactionHash": "0x33f7f33ec79c32cc11dd34196dba73bb210498882e9d85222e416400223ee96f",
      "transactionIndex": "0x9",
      "blockHash": "0x3a89736513b681f9934404f7f86a67370300421f3f2402bb82e00991d8a8a62a",
      "blockNumber": "0x2c2ffe3",
      "gasUsed": "0xb4a2",
      "effectiveGasPrice": "0x7a121",
      "blobGasUsed": "0x9c40",
      "from": "0x4b992f2fbf714c0fcbb23bac5130ace48cad00cd",
      "to": "0xf61cd89a9e9b2b23ce0bdac6e19c3db52c56ac07",
      "contractAddress": null,
      "daFootprintGasScalar": "0x190",
      "l1BaseFeeScalar": "0x7d0",
      "l1BlobBaseFee": "0x1",
      "l1BlobBaseFeeScalar": "0xdbba0",
      "l1Fee": "0x76",
      "l1GasPrice": "0x9",
      "l1GasUsed": "0x640"
    },
    {
      "status": "0x1",
      "cumulativeGasUsed": "0xa8020",
      "logs": [
        {
          "address": "0xf61cd89a9e9b2b23ce0bdac6e19c3db52c56ac07",
          "topics": [
            "0x8c5be1e5ebec7d5bd14f71427d1e84f3dd0314c0f7b2291e5b200ac8c7c3b925",
            "0x0000000000000000000000004b992f2fbf714c0fcbb23bac5130ace48cad00cd",
            "0x000000000000000000000000b4b2d15ebec35e21e2fbce3845bff476082cc628"
          ],
          "data": "0xffffffffffffffffffffffffffffffffffffffffffffffffffffffffffffffff",
          "blockHash": "0x3a89736513b681f9934404f7f86a67370300421f3f2402bb82e00991d8a8a62a",
          "blockNumber": "0x2c2ffe3",
          "blockTimestamp": "0x69b0ad2f",
          "transactionHash": "0x2fce9548b8fd6c04641baa8daac0bc169b6af79b820d79f5784afff4bd2434e7",
          "transactionIndex": "0xa",
          "logIndex": "0xb",
          "removed": false
        }
      ],
      "logsBloom": "0x00000000000000000000000000000000000000000000000000000000000000000000010000000000000000000000000000000002000000000000000000200000000000000000000000000000000000000000000000000000000100000000000000000000000000000000000000020000000000000000000000000000000000000000000000000000000800000000000000000000000000000008000000000000020004000100000000000000000000040000000000000000000000000000000000000000000000000000000000000000000000000000000000000000000000000010000000000000000000000000000000000000000000000000000000000000",
      "type": "0x2",
      "transactionHash": "0x2fce9548b8fd6c04641baa8daac0bc169b6af79b820d79f5784afff4bd2434e7",
      "transactionIndex": "0xa",
      "blockHash": "0x3a89736513b681f9934404f7f86a67370300421f3f2402bb82e00991d8a8a62a",
      "blockNumber": "0x2c2ffe3",
      "gasUsed": "0x66e6",
      "effectiveGasPrice": "0x7a121",
      "blobGasUsed": "0x9c40",
      "from": "0x4b992f2fbf714c0fcbb23bac5130ace48cad00cd",
      "to": "0xf61cd89a9e9b2b23ce0bdac6e19c3db52c56ac07",
      "contractAddress": null,
      "daFootprintGasScalar": "0x190",
      "l1BaseFeeScalar": "0x7d0",
      "l1BlobBaseFee": "0x1",
      "l1BlobBaseFeeScalar": "0xdbba0",
      "l1Fee": "0x76",
      "l1GasPrice": "0x9",
      "l1GasUsed": "0x640"
    },
    {
      "status": "0x1",
      "cumulativeGasUsed": "0x110525",
      "logs": [
        {
          "address": "0x2477b8687745f494931748f5355770ba72ed3830",
          "topics": [
            "0xddf252ad1be2c89b69c2b068fc378daa952ba7f163c4a11628f55a4df523b3ef",
            "0x0000000000000000000000004b992f2fbf714c0fcbb23bac5130ace48cad00cd",
            "0x000000000000000000000000dd008a1209bf0400c3e7c0b5a4d23e691ee43990"
          ],
          "data": "0x00000000000000000000000000000000000000000000152d02c7e14af6800000",
          "blockHash": "0x3a89736513b681f9934404f7f86a67370300421f3f2402bb82e00991d8a8a62a",
          "blockNumber": "0x2c2ffe3",
          "blockTimestamp": "0x69b0ad2f",
          "transactionHash": "0x1447a84424cb9b337fb5cc81ae87f2f42bad182c0584c5f1b9b1b0f6ff93129b",
          "transactionIndex": "0xb",
          "logIndex": "0xc",
          "removed": false
        },
        {
          "address": "0xf61cd89a9e9b2b23ce0bdac6e19c3db52c56ac07",
          "topics": [
            "0xddf252ad1be2c89b69c2b068fc378daa952ba7f163c4a11628f55a4df523b3ef",
            "0x0000000000000000000000004b992f2fbf714c0fcbb23bac5130ace48cad00cd",
            "0x000000000000000000000000dd008a1209bf0400c3e7c0b5a4d23e691ee43990"
          ],
          "data": "0x00000000000000000000000000000000000000000000152d02c7e14af6800000",
          "blockHash": "0x3a89736513b681f9934404f7f86a67370300421f3f2402bb82e00991d8a8a62a",
          "blockNumber": "0x2c2ffe3",
          "blockTimestamp": "0x69b0ad2f",
          "transactionHash": "0x1447a84424cb9b337fb5cc81ae87f2f42bad182c0584c5f1b9b1b0f6ff93129b",
          "transactionIndex": "0xb",
          "logIndex": "0xd",
          "removed": false
        },
        {
          "address": "0xdd008a1209bf0400c3e7c0b5a4d23e691ee43990",
          "topics": [
            "0xda5bbcbf3f936186623513e9d6174902ea63913ab38d428da5a3681beb66bf40",
            "0x0000000000000000000000000000000000000000000000000000000000000001",
            "0x0000000000000000000000004b992f2fbf714c0fcbb23bac5130ace48cad00cd",
            "0xb566e82c46dc43d453be3bafdfb898f51610117a92439b0a4bf1433eac0e15dc"
          ],
          "data": "0x00000000000000000000000000000000000000000000152d02c7e14af680000000000000000000000000000000000000000000000000152d02c7e14af680000000000000000000000000000000000000000000000000000000000000000186a0",
          "blockHash": "0x3a89736513b681f9934404f7f86a67370300421f3f2402bb82e00991d8a8a62a",
          "blockNumber": "0x2c2ffe3",
          "blockTimestamp": "0x69b0ad2f",
          "transactionHash": "0x1447a84424cb9b337fb5cc81ae87f2f42bad182c0584c5f1b9b1b0f6ff93129b",
          "transactionIndex": "0xb",
          "logIndex": "0xe",
          "removed": false
        },
        {
          "address": "0xf61cd89a9e9b2b23ce0bdac6e19c3db52c56ac07",
          "topics": [
            "0xddf252ad1be2c89b69c2b068fc378daa952ba7f163c4a11628f55a4df523b3ef",
            "0x000000000000000000000000b4b2d15ebec35e21e2fbce3845bff476082cc628",
            "0x000000000000000000000000dd008a1209bf0400c3e7c0b5a4d23e691ee43990"
          ],
          "data": "0x000000000000000000000000000000000000000000000878678326eac9000000",
          "blockHash": "0x3a89736513b681f9934404f7f86a67370300421f3f2402bb82e00991d8a8a62a",
          "blockNumber": "0x2c2ffe3",
          "blockTimestamp": "0x69b0ad2f",
          "transactionHash": "0x1447a84424cb9b337fb5cc81ae87f2f42bad182c0584c5f1b9b1b0f6ff93129b",
          "transactionIndex": "0xb",
          "logIndex": "0xf",
          "removed": false
        },
        {
          "address": "0xb4b2d15ebec35e21e2fbce3845bff476082cc628",
          "topics": [
            "0xf757d05eea809fa4e0cb84c028b2e1f0e6387cc1fddf8c4ef6751e3a0ed69a71",
            "0x0000000000000000000000000000000000000000000000000000000000000001",
            "0x000000000000000000000000dd008a1209bf0400c3e7c0b5a4d23e691ee43990"
          ],
          "data": "0x000000000000000000000000000000000000000000000878678326eac9000000000000000000000000000000000000000000000000000878678326eac9000000",
          "blockHash": "0x3a89736513b681f9934404f7f86a67370300421f3f2402bb82e00991d8a8a62a",
          "blockNumber": "0x2c2ffe3",
          "blockTimestamp": "0x69b0ad2f",
          "transactionHash": "0x1447a84424cb9b337fb5cc81ae87f2f42bad182c0584c5f1b9b1b0f6ff93129b",
          "transactionIndex": "0xb",
          "logIndex": "0x10",
          "removed": false
        },
        {
          "address": "0xdd008a1209bf0400c3e7c0b5a4d23e691ee43990",
          "topics": [
            "0xd55b73c5d25b64a50c7e028ddac7cb0e47c922911cc59be371745474e6733899",
            "0x0000000000000000000000000000000000000000000000000000000000000001"
          ],
          "data": "0x00000000000000000000000000000000000000000000152d02c7e14af6800000000000000000000000000000000000000000000000001da56a4b0835bf80000000000000000000000000000000000000000000000000000000000000000186a00000000000000000000000000000000000000000000000000000000000003a98",
          "blockHash": "0x3a89736513b681f9934404f7f86a67370300421f3f2402bb82e00991d8a8a62a",
          "blockNumber": "0x2c2ffe3",
          "blockTimestamp": "0x69b0ad2f",
          "transactionHash": "0x1447a84424cb9b337fb5cc81ae87f2f42bad182c0584c5f1b9b1b0f6ff93129b",
          "transactionIndex": "0xb",
          "logIndex": "0x11",
          "removed": false
        },
        {
          "address": "0x3642fa7e78acfabf2851619acdb92ac560efc746",
          "topics": [
            "0xce95f1d5bc4fd4061928be3b668973283b0d4e2c4622beb1cfc7e83a12dfd327",
            "0x0000000000000000000000000000000000000000000000000000000000000001",
            "0x0000000000000000000000004b992f2fbf714c0fcbb23bac5130ace48cad00cd",
            "0xb566e82c46dc43d453be3bafdfb898f51610117a92439b0a4bf1433eac0e15dc"
          ],
          "data": "0x00000000000000000000000000000000000000000000152d02c7e14af680000000000000000000000000000000000000000000000000152d02c7e14af6800000000000000000000000000000000000000000000000000878678326eac90000000000000000000000000000000000000000000000000000000000000000003a9800000000000000000000000000000000000000000000000027c0649faea10000",
          "blockHash": "0x3a89736513b681f9934404f7f86a67370300421f3f2402bb82e00991d8a8a62a",
          "blockNumber": "0x2c2ffe3",
          "blockTimestamp": "0x69b0ad2f",
          "transactionHash": "0x1447a84424cb9b337fb5cc81ae87f2f42bad182c0584c5f1b9b1b0f6ff93129b",
          "transactionIndex": "0xb",
          "logIndex": "0x12",
          "removed": false
        }
      ],
      "logsBloom": "0x000000000200000020020000000000000000000000000000000040000000000000000100000000000000000000100000000000020000000000000000000c0800120000000000000000000008100820000000000000048000000100000000000000000000000000000000000000020000000080000008000000000010000080000000000000001100000800100000000000020000002000000108000200000000000004001100000000000000000000040000000000000000000010000002000000020002000000000000000008000000000000000000000000000000040040000000000000000000000000000000000000000000000000000800000000000000",
      "type": "0x2",
      "transactionHash": "0x1447a84424cb9b337fb5cc81ae87f2f42bad182c0584c5f1b9b1b0f6ff93129b",
      "transactionIndex": "0xb",
      "blockHash": "0x3a89736513b681f9934404f7f86a67370300421f3f2402bb82e00991d8a8a62a",
      "blockNumber": "0x2c2ffe3",
      "gasUsed": "0x68505",
      "effectiveGasPrice": "0x7a121",
      "blobGasUsed": "0x13240",
      "from": "0x4b992f2fbf714c0fcbb23bac5130ace48cad00cd",
      "to": "0x3642fa7e78acfabf2851619acdb92ac560efc746",
      "contractAddress": null,
      "daFootprintGasScalar": "0x190",
      "l1BaseFeeScalar": "0x7d0",
      "l1BlobBaseFee": "0x1",
      "l1BlobBaseFeeScalar": "0xdbba0",
      "l1Fee": "0xe9",
      "l1GasPrice": "0x9",
      "l1GasUsed": "0xc4a"
    },
    {
      "status": "0x1",
      "cumulativeGasUsed": "0x137e3d",
      "logs": [
        {
          "address": "0xf61cd89a9e9b2b23ce0bdac6e19c3db52c56ac07",
          "topics": [
            "0xddf252ad1be2c89b69c2b068fc378daa952ba7f163c4a11628f55a4df523b3ef",
            "0x0000000000000000000000004b992f2fbf714c0fcbb23bac5130ace48cad00cd",
            "0x000000000000000000000000b4b2d15ebec35e21e2fbce3845bff476082cc628"
          ],
          "data": "0x00000000000000000000000000000000000000000000043c33c1937564800000",
          "blockHash": "0x3a89736513b681f9934404f7f86a67370300421f3f2402bb82e00991d8a8a62a",
          "blockNumber": "0x2c2ffe3",
          "blockTimestamp": "0x69b0ad2f",
          "transactionHash": "0x37084f9928ce7b0d77b88a8d1aae0b42c7c3b52c9b64379995695595e68c6a2b",
          "transactionIndex": "0xc",
          "logIndex": "0x13",
          "removed": false
        },
        {
          "address": "0xb4b2d15ebec35e21e2fbce3845bff476082cc628",
          "topics": [
            "0x82f3cd1e351c1cf149e065782737f7cd0d51ef52fdb03157f0490fc9d069ab47",
            "0x0000000000000000000000000000000000000000000000000000000000000001",
            "0x0000000000000000000000004b992f2fbf714c0fcbb23bac5130ace48cad00cd"
          ],
          "data": "0x00000000000000000000000000000000000000000000043c33c193756480000000000000000000000000000000000000000000000000043c33c1937564800000",
          "blockHash": "0x3a89736513b681f9934404f7f86a67370300421f3f2402bb82e00991d8a8a62a",
          "blockNumber": "0x2c2ffe3",
          "blockTimestamp": "0x69b0ad2f",
          "transactionHash": "0x37084f9928ce7b0d77b88a8d1aae0b42c7c3b52c9b64379995695595e68c6a2b",
          "transactionIndex": "0xc",
          "logIndex": "0x14",
          "removed": false
        },
        {
          "address": "0x2477b8687745f494931748f5355770ba72ed3830",
          "topics": [
            "0xddf252ad1be2c89b69c2b068fc378daa952ba7f163c4a11628f55a4df523b3ef",
            "0x000000000000000000000000dd008a1209bf0400c3e7c0b5a4d23e691ee43990",
            "0x0000000000000000000000004b992f2fbf714c0fcbb23bac5130ace48cad00cd"
          ],
          "data": "0x00000000000000000000000000000000000000000000010f0cf064dd59200000",
          "blockHash": "0x3a89736513b681f9934404f7f86a67370300421f3f2402bb82e00991d8a8a62a",
          "blockNumber": "0x2c2ffe3",
          "blockTimestamp": "0x69b0ad2f",
          "transactionHash": "0x37084f9928ce7b0d77b88a8d1aae0b42c7c3b52c9b64379995695595e68c6a2b",
          "transactionIndex": "0xc",
          "logIndex": "0x15",
          "removed": false
        },
        {
          "address": "0xf61cd89a9e9b2b23ce0bdac6e19c3db52c56ac07",
          "topics": [
            "0xddf252ad1be2c89b69c2b068fc378daa952ba7f163c4a11628f55a4df523b3ef",
            "0x000000000000000000000000dd008a1209bf0400c3e7c0b5a4d23e691ee43990",
            "0x0000000000000000000000004b992f2fbf714c0fcbb23bac5130ace48cad00cd"
          ],
          "data": "0x00000000000000000000000000000000000000000000010f0cf064dd59200000",
          "blockHash": "0x3a89736513b681f9934404f7f86a67370300421f3f2402bb82e00991d8a8a62a",
          "blockNumber": "0x2c2ffe3",
          "blockTimestamp": "0x69b0ad2f",
          "transactionHash": "0x37084f9928ce7b0d77b88a8d1aae0b42c7c3b52c9b64379995695595e68c6a2b",
          "transactionIndex": "0xc",
          "logIndex": "0x16",
          "removed": false
        },
        {
          "address": "0xdd008a1209bf0400c3e7c0b5a4d23e691ee43990",
          "topics": [
            "0xd55b73c5d25b64a50c7e028ddac7cb0e47c922911cc59be371745474e6733899",
            "0x0000000000000000000000000000000000000000000000000000000000000001"
          ],
          "data": "0x00000000000000000000000000000000000000000000141df5d77c6d9d600000000000000000000000000000000000000000000000001c965d5aa3586660000000000000000000000000000000000000000000000000000000000000000186a000000000000000000000000000000000000000000000000000000000000036b0",
          "blockHash": "0x3a89736513b681f9934404f7f86a67370300421f3f2402bb82e00991d8a8a62a",
          "blockNumber": "0x2c2ffe3",
          "blockTimestamp": "0x69b0ad2f",
          "transactionHash": "0x37084f9928ce7b0d77b88a8d1aae0b42c7c3b52c9b64379995695595e68c6a2b",
          "transactionIndex": "0xc",
          "logIndex": "0x17",
          "removed": false
        },
        {
          "address": "0x3642fa7e78acfabf2851619acdb92ac560efc746",
          "topics": [
            "0xc1076f3b2c622d9955b11c55379a2bad508b751d00c996a550d7aaa86aecfd0d",
            "0x0000000000000000000000000000000000000000000000000000000000000001"
          ],
          "data": "0x00000000000000000000000000000000000000000000043c33c193756480000000000000000000000000000000000000000000000000010f0cf064dd5920000000000000000000000000000000000000000000000000010f0cf064dd5920000000000000000000000000000000000000000000000000000000000000000003e80000000000000000000000000000000000000000000000004c30c0dcb95f4000",
          "blockHash": "0x3a89736513b681f9934404f7f86a67370300421f3f2402bb82e00991d8a8a62a",
          "blockNumber": "0x2c2ffe3",
          "blockTimestamp": "0x69b0ad2f",
          "transactionHash": "0x37084f9928ce7b0d77b88a8d1aae0b42c7c3b52c9b64379995695595e68c6a2b",
          "transactionIndex": "0xc",
          "logIndex": "0x18",
          "removed": false
        }
      ],
      "logsBloom": "0x00020000000000002000200000000000000000000000000000000000000000000000010000000080000000000000000000000002000000000000000000040800120000000000000000000008100020000000000000040000000100000000000000000000000000000000000000020000000080000000000000000010000080000000000000001100000800100000000000020000002000000008000200000000000004001100000000000000000000040000000000000000000000000002040000020002000000000000000000000000000000000000040000000000040040000000000000100000000000000000000000000000000000000000000000000000",
      "type": "0x2",
      "transactionHash": "0x37084f9928ce7b0d77b88a8d1aae0b42c7c3b52c9b64379995695595e68c6a2b",
      "transactionIndex": "0xc",
      "blockHash": "0x3a89736513b681f9934404f7f86a67370300421f3f2402bb82e00991d8a8a62a",
      "blockNumber": "0x2c2ffe3",
      "gasUsed": "0x27918",
      "effectiveGasPrice": "0x7a121",
      "blobGasUsed": "0x9c40",
      "from": "0x4b992f2fbf714c0fcbb23bac5130ace48cad00cd",
      "to": "0x3642fa7e78acfabf2851619acdb92ac560efc746",
      "contractAddress": null,
      "daFootprintGasScalar": "0x190",
      "l1BaseFeeScalar": "0x7d0",
      "l1BlobBaseFee": "0x1",
      "l1BlobBaseFeeScalar": "0xdbba0",
      "l1Fee": "0x76",
      "l1GasPrice": "0x9",
      "l1GasUsed": "0x640"
    },
    {
      "status": "0x1",
      "cumulativeGasUsed": "0x16b416",
      "logs": [
        {
          "address": "0xf61cd89a9e9b2b23ce0bdac6e19c3db52c56ac07",
          "topics": [
            "0xddf252ad1be2c89b69c2b068fc378daa952ba7f163c4a11628f55a4df523b3ef",
            "0x0000000000000000000000004b992f2fbf714c0fcbb23bac5130ace48cad00cd",
            "0x000000000000000000000000b4b2d15ebec35e21e2fbce3845bff476082cc628"
          ],
          "data": "0x00000000000000000000000000000000000000000000043c33c1937564800000",
          "blockHash": "0x3a89736513b681f9934404f7f86a67370300421f3f2402bb82e00991d8a8a62a",
          "blockNumber": "0x2c2ffe3",
          "blockTimestamp": "0x69b0ad2f",
          "transactionHash": "0x3467555f1b7208cf9e325132670b968f3b0aae58852a0a3157e24aacfa95bd24",
          "transactionIndex": "0xe",
          "logIndex": "0x1a",
          "removed": false
        },
        {
          "address": "0xb4b2d15ebec35e21e2fbce3845bff476082cc628",
          "topics": [
            "0x82f3cd1e351c1cf149e065782737f7cd0d51ef52fdb03157f0490fc9d069ab47",
            "0x0000000000000000000000000000000000000000000000000000000000000001",
            "0x0000000000000000000000004b992f2fbf714c0fcbb23bac5130ace48cad00cd"
          ],
          "data": "0x00000000000000000000000000000000000000000000043c33c193756480000000000000000000000000000000000000000000000000043c33c1937564800000",
          "blockHash": "0x3a89736513b681f9934404f7f86a67370300421f3f2402bb82e00991d8a8a62a",
          "blockNumber": "0x2c2ffe3",
          "blockTimestamp": "0x69b0ad2f",
          "transactionHash": "0x3467555f1b7208cf9e325132670b968f3b0aae58852a0a3157e24aacfa95bd24",
          "transactionIndex": "0xe",
          "logIndex": "0x1b",
          "removed": false
        },
        {
          "address": "0x2477b8687745f494931748f5355770ba72ed3830",
          "topics": [
            "0xddf252ad1be2c89b69c2b068fc378daa952ba7f163c4a11628f55a4df523b3ef",
            "0x000000000000000000000000dd008a1209bf0400c3e7c0b5a4d23e691ee43990",
            "0x0000000000000000000000004b992f2fbf714c0fcbb23bac5130ace48cad00cd"
          ],
          "data": "0x00000000000000000000000000000000000000000000141df5d77c6d9d600000",
          "blockHash": "0x3a89736513b681f9934404f7f86a67370300421f3f2402bb82e00991d8a8a62a",
          "blockNumber": "0x2c2ffe3",
          "blockTimestamp": "0x69b0ad2f",
          "transactionHash": "0x3467555f1b7208cf9e325132670b968f3b0aae58852a0a3157e24aacfa95bd24",
          "transactionIndex": "0xe",
          "logIndex": "0x1c",
          "removed": false
        },
        {
          "address": "0xf61cd89a9e9b2b23ce0bdac6e19c3db52c56ac07",
          "topics": [
            "0xddf252ad1be2c89b69c2b068fc378daa952ba7f163c4a11628f55a4df523b3ef",
            "0x000000000000000000000000dd008a1209bf0400c3e7c0b5a4d23e691ee43990",
            "0x0000000000000000000000004b992f2fbf714c0fcbb23bac5130ace48cad00cd"
          ],
          "data": "0x000000000000000000000000000000000000000000001c965d5aa35866600000",
          "blockHash": "0x3a89736513b681f9934404f7f86a67370300421f3f2402bb82e00991d8a8a62a",
          "blockNumber": "0x2c2ffe3",
          "blockTimestamp": "0x69b0ad2f",
          "transactionHash": "0x3467555f1b7208cf9e325132670b968f3b0aae58852a0a3157e24aacfa95bd24",
          "transactionIndex": "0xe",
          "logIndex": "0x1d",
          "removed": false
        },
        {
          "address": "0xdd008a1209bf0400c3e7c0b5a4d23e691ee43990",
          "topics": [
            "0xd55b73c5d25b64a50c7e028ddac7cb0e47c922911cc59be371745474e6733899",
            "0x0000000000000000000000000000000000000000000000000000000000000001"
          ],
          "data": "0x0000000000000000000000000000000000000000000000000000000000000000000000000000000000000000000000000000000000000000000000000000000000000000000000000000000000000000000000000000000000000000000186a00000000000000000000000000000000000000000000000000000000000000000",
          "blockHash": "0x3a89736513b681f9934404f7f86a67370300421f3f2402bb82e00991d8a8a62a",
          "blockNumber": "0x2c2ffe3",
          "blockTimestamp": "0x69b0ad2f",
          "transactionHash": "0x3467555f1b7208cf9e325132670b968f3b0aae58852a0a3157e24aacfa95bd24",
          "transactionIndex": "0xe",
          "logIndex": "0x1e",
          "removed": false
        },
        {
          "address": "0x3642fa7e78acfabf2851619acdb92ac560efc746",
          "topics": [
            "0xc1076f3b2c622d9955b11c55379a2bad508b751d00c996a550d7aaa86aecfd0d",
            "0x0000000000000000000000000000000000000000000000000000000000000001"
          ],
          "data": "0x00000000000000000000000000000000000000000000043c33c193756480000000000000000000000000000000000000000000000000141df5d77c6d9d600000000000000000000000000000000000000000000000001c965d5aa3586660000000000000000000000000000000000000000000000000000000000000000036b0ffffffffffffffffffffffffffffffffffffffffffffffffffffffffffffffff",
          "blockHash": "0x3a89736513b681f9934404f7f86a67370300421f3f2402bb82e00991d8a8a62a",
          "blockNumber": "0x2c2ffe3",
          "blockTimestamp": "0x69b0ad2f",
          "transactionHash": "0x3467555f1b7208cf9e325132670b968f3b0aae58852a0a3157e24aacfa95bd24",
          "transactionIndex": "0xe",
          "logIndex": "0x1f",
          "removed": false
        }
      ],
      "logsBloom": "0x00020000000000002000200000000000000000000000000000000000000000000000010000000080000000000000000000000002000000000000000000040800120000000000000000000008100020000000000000040000000100000000000000000000000000000000000000020000000080000000000000000010000080000000000000001100000800100000000000020000002000000008000200000000000004001100000000000000000000040000000000000000000000000002040000020002000000000000000000000000000000000000040000000000040040000000000000100000000000000000000000000000000000000000000000000000",
      "type": "0x2",
      "transactionHash": "0x3467555f1b7208cf9e325132670b968f3b0aae58852a0a3157e24aacfa95bd24",
      "transactionIndex": "0xe",
      "blockHash": "0x3a89736513b681f9934404f7f86a67370300421f3f2402bb82e00991d8a8a62a",
      "blockNumber": "0x2c2ffe3",
      "gasUsed": "0x1c5a7",
      "effectiveGasPrice": "0x7a121",
      "blobGasUsed": "0x9c40",
      "from": "0x4b992f2fbf714c0fcbb23bac5130ace48cad00cd",
      "to": "0x3642fa7e78acfabf2851619acdb92ac560efc746",
      "contractAddress": null,
      "daFootprintGasScalar": "0x190",
      "l1BaseFeeScalar": "0x7d0",
      "l1BlobBaseFee": "0x1",
      "l1BlobBaseFeeScalar": "0xdbba0",
      "l1Fee": "0x76",
      "l1GasPrice": "0x9",
      "l1GasUsed": "0x640"
    },
    {
      "status": "0x1",
      "cumulativeGasUsed": "0x1e9ca0",
      "logs": [
        {
          "address": "0x2477b8687745f494931748f5355770ba72ed3830",
          "topics": [
            "0xddf252ad1be2c89b69c2b068fc378daa952ba7f163c4a11628f55a4df523b3ef",
            "0x0000000000000000000000004b992f2fbf714c0fcbb23bac5130ace48cad00cd",
            "0x000000000000000000000000dd008a1209bf0400c3e7c0b5a4d23e691ee43990"
          ],
          "data": "0x00000000000000000000000000000000000000000000152d02c7e14af6800000",
          "blockHash": "0x3a89736513b681f9934404f7f86a67370300421f3f2402bb82e00991d8a8a62a",
          "blockNumber": "0x2c2ffe3",
          "blockTimestamp": "0x69b0ad2f",
          "transactionHash": "0x722e7ed86bb34c748b17a6226ec62dbcfd4f8ba25b324d8a4f0512479971bb6f",
          "transactionIndex": "0x10",
          "logIndex": "0x21",
          "removed": false
        },
        {
          "address": "0xf61cd89a9e9b2b23ce0bdac6e19c3db52c56ac07",
          "topics": [
            "0xddf252ad1be2c89b69c2b068fc378daa952ba7f163c4a11628f55a4df523b3ef",
            "0x0000000000000000000000004b992f2fbf714c0fcbb23bac5130ace48cad00cd",
            "0x000000000000000000000000dd008a1209bf0400c3e7c0b5a4d23e691ee43990"
          ],
          "data": "0x00000000000000000000000000000000000000000000152d02c7e14af6800000",
          "blockHash": "0x3a89736513b681f9934404f7f86a67370300421f3f2402bb82e00991d8a8a62a",
          "blockNumber": "0x2c2ffe3",
          "blockTimestamp": "0x69b0ad2f",
          "transactionHash": "0x722e7ed86bb34c748b17a6226ec62dbcfd4f8ba25b324d8a4f0512479971bb6f",
          "transactionIndex": "0x10",
          "logIndex": "0x22",
          "removed": false
        },
        {
          "address": "0xdd008a1209bf0400c3e7c0b5a4d23e691ee43990",
          "topics": [
            "0xda5bbcbf3f936186623513e9d6174902ea63913ab38d428da5a3681beb66bf40",
            "0x0000000000000000000000000000000000000000000000000000000000000002",
            "0x0000000000000000000000004b992f2fbf714c0fcbb23bac5130ace48cad00cd",
            "0xb566e82c46dc43d453be3bafdfb898f51610117a92439b0a4bf1433eac0e15dc"
          ],
          "data": "0x00000000000000000000000000000000000000000000152d02c7e14af680000000000000000000000000000000000000000000000000152d02c7e14af680000000000000000000000000000000000000000000000000000000000000000186a0",
          "blockHash": "0x3a89736513b681f9934404f7f86a67370300421f3f2402bb82e00991d8a8a62a",
          "blockNumber": "0x2c2ffe3",
          "blockTimestamp": "0x69b0ad2f",
          "transactionHash": "0x722e7ed86bb34c748b17a6226ec62dbcfd4f8ba25b324d8a4f0512479971bb6f",
          "transactionIndex": "0x10",
          "logIndex": "0x23",
          "removed": false
        },
        {
          "address": "0xf61cd89a9e9b2b23ce0bdac6e19c3db52c56ac07",
          "topics": [
            "0xddf252ad1be2c89b69c2b068fc378daa952ba7f163c4a11628f55a4df523b3ef",
            "0x000000000000000000000000b4b2d15ebec35e21e2fbce3845bff476082cc628",
            "0x000000000000000000000000dd008a1209bf0400c3e7c0b5a4d23e691ee43990"
          ],
          "data": "0x000000000000000000000000000000000000000000000cb49b44ba602d800000",
          "blockHash": "0x3a89736513b681f9934404f7f86a67370300421f3f2402bb82e00991d8a8a62a",
          "blockNumber": "0x2c2ffe3",
          "blockTimestamp": "0x69b0ad2f",
          "transactionHash": "0x722e7ed86bb34c748b17a6226ec62dbcfd4f8ba25b324d8a4f0512479971bb6f",
          "transactionIndex": "0x10",
          "logIndex": "0x24",
          "removed": false
        },
        {
          "address": "0xb4b2d15ebec35e21e2fbce3845bff476082cc628",
          "topics": [
            "0xf757d05eea809fa4e0cb84c028b2e1f0e6387cc1fddf8c4ef6751e3a0ed69a71",
            "0x0000000000000000000000000000000000000000000000000000000000000002",
            "0x000000000000000000000000dd008a1209bf0400c3e7c0b5a4d23e691ee43990"
          ],
          "data": "0x000000000000000000000000000000000000000000000cb49b44ba602d800000000000000000000000000000000000000000000000000cb49b44ba602d800000",
          "blockHash": "0x3a89736513b681f9934404f7f86a67370300421f3f2402bb82e00991d8a8a62a",
          "blockNumber": "0x2c2ffe3",
          "blockTimestamp": "0x69b0ad2f",
          "transactionHash": "0x722e7ed86bb34c748b17a6226ec62dbcfd4f8ba25b324d8a4f0512479971bb6f",
          "transactionIndex": "0x10",
          "logIndex": "0x25",
          "removed": false
        },
        {
          "address": "0xdd008a1209bf0400c3e7c0b5a4d23e691ee43990",
          "topics": [
            "0xd55b73c5d25b64a50c7e028ddac7cb0e47c922911cc59be371745474e6733899",
            "0x0000000000000000000000000000000000000000000000000000000000000002"
          ],
          "data": "0x00000000000000000000000000000000000000000000152d02c7e14af68000000000000000000000000000000000000000000000000021e19e0c9bab2400000000000000000000000000000000000000000000000000000000000000000186a00000000000000000000000000000000000000000000000000000000000004e20",
          "blockHash": "0x3a89736513b681f9934404f7f86a67370300421f3f2402bb82e00991d8a8a62a",
          "blockNumber": "0x2c2ffe3",
          "blockTimestamp": "0x69b0ad2f",
          "transactionHash": "0x722e7ed86bb34c748b17a6226ec62dbcfd4f8ba25b324d8a4f0512479971bb6f",
          "transactionIndex": "0x10",
          "logIndex": "0x26",
          "removed": false
        },
        {
          "address": "0x3642fa7e78acfabf2851619acdb92ac560efc746",
          "topics": [
            "0xce95f1d5bc4fd4061928be3b668973283b0d4e2c4622beb1cfc7e83a12dfd327",
            "0x0000000000000000000000000000000000000000000000000000000000000002",
            "0x0000000000000000000000004b992f2fbf714c0fcbb23bac5130ace48cad00cd",
            "0xb566e82c46dc43d453be3bafdfb898f51610117a92439b0a4bf1433eac0e15dc"
          ],
          "data": "0x00000000000000000000000000000000000000000000152d02c7e14af680000000000000000000000000000000000000000000000000152d02c7e14af6800000000000000000000000000000000000000000000000000cb49b44ba602d8000000000000000000000000000000000000000000000000000000000000000004e200000000000000000000000000000000000000000000000001cb59e018c57d555",
          "blockHash": "0x3a89736513b681f9934404f7f86a67370300421f3f2402bb82e00991d8a8a62a",
          "blockNumber": "0x2c2ffe3",
          "blockTimestamp": "0x69b0ad2f",
          "transactionHash": "0x722e7ed86bb34c748b17a6226ec62dbcfd4f8ba25b324d8a4f0512479971bb6f",
          "transactionIndex": "0x10",
          "logIndex": "0x27",
          "removed": false
        }
      ],
      "logsBloom": "0x04000000020000002002000000000000000000000000000000004000000000000000010000000000000000000010000000000002000000000000000000080800120000000000000000000008100820000000000000008000000100000000000000000000000000000000000000020000000080000008000000000010000080000000000000001100000800100000000000020000002000000108000200000000000004001100000000000100000000040000000000000000000010000002000000020002000000000000000008000000000000000000000000000000040000000000000000000000000000000000000000000000008000000800000000000000",
      "type": "0x2",
      "transactionHash": "0x722e7ed86bb34c748b17a6226ec62dbcfd4f8ba25b324d8a4f0512479971bb6f",
      "transactionIndex": "0x10",
      "blockHash": "0x3a89736513b681f9934404f7f86a67370300421f3f2402bb82e00991d8a8a62a",
      "blockNumber": "0x2c2ffe3",
      "gasUsed": "0x67858",
      "effectiveGasPrice": "0x7a121",
      "blobGasUsed": "0x133d0",
      "from": "0x4b992f2fbf714c0fcbb23bac5130ace48cad00cd",
      "to": "0x3642fa7e78acfabf2851619acdb92ac560efc746",
      "contractAddress": null,
      "daFootprintGasScalar": "0x190",
      "l1BaseFeeScalar": "0x7d0",
      "l1BlobBaseFee": "0x1",
      "l1BlobBaseFeeScalar": "0xdbba0",
      "l1Fee": "0xea",
      "l1GasPrice": "0x9",
      "l1GasUsed": "0xc57"
    },
    {
      "status": "0x1",
      "cumulativeGasUsed": "0x1f20fa",
      "logs": [
        {
          "address": "0xf61cd89a9e9b2b23ce0bdac6e19c3db52c56ac07",
          "topics": [
            "0xddf252ad1be2c89b69c2b068fc378daa952ba7f163c4a11628f55a4df523b3ef",
            "0x0000000000000000000000000000000000000000000000000000000000000000",
            "0x0000000000000000000000004b992f2fbf714c0fcbb23bac5130ace48cad00cd"
          ],
          "data": "0x0000000000000000000000000000000000000000000069e10de76676d0800000",
          "blockHash": "0x3a89736513b681f9934404f7f86a67370300421f3f2402bb82e00991d8a8a62a",
          "blockNumber": "0x2c2ffe3",
          "blockTimestamp": "0x69b0ad2f",
          "transactionHash": "0x5a74c2eded81793d817ab09d360072bf5cf9a8e2aa51e20380502ce3830c8095",
          "transactionIndex": "0x11",
          "logIndex": "0x28",
          "removed": false
        }
      ],
      "logsBloom": "0x00000000000000000000000000000000000000000000000000000000000000000000010000000000000000000000000000000002000000000000000000000000000000000000000000000008000000000000000000000000000100000000000000000000020000000000000000020800000000000000000000000010000000000000000000000000000800000000000000000000000000000000000000000000000000000000000000000000000000040000000000000000000000000000000000000002000000000000000000000000000000000000000000000000000020000000000000000000000000000000000000000000000000000000000000000000",
      "type": "0x2",
      "transactionHash": "0x5a74c2eded81793d817ab09d360072bf5cf9a8e2aa51e20380502ce3830c8095",
      "transactionIndex": "0x11",
      "blockHash": "0x3a89736513b681f9934404f7f86a67370300421f3f2402bb82e00991d8a8a62a",
      "blockNumber": "0x2c2ffe3",
      "gasUsed": "0x845a",
      "effectiveGasPrice": "0x7a121",
      "blobGasUsed": "0x9c40",
      "from": "0x4b992f2fbf714c0fcbb23bac5130ace48cad00cd",
      "to": "0xf61cd89a9e9b2b23ce0bdac6e19c3db52c56ac07",
      "contractAddress": null,
      "daFootprintGasScalar": "0x190",
      "l1BaseFeeScalar": "0x7d0",
      "l1BlobBaseFee": "0x1",
      "l1BlobBaseFeeScalar": "0xdbba0",
      "l1Fee": "0x76",
      "l1GasPrice": "0x9",
      "l1GasUsed": "0x640"
    },
    {
      "status": "0x1",
      "cumulativeGasUsed": "0x1f87e0",
      "logs": [
        {
          "address": "0xf61cd89a9e9b2b23ce0bdac6e19c3db52c56ac07",
          "topics": [
            "0x8c5be1e5ebec7d5bd14f71427d1e84f3dd0314c0f7b2291e5b200ac8c7c3b925",
            "0x0000000000000000000000004b992f2fbf714c0fcbb23bac5130ace48cad00cd",
            "0x000000000000000000000000b4b2d15ebec35e21e2fbce3845bff476082cc628"
          ],
          "data": "0xffffffffffffffffffffffffffffffffffffffffffffffffffffffffffffffff",
          "blockHash": "0x3a89736513b681f9934404f7f86a67370300421f3f2402bb82e00991d8a8a62a",
          "blockNumber": "0x2c2ffe3",
          "blockTimestamp": "0x69b0ad2f",
          "transactionHash": "0x4ca2ef1db1ee18198682468273fc1a2ca27108818951853d26edc591b48d3041",
          "transactionIndex": "0x12",
          "logIndex": "0x29",
          "removed": false
        }
      ],
      "logsBloom": "0x00000000000000000000000000000000000000000000000000000000000000000000010000000000000000000000000000000002000000000000000000200000000000000000000000000000000000000000000000000000000100000000000000000000000000000000000000020000000000000000000000000000000000000000000000000000000800000000000000000000000000000008000000000000020004000100000000000000000000040000000000000000000000000000000000000000000000000000000000000000000000000000000000000000000000000010000000000000000000000000000000000000000000000000000000000000",
      "type": "0x2",
      "transactionHash": "0x4ca2ef1db1ee18198682468273fc1a2ca27108818951853d26edc591b48d3041",
      "transactionIndex": "0x12",
      "blockHash": "0x3a89736513b681f9934404f7f86a67370300421f3f2402bb82e00991d8a8a62a",
      "blockNumber": "0x2c2ffe3",
      "gasUsed": "0x66e6",
      "effectiveGasPrice": "0x7a121",
      "blobGasUsed": "0x9c40",
      "from": "0x4b992f2fbf714c0fcbb23bac5130ace48cad00cd",
      "to": "0xf61cd89a9e9b2b23ce0bdac6e19c3db52c56ac07",
      "contractAddress": null,
      "daFootprintGasScalar": "0x190",
      "l1BaseFeeScalar": "0x7d0",
      "l1BlobBaseFee": "0x1",
      "l1BlobBaseFeeScalar": "0xdbba0",
      "l1Fee": "0x76",
      "l1GasPrice": "0x9",
      "l1GasUsed": "0x640"
    },
    {
      "status": "0x1",
      "cumulativeGasUsed": "0x31886",
      "logs": [
        {
          "address": "0x2d2a64dcd864ba1c83dd634a8c19c4f695db10c0",
          "topics": [
            "0xdafc01bff220e4f232adb8a23b09d96e1208db536218906218df778e2d8fa5bb",
            "0xb566e82c46dc43d453be3bafdfb898f51610117a92439b0a4bf1433eac0e15dc"
          ],
          "data": "0x0000000000000000000000000000000000000000000000000000000000000000000000000000000000000000000000000000000000000000000000000000000000000000000000000000000000000000000000000000000000000000000000000000000000000000000000000000000000000000000000000000000069b0ad30",
          "blockHash": "0x5425583347bcc545d827967ed2eba01c9ebd6a8dc5bfdfb2e38a264b36acee75",
          "blockNumber": "0x2c2ffe4",
          "blockTimestamp": "0x69b0ad30",
          "transactionHash": "0x043a58cdda1d26262a5fd573c9945b8fc3f53d508d0bde7cc8bb0e240b1c33d5",
          "transactionIndex": "0x3",
          "logIndex": "0x1",
          "removed": false
        }
      ],
      "logsBloom": "0x00000000020000000000800000000000200000000000000000004000000000000000000000000001000000000000000000000000000000000000000000000000000000000000000000000000000000000000000000000000000000000000000000000000000000000000080000000000000000000008000000000000000000000000000000000000000000000000000000000000000000000000000000000100000000000000000000000000000000000000000000000000000000000000400000000000000000000000000000000000000000000000000000000000000000000000000000000000000000000000000000000000000000000000000000000000",
      "type": "0x2",
      "transactionHash": "0x043a58cdda1d26262a5fd573c9945b8fc3f53d508d0bde7cc8bb0e240b1c33d5",
      "transactionIndex": "0x3",
      "blockHash": "0x5425583347bcc545d827967ed2eba01c9ebd6a8dc5bfdfb2e38a264b36acee75",
      "blockNumber": "0x2c2ffe4",
      "gasUsed": "0x9e9a",
      "effectiveGasPrice": "0x7a121",
      "blobGasUsed": "0xb6d0",
      "from": "0x4b992f2fbf714c0fcbb23bac5130ace48cad00cd",
      "to": "0x2d2a64dcd864ba1c83dd634a8c19c4f695db10c0",
      "contractAddress": null,
      "daFootprintGasScalar": "0x190",
      "l1BaseFeeScalar": "0x7d0",
      "l1BlobBaseFee": "0x1",
      "l1BlobBaseFeeScalar": "0xdbba0",
      "l1Fee": "0x8b",
      "l1GasPrice": "0x9",
      "l1GasUsed": "0x752"
    },
    {
      "status": "0x1",
      "cumulativeGasUsed": "0x3c390",
      "logs": [
        {
          "address": "0x70df6c59673adaee5ac1354f1051bc6a232a3c53",
          "topics": [
            "0x98e2a16c41026ba062c710d54913b272cd3eb309b77cbff68c42dabb8b98ba9b",
            "0xb566e82c46dc43d453be3bafdfb898f51610117a92439b0a4bf1433eac0e15dc"
          ],
          "data": "0x0000000000000000000000000000000000000000000000000000000000000001000000000000000000000000000000000000000000000000000000000000000000000000000000000000000000000000000000000000000000000000000007d000000000000000000000000000000000000000000000000000000000000009c400000000000000000000000000000000000000000000000000000000000005dc0000000000000000000000000000000000000000000000000000000000000fa00000000000000000000000000000000000000000000000000000000000000dac00000000000000000000000000000000000000000000000000000000000000000000000000000000000000000000000000000000000000000000000000000000000000000000000000000000000000000000000000000000000000000000000000000000000000000000000000000000000000000000000000000000000000000000000000000000000000000000000000000000000000000000000000000000000000000000000000000000000000000000000000000000000000000000000100000000000000000000000000000000000000000000000000000000000000010000000000000000000000000000000000000000000000000000000000000001",
          "blockHash": "0x5425583347bcc545d827967ed2eba01c9ebd6a8dc5bfdfb2e38a264b36acee75",
          "blockNumber": "0x2c2ffe4",
          "blockTimestamp": "0x69b0ad30",
          "transactionHash": "0xbebb10404da3382b3288b65020fdfdecff385f4d68d9baeffc0399473655720f",
          "transactionIndex": "0x4",
          "logIndex": "0x2",
          "removed": false
        }
      ],
      "logsBloom": "0x00000000020000000000000000000000000000000000000000004000000000000000800000000000000002000000000000000000000000000000000000000000000000000000000000000000000000000000000000000000000000000000000000000000000000000000000000000000000000400008000000000000000000000000200000000000000000000000000000000000000000000000000000000000000000000000000000000000000000000000000000000000000000000000000000000000000000000000000000000000000000000000000000000000000000000040000000000000000000000000000200000000000000000000000000000000",
      "type": "0x2",
      "transactionHash": "0xbebb10404da3382b3288b65020fdfdecff385f4d68d9baeffc0399473655720f",
      "transactionIndex": "0x4",
      "blockHash": "0x5425583347bcc545d827967ed2eba01c9ebd6a8dc5bfdfb2e38a264b36acee75",
      "blockNumber": "0x2c2ffe4",
      "gasUsed": "0xab0a",
      "effectiveGasPrice": "0x7a121",
      "blobGasUsed": "0xc670",
      "from": "0x4b992f2fbf714c0fcbb23bac5130ace48cad00cd",
      "to": "0x70df6c59673adaee5ac1354f1051bc6a232a3c53",
      "contractAddress": null,
      "daFootprintGasScalar": "0x190",
      "l1BaseFeeScalar": "0x7d0",
      "l1BlobBaseFee": "0x1",
      "l1BlobBaseFeeScalar": "0xdbba0",
      "l1Fee": "0x97",
      "l1GasPrice": "0x9",
      "l1GasUsed": "0x7f3"
    },
    {
      "status": "0x1",
      "cumulativeGasUsed": "0x7323e",
      "logs": [
        {
          "address": "0xb4b2d15ebec35e21e2fbce3845bff476082cc628",
          "topics": [
            "0xe3972ae250606e82c6683843383cb8a51755588d2f443af42e8cb5b1e085392d"
          ],
          "data": "0x0000000000000000000000000000000000000000033b2e3c9fd0803ce80000000000000000000000000000000000000000000000033b2e3cb6b29a6758e0e5a2000000000000000000000000000000000000000000000000000059fafec48a21000000000000000000000000000000000000000000000000000008ff7fe07436",
          "blockHash": "0x5425583347bcc545d827967ed2eba01c9ebd6a8dc5bfdfb2e38a264b36acee75",
          "blockNumber": "0x2c2ffe4",
          "blockTimestamp": "0x69b0ad30",
          "transactionHash": "0x10fc8b7ee5b60ece2305c39d1ecff9e2c64c01b0925250bd8e572772e9046397",
          "transactionIndex": "0x5",
          "logIndex": "0x3",
          "removed": false
        },
        {
          "address": "0xf61cd89a9e9b2b23ce0bdac6e19c3db52c56ac07",
          "topics": [
            "0xddf252ad1be2c89b69c2b068fc378daa952ba7f163c4a11628f55a4df523b3ef",
            "0x0000000000000000000000004b992f2fbf714c0fcbb23bac5130ace48cad00cd",
            "0x000000000000000000000000b4b2d15ebec35e21e2fbce3845bff476082cc628"
          ],
          "data": "0x00000000000000000000000000000000000000000000065a4da25d3016c00000",
          "blockHash": "0x5425583347bcc545d827967ed2eba01c9ebd6a8dc5bfdfb2e38a264b36acee75",
          "blockNumber": "0x2c2ffe4",
          "blockTimestamp": "0x69b0ad30",
          "transactionHash": "0x10fc8b7ee5b60ece2305c39d1ecff9e2c64c01b0925250bd8e572772e9046397",
          "transactionIndex": "0x5",
          "logIndex": "0x4",
          "removed": false
        },
        {
          "address": "0xb4b2d15ebec35e21e2fbce3845bff476082cc628",
          "topics": [
            "0x82f3cd1e351c1cf149e065782737f7cd0d51ef52fdb03157f0490fc9d069ab47",
            "0x0000000000000000000000000000000000000000000000000000000000000002",
            "0x0000000000000000000000004b992f2fbf714c0fcbb23bac5130ace48cad00cd"
          ],
          "data": "0x00000000000000000000000000000000000000000000065a4da25d3016c0000000000000000000000000000000000000000000000000065a4da23032975ef98e",
          "blockHash": "0x5425583347bcc545d827967ed2eba01c9ebd6a8dc5bfdfb2e38a264b36acee75",
          "blockNumber": "0x2c2ffe4",
          "blockTimestamp": "0x69b0ad30",
          "transactionHash": "0x10fc8b7ee5b60ece2305c39d1ecff9e2c64c01b0925250bd8e572772e9046397",
          "transactionIndex": "0x5",
          "logIndex": "0x5",
          "removed": false
        },
        {
          "address": "0x2477b8687745f494931748f5355770ba72ed3830",
          "topics": [
            "0xddf252ad1be2c89b69c2b068fc378daa952ba7f163c4a11628f55a4df523b3ef",
            "0x000000000000000000000000dd008a1209bf0400c3e7c0b5a4d23e691ee43990",
            "0x0000000000000000000000004b992f2fbf714c0fcbb23bac5130ace48cad00cd"
          ],
          "data": "0x000000000000000000000000000000000000000000000c47a4ea3bcfe6580000",
          "blockHash": "0x5425583347bcc545d827967ed2eba01c9ebd6a8dc5bfdfb2e38a264b36acee75",
          "blockNumber": "0x2c2ffe4",
          "blockTimestamp": "0x69b0ad30",
          "transactionHash": "0x10fc8b7ee5b60ece2305c39d1ecff9e2c64c01b0925250bd8e572772e9046397",
          "transactionIndex": "0x5",
          "logIndex": "0x6",
          "removed": false
        },
        {
          "address": "0xf61cd89a9e9b2b23ce0bdac6e19c3db52c56ac07",
          "topics": [
            "0xddf252ad1be2c89b69c2b068fc378daa952ba7f163c4a11628f55a4df523b3ef",
            "0x000000000000000000000000dd008a1209bf0400c3e7c0b5a4d23e691ee43990",
            "0x0000000000000000000000004b992f2fbf714c0fcbb23bac5130ace48cad00cd"
          ],
          "data": "0x0000000000000000000000000000000000000000000013a5d4a9f94ca3c00000",
          "blockHash": "0x5425583347bcc545d827967ed2eba01c9ebd6a8dc5bfdfb2e38a264b36acee75",
          "blockNumber": "0x2c2ffe4",
          "blockTimestamp": "0x69b0ad30",
          "transactionHash": "0x10fc8b7ee5b60ece2305c39d1ecff9e2c64c01b0925250bd8e572772e9046397",
          "transactionIndex": "0x5",
          "logIndex": "0x7",
          "removed": false
        },
        {
          "address": "0xdd008a1209bf0400c3e7c0b5a4d23e691ee43990",
          "topics": [
            "0xd9909220d3f3c7fc0f71afb6c8c3eb37b754790fe76a885e628c6dc236ea7fc2",
            "0x0000000000000000000000000000000000000000000000000000000000000002",
            "0x0000000000000000000000004b992f2fbf714c0fcbb23bac5130ace48cad00cd"
          ],
          "data": "0x000000000000000000000000000000000000000000000c47a4ea3bcfe65800000000000000000000000000000000000000000000000013a5d4a9f94ca3c000000000000000000000000000000000000000000000000000000000000000002d4e",
          "blockHash": "0x5425583347bcc545d827967ed2eba01c9ebd6a8dc5bfdfb2e38a264b36acee75",
          "blockNumber": "0x2c2ffe4",
          "blockTimestamp": "0x69b0ad30",
          "transactionHash": "0x10fc8b7ee5b60ece2305c39d1ecff9e2c64c01b0925250bd8e572772e9046397",
          "transactionIndex": "0x5",
          "logIndex": "0x8",
          "removed": false
        },
        {
          "address": "0x9148f61ad2d5cef6a7c43c6c951a816475cd1bfe",
          "topics": [
            "0x842a9eb2150814d981d53767dee1d94d199ddcc22be06a3cb6565b92b68eaf53",
            "0x0000000000000000000000000000000000000000000000000000000000000002",
            "0x0000000000000000000000004b992f2fbf714c0fcbb23bac5130ace48cad00cd"
          ],
          "data": "0x00000000000000000000000000000000000000000000065a4da25d3016c00000000000000000000000000000000000000000000000000c47a4ea3bcfe65800000000000000000000000000000000000000000000000013a5d4a9f94ca3c000000000000000000000000000000000000000000000000000000000000000002d4e0000000000000000000000000000000000000000000000000000000000000000",
          "blockHash": "0x5425583347bcc545d827967ed2eba01c9ebd6a8dc5bfdfb2e38a264b36acee75",
          "blockNumber": "0x2c2ffe4",
          "blockTimestamp": "0x69b0ad30",
          "transactionHash": "0x10fc8b7ee5b60ece2305c39d1ecff9e2c64c01b0925250bd8e572772e9046397",
          "transactionIndex": "0x5",
          "logIndex": "0x9",
          "removed": false
        }
      ],
      "logsBloom": "0x04000000000000002000200000000000000000000000000000000000000000000000010000000080000000000000000000000002000000000000000000000000120000000000000000000008000020000000010000000004000100000000100000000000000000000002000000020000000082200000000000000010000000000000000000001100000800000000000000000000002000000008000200000000000004001100000000000100000800040000000000000008000000000002040000020002000020000000000000000000000000000000000000000000000000100000000000000000000000000000000200000000008000000000000000000001",
      "type": "0x2",
      "transactionHash": "0x10fc8b7ee5b60ece2305c39d1ecff9e2c64c01b0925250bd8e572772e9046397",
      "transactionIndex": "0x5",
      "blockHash": "0x5425583347bcc545d827967ed2eba01c9ebd6a8dc5bfdfb2e38a264b36acee75",
      "blockNumber": "0x2c2ffe4",
      "gasUsed": "0x36eae",
      "effectiveGasPrice": "0x7a121",
      "blobGasUsed": "0x9c40",
      "from": "0x4b992f2fbf714c0fcbb23bac5130ace48cad00cd",
      "to": "0x9148f61ad2d5cef6a7c43c6c951a816475cd1bfe",
      "contractAddress": null,
      "daFootprintGasScalar": "0x190",
      "l1BaseFeeScalar": "0x7d0",
      "l1BlobBaseFee": "0x1",
      "l1BlobBaseFeeScalar": "0xdbba0",
      "l1Fee": "0x76",
      "l1GasPrice": "0x9",
      "l1GasUsed": "0x640"
    }
  ],
  "libraries": [],
  "pending": [],
  "returns": {},
  "timestamp": 1773186353297,
  "chain": 1301,
  "commit": "c849825"
}