{
  "transactions": [
    {
      "hash": "0x2dec7942aee027dda7da84d63e446b7af493a28ab68b82c17e3c6beeb35c52bc",
      "transactionType": "CALL",
      "contractName": null,
      "contractAddress": "0x70df6c59673adaee5ac1354f1051bc6a232a3c53",
      "function": "setPoolRiskConfig(bytes32,(bool,bool,uint16,uint16,uint16,uint16,uint16,uint16,uint16,uint16,uint16,uint32,uint24,int24,int24))",
      "arguments": [
        "0xb566e82c46dc43d453be3bafdfb898f51610117a92439b0a4bf1433eac0e15dc",
        "(true, false, 5500, 6500, 3500, 8000, 6800, 1200, 600, 800, 700, 100000, 800, 1200, 1000)"
      ],
      "transaction": {
        "from": "0x4b992f2fbf714c0fcbb23bac5130ace48cad00cd",
        "to": "0x70df6c59673adaee5ac1354f1051bc6a232a3c53",
        "gas": "0xdb1c",
        "value": "0x0",
        "input": "0x7ea66eaab566e82c46dc43d453be3bafdfb898f51610117a92439b0a4bf1433eac0e15dc00000000000000000000000000000000000000000000000000000000000000010000000000000000000000000000000000000000000000000000000000000000000000000000000000000000000000000000000000000000000000000000157c00000000000000000000000000000000000000000000000000000000000019640000000000000000000000000000000000000000000000000000000000000dac0000000000000000000000000000000000000000000000000000000000001f400000000000000000000000000000000000000000000000000000000000001a9000000000000000000000000000000000000000000000000000000000000004b00000000000000000000000000000000000000000000000000000000000000258000000000000000000000000000000000000000000000000000000000000032000000000000000000000000000000000000000000000000000000000000002bc00000000000000000000000000000000000000000000000000000000000186a0000000000000000000000000000000000000000000000000000000000000032000000000000000000000000000000000000000000000000000000000000004b000000000000000000000000000000000000000000000000000000000000003e8",
        "nonce": "0x25c",
        "chainId": "0x515"
      },
      "additionalContracts": [],
      "isFixedGasLimit": false
    },
    {
      "hash": "0xff00fa27bc89c72fe4f1990e47e05a8d94ef51cb98896bd3770ad101e0571c26",
      "transactionType": "CALL",
      "contractName": null,
      "contractAddress": "0x2477b8687745f494931748f5355770ba72ed3830",
      "function": "mint(address,uint256)",
      "arguments": [
        "0x4b992F2Fbf714C0fCBb23baC5130Ace48CaD00cd",
        "600000000000000000000000"
      ],
      "transaction": {
        "from": "0x4b992f2fbf714c0fcbb23bac5130ace48cad00cd",
        "to": "0x2477b8687745f494931748f5355770ba72ed3830",
        "gas": "0xb6bd",
        "value": "0x0",
        "input": "0x40c10f190000000000000000000000004b992f2fbf714c0fcbb23bac5130ace48cad00cd000000000000000000000000000000000000000000007f0e10af47c1c7000000",
        "nonce": "0x25d",
        "chainId": "0x515"
      },
      "additionalContracts": [],
      "isFixedGasLimit": false
    },
    {
      "hash": "0x3b116a742e7660f5d7ef23e39950deff6dd0d8a48301c99ff5502152214cb3b5",
      "transactionType": "CALL",
      "contractName": null,
      "contractAddress": "0xf61cd89a9e9b2b23ce0bdac6e19c3db52c56ac07",
      "function": "mint(address,uint256)",
      "arguments": [
        "0x4b992F2Fbf714C0fCBb23baC5130Ace48CaD00cd",
        "600000000000000000000000"
      ],
      "transaction": {
        "from": "0x4b992f2fbf714c0fcbb23bac5130ace48cad00cd",
        "to": "0xf61cd89a9e9b2b23ce0bdac6e19c3db52c56ac07",
        "gas": "0xb6bd",
        "value": "0x0",
        "input": "0x40c10f190000000000000000000000004b992f2fbf714c0fcbb23bac5130ace48cad00cd000000000000000000000000000000000000000000007f0e10af47c1c7000000",
        "nonce": "0x25e",
        "chainId": "0x515"
      },
      "additionalContracts": [],
      "isFixedGasLimit": false
    },
    {
      "hash": "0xeb4e9611b9e867a5e37347383342cc47892e0ff9baf6ae7d65dbb97b257c8d7e",
      "transactionType": "CALL",
      "contractName": null,
      "contractAddress": "0x2477b8687745f494931748f5355770ba72ed3830",
      "function": "approve(address,uint256)",
      "arguments": [
        "0x3642Fa7E78acFAbf2851619AcdB92Ac560eFc746",
        "115792089237316195423570985008687907853269984665640564039457584007913129639935"
      ],
      "transaction": {
        "from": "0x4b992f2fbf714c0fcbb23bac5130ace48cad00cd",
        "to": "0x2477b8687745f494931748f5355770ba72ed3830",
        "gas": "0x8e20",
        "value": "0x0",
        "input": "0x095ea7b30000000000000000000000003642fa7e78acfabf2851619acdb92ac560efc746ffffffffffffffffffffffffffffffffffffffffffffffffffffffffffffffff",
        "nonce": "0x25f",
        "chainId": "0x515"
      },
      "additionalContracts": [],
      "isFixedGasLimit": false
    },
    {
      "hash": "0xe0e369fb11d6f211a05b2c5c333ecf6cac40e0a59a93de54b998cdbfab98e0fa",
      "transactionType": "CALL",
      "contractName": null,
      "contractAddress": "0xf61cd89a9e9b2b23ce0bdac6e19c3db52c56ac07",
      "function": "approve(address,uint256)",
      "arguments": [
        "0x3642Fa7E78acFAbf2851619AcdB92Ac560eFc746",
        "115792089237316195423570985008687907853269984665640564039457584007913129639935"
      ],
      "transaction": {
        "from": "0x4b992f2fbf714c0fcbb23bac5130ace48cad00cd",
        "to": "0xf61cd89a9e9b2b23ce0bdac6e19c3db52c56ac07",
        "gas": "0x8e20",
        "value": "0x0",
        "input": "0x095ea7b30000000000000000000000003642fa7e78acfabf2851619acdb92ac560efc746ffffffffffffffffffffffffffffffffffffffffffffffffffffffffffffffff",
        "nonce": "0x260",
        "chainId": "0x515"
      },
      "additionalContracts": [],
      "isFixedGasLimit": false
    },
    {
      "hash": "0xe5263b11dea2b2c9244741558054021e33aeb645820d3360b883d3d021aecfc4",
      "transactionType": "CALL",
      "contractName": null,
      "contractAddress": "0xf61cd89a9e9b2b23ce0bdac6e19c3db52c56ac07",
      "function": "approve(address,uint256)",
      "arguments": [
        "0xB4b2d15eBEC35e21E2FbCe3845Bff476082CC628",
        "115792089237316195423570985008687907853269984665640564039457584007913129639935"
      ],
      "transaction": {
        "from": "0x4b992f2fbf714c0fcbb23bac5130ace48cad00cd",
        "to": "0xf61cd89a9e9b2b23ce0bdac6e19c3db52c56ac07",
        "gas": "0x8e20",
        "value": "0x0",
        "input": "0x095ea7b3000000000000000000000000b4b2d15ebec35e21e2fbce3845bff476082cc628ffffffffffffffffffffffffffffffffffffffffffffffffffffffffffffffff",
        "nonce": "0x261",
        "chainId": "0x515"
      },
      "additionalContracts": [],
      "isFixedGasLimit": false
    },
    {
      "hash": "0x0b241cbf3a3e6d68b1c74b02d3d46ea7a432e04c71426412dfb9a605aff65944",
      "transactionType": "CALL",
      "contractName": null,
      "contractAddress": "0x3642fa7e78acfabf2851619acdb92ac560efc746",
      "function": "openBorrowAndReinvest(((address,address,uint24,int24,address),int24,int24,uint128,uint256,uint256,uint256,uint128,uint256))",
      "arguments": [
        "((0x2477B8687745f494931748F5355770BA72ED3830, 0xf61cD89a9E9b2B23Ce0bDac6E19C3DB52c56AC07, 3000, 60, 0x2d2A64DcD864Ba1C83dd634a8C19C4f695db10C0), -900, 900, 100000, 100000000000000000000000, 100000000000000000000000, 40000000000000000000000, 15000, 1000000000000000000)"
      ],
      "transaction": {
        "from": "0x4b992f2fbf714c0fcbb23bac5130ace48cad00cd",
        "to": "0x3642fa7e78acfabf2851619acdb92ac560efc746",
        "gas": "0x8e822",
        "value": "0x0",
        "input": "0x00cb58390000000000000000000000002477b8687745f494931748f5355770ba72ed3830000000000000000000000000f61cd89a9e9b2b23ce0bdac6e19c3db52c56ac070000000000000000000000000000000000000000000000000000000000000bb8000000000000000000000000000000000000000000000000000000000000003c0000000000000000000000002d2a64dcd864ba1c83dd634a8c19c4f695db10c0fffffffffffffffffffffffffffffffffffffffffffffffffffffffffffffc7c000000000000000000000000000000000000000000000000000000000000038400000000000000000000000000000000000000000000000000000000000186a000000000000000000000000000000000000000000000152d02c7e14af680000000000000000000000000000000000000000000000000152d02c7e14af6800000000000000000000000000000000000000000000000000878678326eac90000000000000000000000000000000000000000000000000000000000000000003a980000000000000000000000000000000000000000000000000de0b6b3a7640000",
        "nonce": "0x262",
        "chainId": "0x515"
      },
      "additionalContracts": [],
      "isFixedGasLimit": false
    },
    {
      "hash": "0x8063c97a2bb4d2537de4d5e6854228e05be3cd9aff605b6936046f9e25b45cf6",
      "transactionType": "CALL",
      "contractName": null,
      "contractAddress": "0x3642fa7e78acfabf2851619acdb92ac560efc746",
      "function": "openBorrowAndReinvest(((address,address,uint24,int24,address),int24,int24,uint128,uint256,uint256,uint256,uint128,uint256))",
      "arguments": [
        "((0x2477B8687745f494931748F5355770BA72ED3830, 0xf61cD89a9E9b2B23Ce0bDac6E19C3DB52c56AC07, 3000, 60, 0x2d2A64DcD864Ba1C83dd634a8C19C4f695db10C0), -900, 900, 100000, 100000000000000000000000, 100000000000000000000000, 60000000000000000000000, 20000, 1000000000000000000)"
      ],
      "transaction": {
        "from": "0x4b992f2fbf714c0fcbb23bac5130ace48cad00cd",
        "to": "0x3642fa7e78acfabf2851619acdb92ac560efc746",
        "gas": "0x7db08",
        "value": "0x0",
        "input": "0x00cb58390000000000000000000000002477b8687745f494931748f5355770ba72ed3830000000000000000000000000f61cd89a9e9b2b23ce0bdac6e19c3db52c56ac070000000000000000000000000000000000000000000000000000000000000bb8000000000000000000000000000000000000000000000000000000000000003c0000000000000000000000002d2a64dcd864ba1c83dd634a8c19c4f695db10c0fffffffffffffffffffffffffffffffffffffffffffffffffffffffffffffc7c000000000000000000000000000000000000000000000000000000000000038400000000000000000000000000000000000000000000000000000000000186a000000000000000000000000000000000000000000000152d02c7e14af680000000000000000000000000000000000000000000000000152d02c7e14af6800000000000000000000000000000000000000000000000000cb49b44ba602d8000000000000000000000000000000000000000000000000000000000000000004e200000000000000000000000000000000000000000000000000de0b6b3a7640000",
        "nonce": "0x263",
        "chainId": "0x515"
      },
      "additionalContracts": [],
      "isFixedGasLimit": false
    },
    {
      "hash": "0x54a80d65ef753a93b07f63b8aea54ffd6a6c3fcce711ba81e679037784f730a0",
      "transactionType": "CALL",
      "contractName": null,
      "contractAddress": "0xf61cd89a9e9b2b23ce0bdac6e19c3db52c56ac07",
      "function": "mint(address,uint256)",
      "arguments": [
        "0x4b992F2Fbf714C0fCBb23baC5130Ace48CaD00cd",
        "500000000000000000000000"
      ],
      "transaction": {
        "from": "0x4b992f2fbf714c0fcbb23bac5130ace48cad00cd",
        "to": "0xf61cd89a9e9b2b23ce0bdac6e19c3db52c56ac07",
        "gas": "0xc190",
        "value": "0x0",
        "input": "0x40c10f190000000000000000000000004b992f2fbf714c0fcbb23bac5130ace48cad00cd0000000000000000000000000000000000000000000069e10de76676d0800000",
        "nonce": "0x264",
        "chainId": "0x515"
      },
      "additionalContracts": [],
      "isFixedGasLimit": false
    },
    {
      "hash": "0x60cfb72ad71ed86e348a3b6d0313ba73a173b8df8242bdde40af0d9777366add",
      "transactionType": "CALL",
      "contractName": null,
      "contractAddress": "0xf61cd89a9e9b2b23ce0bdac6e19c3db52c56ac07",
      "function": "approve(address,uint256)",
      "arguments": [
        "0xB4b2d15eBEC35e21E2FbCe3845Bff476082CC628",
        "115792089237316195423570985008687907853269984665640564039457584007913129639935"
      ],
      "transaction": {
        "from": "0x4b992f2fbf714c0fcbb23bac5130ace48cad00cd",
        "to": "0xf61cd89a9e9b2b23ce0bdac6e19c3db52c56ac07",
        "gas": "0x8e20",
        "value": "0x0",
        "input": "0x095ea7b3000000000000000000000000b4b2d15ebec35e21e2fbce3845bff476082cc628ffffffffffffffffffffffffffffffffffffffffffffffffffffffffffffffff",
        "nonce": "0x265",
        "chainId": "0x515"
      },
      "additionalContracts": [],
      "isFixedGasLimit": false
    },
    {
      "hash": "0x8718b7a6b89efeed7f4c8758b6a1359943aa173d9cefd2ce95a373e25c3dbedb",
      "transactionType": "CALL",
      "contractName": null,
      "contractAddress": "0x2d2a64dcd864ba1c83dd634a8c19c4f695db10c0",
      "function": "syncPool((address,address,uint24,int24,address))",
      "arguments": [
        "(0x2477B8687745f494931748F5355770BA72ED3830, 0xf61cD89a9E9b2B23Ce0bDac6E19C3DB52c56AC07, 3000, 60, 0x2d2A64DcD864Ba1C83dd634a8C19C4f695db10C0)"
      ],
      "transaction": {
        "from": "0x4b992f2fbf714c0fcbb23bac5130ace48cad00cd",
        "to": "0x2d2a64dcd864ba1c83dd634a8c19c4f695db10c0",
        "gas": "0xe7f4",
        "value": "0x0",
        "input": "0xfc2cd0c80000000000000000000000002477b8687745f494931748f5355770ba72ed3830000000000000000000000000f61cd89a9e9b2b23ce0bdac6e19c3db52c56ac070000000000000000000000000000000000000000000000000000000000000bb8000000000000000000000000000000000000000000000000000000000000003c0000000000000000000000002d2a64dcd864ba1c83dd634a8c19c4f695db10c0",
        "nonce": "0x266",
        "chainId": "0x515"
      },
      "additionalContracts": [],
      "isFixedGasLimit": false
    },
    {
      "hash": "0xba01cc01451cb86c85f18986215e5d043b377426e7f962b4cdac95f63a42179d",
      "transactionType": "CALL",
      "contractName": null,
      "contractAddress": "0x70df6c59673adaee5ac1354f1051bc6a232a3c53",
      "function": "setPoolRiskConfig(bytes32,(bool,bool,uint16,uint16,uint16,uint16,uint16,uint16,uint16,uint16,uint16,uint32,uint24,int24,int24))",
      "arguments": [
        "0xb566e82c46dc43d453be3bafdfb898f51610117a92439b0a4bf1433eac0e15dc",
        "(true, false, 2000, 2500, 1500, 4000, 3500, 0, 0, 0, 0, 0, 1, 1, 1)"
      ],
      "transaction": {
        "from": "0x4b992f2fbf714c0fcbb23bac5130ace48cad00cd",
        "to": "0x70df6c59673adaee5ac1354f1051bc6a232a3c53",
        "gas": "0xfa24",
        "value": "0x0",
        "input": "0x7ea66eaab566e82c46dc43d453be3bafdfb898f51610117a92439b0a4bf1433eac0e15dc0000000000000000000000000000000000000000000000000000000000000001000000000000000000000000000000000000000000000000000000000000000000000000000000000000000000000000000000000000000000000000000007d000000000000000000000000000000000000000000000000000000000000009c400000000000000000000000000000000000000000000000000000000000005dc0000000000000000000000000000000000000000000000000000000000000fa00000000000000000000000000000000000000000000000000000000000000dac00000000000000000000000000000000000000000000000000000000000000000000000000000000000000000000000000000000000000000000000000000000000000000000000000000000000000000000000000000000000000000000000000000000000000000000000000000000000000000000000000000000000000000000000000000000000000000000000000000000000000000000000000000000000000000000000000000000000000000000000000000000000000000000000100000000000000000000000000000000000000000000000000000000000000010000000000000000000000000000000000000000000000000000000000000001",
        "nonce": "0x267",
        "chainId": "0x515"
      },
      "additionalContracts": [],
      "isFixedGasLimit": false
    },
    {
      "hash": "0xd23eea88410b656fd5fe88964d15e2b39338c1350eddae43ab0db16c47b0de04",
      "transactionType": "CALL",
      "contractName": null,
      "contractAddress": "0x9148f61ad2d5cef6a7c43c6c951a816475cd1bfe",
      "function": "liquidate(uint256,uint256,uint256,uint256)",
      "arguments": [
        "5",
        "30000000000000000000000",
        "0",
        "0"
      ],
      "transaction": {
        "from": "0x4b992f2fbf714c0fcbb23bac5130ace48cad00cd",
        "to": "0x9148f61ad2d5cef6a7c43c6c951a816475cd1bfe",
        "gas": "0x3c4c7",
        "value": "0x0",
        "input": "0x43857a1f000000000000000000000000000000000000000000000000000000000000000500000000000000000000000000000000000000000000065a4da25d3016c0000000000000000000000000000000000000000000000000000000000000000000000000000000000000000000000000000000000000000000000000000000000000",
        "nonce": "0x268",
        "chainId": "0x515"
      },
      "additionalContracts": [],
      "isFixedGasLimit": false
    }
  ],
  "receipts": [
    {
      "status": "0x1",
      "cumulativeGasUsed": "0x76060",
      "logs": [
        {
          "address": "0x70df6c59673adaee5ac1354f1051bc6a232a3c53",
          "topics": [
            "0x98e2a16c41026ba062c710d54913b272cd3eb309b77cbff68c42dabb8b98ba9b",
            "0xb566e82c46dc43d453be3bafdfb898f51610117a92439b0a4bf1433eac0e15dc"
          ],
          "data": "0x00000000000000000000000000000000000000000000000000000000000000010000000000000000000000000000000000000000000000000000000000000000000000000000000000000000000000000000000000000000000000000000157c00000000000000000000000000000000000000000000000000000000000019640000000000000000000000000000000000000000000000000000000000000dac0000000000000000000000000000000000000000000000000000000000001f400000000000000000000000000000000000000000000000000000000000001a9000000000000000000000000000000000000000000000000000000000000004b00000000000000000000000000000000000000000000000000000000000000258000000000000000000000000000000000000000000000000000000000000032000000000000000000000000000000000000000000000000000000000000002bc00000000000000000000000000000000000000000000000000000000000186a0000000000000000000000000000000000000000000000000000000000000032000000000000000000000000000000000000000000000000000000000000004b000000000000000000000000000000000000000000000000000000000000003e8",
          "blockHash": "0xba7560e304799d23782d7a928dc63dc8304886fc9438d48a250c56c00d740c1e",
          "blockNumber": "0x2c3005d",
          "blockTimestamp": "0x69b0ada9",
          "transactionHash": "0x2dec7942aee027dda7da84d63e446b7af493a28ab68b82c17e3c6beeb35c52bc",
          "transactionIndex": "0x6",
          "logIndex": "0x4",
          "removed": false
        }
      ],
      "logsBloom": "0x00000000020000000000000000000000000000000000000000004000000000000000800000000000000002000000000000000000000000000000000000000000000000000000000000000000000000000000000000000000000000000000000000000000000000000000000000000000000000400008000000000000000000000000200000000000000000000000000000000000000000000000000000000000000000000000000000000000000000000000000000000000000000000000000000000000000000000000000000000000000000000000000000000000000000000040000000000000000000000000000200000000000000000000000000000000",
      "type": "0x2",
      "transactionHash": "0x2dec7942aee027dda7da84d63e446b7af493a28ab68b82c17e3c6beeb35c52bc",
      "transactionIndex": "0x6",
      "blockHash": "0xba7560e304799d23782d7a928dc63dc8304886fc9438d48a250c56c00d740c1e",
      "blockNumber": "0x2c3005d",
      "gasUsed": "0x95d2",
      "effectiveGasPrice": "0x7a121",
      "blobGasUsed": "0xef10",
      "from": "0x4b992f2fbf714c0fcbb23bac5130ace48cad00cd",
      "to": "0x70df6c59673adaee5ac1354f1051bc6a232a3c53",
      "contractAddress": null,
      "daFootprintGasScalar": "0x190",
      "l1BaseFeeScalar": "0x7d0",
      "l1BlobBaseFee": "0x1",
      "l1BlobBaseFeeScalar": "0xdbba0",
      "l1Fee": "0xb5",
      "l1GasPrice": "0x9",
      "l1GasUsed": "0x992"
    },
    {
      "status": "0x1",
      "cumulativeGasUsed": "0x7e4ae",
      "logs": [
        {
          "address": "0x2477b8687745f494931748f5355770ba72ed3830",
          "topics": [
            "0xddf252ad1be2c89b69c2b068fc378daa952ba7f163c4a11628f55a4df523b3ef",
            "0x0000000000000000000000000000000000000000000000000000000000000000",
            "0x0000000000000000000000004b992f2fbf714c0fcbb23bac5130ace48cad00cd"
          ],
          "data": "0x000000000000000000000000000000000000000000007f0e10af47c1c7000000",
          "blockHash": "0xba7560e304799d23782d7a928dc63dc8304886fc9438d48a250c56c00d740c1e",
          "blockNumber": "0x2c3005d",
          "blockTimestamp": "0x69b0ada9",
          "transactionHash": "0xff00fa27bc89c72fe4f1990e47e05a8d94ef51cb98896bd3770ad101e0571c26",
          "transactionIndex": "0x7",
          "logIndex": "0x5",
          "removed": false
        }
      ],
      "logsBloom": "0x00000000000000000000000000000000000000000000000000000000000000000000000000000000000000000000000000000002000000000000000000000000000000000000000000000008000000000000000000000000000100000000000000000000020000000000000000020800000000000000000000000010000000000000000000001000000000000000000000000000000000000000000000000000000000001000000000000000000000000000000000000000000000000002000000000002000000000000000000000000000000000000000000000000000020000000000000000000000000000000000000000000000000000000000000000000",
      "type": "0x2",
      "transactionHash": "0xff00fa27bc89c72fe4f1990e47e05a8d94ef51cb98896bd3770ad101e0571c26",
      "transactionIndex": "0x7",
      "blockHash": "0xba7560e304799d23782d7a928dc63dc8304886fc9438d48a250c56c00d740c1e",
      "blockNumber": "0x2c3005d",
      "gasUsed": "0x844e",
      "effectiveGasPrice": "0x7a121",
      "blobGasUsed": "0x9c40",
      "from": "0x4b992f2fbf714c0fcbb23bac5130ace48cad00cd",
      "to": "0x2477b8687745f494931748f5355770ba72ed3830",
      "contractAddress": null,
      "daFootprintGasScalar": "0x190",
      "l1BaseFeeScalar": "0x7d0",
      "l1BlobBaseFee": "0x1",
      "l1BlobBaseFeeScalar": "0xdbba0",
      "l1Fee": "0x76",
      "l1GasPrice": "0x9",
      "l1GasUsed": "0x640"
    },
    {
      "status": "0x1",
      "cumulativeGasUsed": "0x868fc",
      "logs": [
        {
          "address": "0xf61cd89a9e9b2b23ce0bdac6e19c3db52c56ac07",
          "topics": [
            "0xddf252ad1be2c89b69c2b068fc378daa952ba7f163c4a11628f55a4df523b3ef",
            "0x0000000000000000000000000000000000000000000000000000000000000000",
            "0x0000000000000000000000004b992f2fbf714c0fcbb23bac5130ace48cad00cd"
          ],
          "data": "0x000000000000000000000000000000000000000000007f0e10af47c1c7000000",
          "blockHash": "0xba7560e304799d23782d7a928dc63dc8304886fc9438d48a250c56c00d740c1e",
          "blockNumber": "0x2c3005d",
          "blockTimestamp": "0x69b0ada9",
          "transactionHash": "0x3b116a742e7660f5d7ef23e39950deff6dd0d8a48301c99ff5502152214cb3b5",
          "transactionIndex": "0x8",
          "logIndex": "0x6",
          "removed": false
        }
      ],
      "logsBloom": "0x00000000000000000000000000000000000000000000000000000000000000000000010000000000000000000000000000000002000000000000000000000000000000000000000000000008000000000000000000000000000100000000000000000000020000000000000000020800000000000000000000000010000000000000000000000000000800000000000000000000000000000000000000000000000000000000000000000000000000040000000000000000000000000000000000000002000000000000000000000000000000000000000000000000000020000000000000000000000000000000000000000000000000000000000000000000",
      "type": "0x2",
      "transactionHash": "0x3b116a742e7660f5d7ef23e39950deff6dd0d8a48301c99ff5502152214cb3b5",
      "transactionIndex": "0x8",
      "blockHash": "0xba7560e304799d23782d7a928dc63dc8304886fc9438d48a250c56c00d740c1e",
      "blockNumber": "0x2c3005d",
      "gasUsed": "0x844e",
      "effectiveGasPrice": "0x7a121",
      "blobGasUsed": "0x9c40",
      "from": "0x4b992f2fbf714c0fcbb23bac5130ace48cad00cd",
      "to": "0xf61cd89a9e9b2b23ce0bdac6e19c3db52c56ac07",
      "contractAddress": null,
      "daFootprintGasScalar": "0x190",
      "l1BaseFeeScalar": "0x7d0",
      "l1BlobBaseFee": "0x1",
      "l1BlobBaseFeeScalar": "0xdbba0",
      "l1Fee": "0x76",
      "l1GasPrice": "0x9",
      "l1GasUsed": "0x640"
    },
    {
      "status": "0x1",
      "cumulativeGasUsed": "0x8cfe2",
      "logs": [
        {
          "address": "0x2477b8687745f494931748f5355770ba72ed3830",
          "topics": [
            "0x8c5be1e5ebec7d5bd14f71427d1e84f3dd0314c0f7b2291e5b200ac8c7c3b925",
            "0x0000000000000000000000004b992f2fbf714c0fcbb23bac5130ace48cad00cd",
            "0x0000000000000000000000003642fa7e78acfabf2851619acdb92ac560efc746"
          ],
          "data": "0xffffffffffffffffffffffffffffffffffffffffffffffffffffffffffffffff",
          "blockHash": "0xba7560e304799d23782d7a928dc63dc8304886fc9438d48a250c56c00d740c1e",
          "blockNumber": "0x2c3005d",
          "blockTimestamp": "0x69b0ada9",
          "transactionHash": "0xeb4e9611b9e867a5e37347383342cc47892e0ff9baf6ae7d65dbb97b257c8d7e",
          "transactionIndex": "0x9",
          "logIndex": "0x7",
          "removed": false
        }
      ],
      "logsBloom": "0x00000000000000000000000000000000000000000000000000000000000000000000000000000000000000000000000000000002000000000000000000200000000000000000000000000000000000000000000000000000000100000000002000000000001000000000000000020000000000000000000000000000000000000000000000001000000000000000000000000000000000000000000000000000020000001000000000000000000000000000000000000000000000000002000000000000000000000000000000000000000000000000000000000000000000000010000000000000000000000000000010000000000000000000000000000000",
      "type": "0x2",
      "transactionHash": "0xeb4e9611b9e867a5e37347383342cc47892e0ff9baf6ae7d65dbb97b257c8d7e",
      "transactionIndex": "0x9",
      "blockHash": "0xba7560e304799d23782d7a928dc63dc8304886fc9438d48a250c56c00d740c1e",
      "blockNumber": "0x2c3005d",
      "gasUsed": "0x66e6",
      "effectiveGasPrice": "0x7a121",
      "blobGasUsed": "0x9c40",
      "from": "0x4b992f2fbf714c0fcbb23bac5130ace48cad00cd",
      "to": "0x2477b8687745f494931748f5355770ba72ed3830",
      "contractAddress": null,
      "daFootprintGasScalar": "0x190",
      "l1BaseFeeScalar": "0x7d0",
      "l1BlobBaseFee": "0x1",
      "l1BlobBaseFeeScalar": "0xdbba0",
      "l1Fee": "0x76",
      "l1GasPrice": "0x9",
      "l1GasUsed": "0x640"
    },
    {
      "status": "0x1",
      "cumulativeGasUsed": "0x936c8",
      "logs": [
        {
          "address": "0xf61cd89a9e9b2b23ce0bdac6e19c3db52c56ac07",
          "topics": [
            "0x8c5be1e5ebec7d5bd14f71427d1e84f3dd0314c0f7b2291e5b200ac8c7c3b925",
            "0x0000000000000000000000004b992f2fbf714c0fcbb23bac5130ace48cad00cd",
            "0x0000000000000000000000003642fa7e78acfabf2851619acdb92ac560efc746"
          ],
          "data": "0xffffffffffffffffffffffffffffffffffffffffffffffffffffffffffffffff",
          "blockHash": "0xba7560e304799d23782d7a928dc63dc8304886fc9438d48a250c56c00d740c1e",
          "blockNumber": "0x2c3005d",
          "blockTimestamp": "0x69b0ada9",
          "transactionHash": "0xe0e369fb11d6f211a05b2c5c333ecf6cac40e0a59a93de54b998cdbfab98e0fa",
          "transactionIndex": "0xa",
          "logIndex": "0x8",
          "removed": false
        }
      ],
      "logsBloom": "0x00000000000000000000000000000000000000000000000000000000000000000000010000000000000000000000000000000002000000000000000000200000000000000000000000000000000000000000000000000000000100000000002000000000001000000000000000020000000000000000000000000000000000000000000000000000000800000000000000000000000000000000000000000000020000000000000000000000000000040000000000000000000000000000000000000000000000000000000000000000000000000000000000000000000000000010000000000000000000000000000010000000000000000000000000000000",
      "type": "0x2",
      "transactionHash": "0xe0e369fb11d6f211a05b2c5c333ecf6cac40e0a59a93de54b998cdbfab98e0fa",
      "transactionIndex": "0xa",
      "blockHash": "0xba7560e304799d23782d7a928dc63dc8304886fc9438d48a250c56c00d740c1e",
      "blockNumber": "0x2c3005d",
      "gasUsed": "0x66e6",
      "effectiveGasPrice": "0x7a121",
      "blobGasUsed": "0x9c40",
      "from": "0x4b992f2fbf714c0fcbb23bac5130ace48cad00cd",
      "to": "0xf61cd89a9e9b2b23ce0bdac6e19c3db52c56ac07",
      "contractAddress": null,
      "daFootprintGasScalar": "0x190",
      "l1BaseFeeScalar": "0x7d0",
      "l1BlobBaseFee": "0x1",
      "l1BlobBaseFeeScalar": "0xdbba0",
      "l1Fee": "0x76",
      "l1GasPrice": "0x9",
      "l1GasUsed": "0x640"
    },
    {
      "status": "0x1",
      "cumulativeGasUsed": "0x99dae",
      "logs": [
        {
          "address": "0xf61cd89a9e9b2b23ce0bdac6e19c3db52c56ac07",
          "topics": [
            "0x8c5be1e5ebec7d5bd14f71427d1e84f3dd0314c0f7b2291e5b200ac8c7c3b925",
            "0x0000000000000000000000004b992f2fbf714c0fcbb23bac5130ace48cad00cd",
            "0x000000000000000000000000b4b2d15ebec35e21e2fbce3845bff476082cc628"
          ],
          "data": "0xffffffffffffffffffffffffffffffffffffffffffffffffffffffffffffffff",
          "blockHash": "0xba7560e304799d23782d7a928dc63dc8304886fc9438d48a250c56c00d740c1e",
          "blockNumber": "0x2c3005d",
          "blockTimestamp": "0x69b0ada9",
          "transactionHash": "0xe5263b11dea2b2c9244741558054021e33aeb645820d3360b883d3d021aecfc4",
          "transactionIndex": "0xb",
          "logIndex": "0x9",
          "removed": false
        }
      ],
      "logsBloom": "0x00000000000000000000000000000000000000000000000000000000000000000000010000000000000000000000000000000002000000000000000000200000000000000000000000000000000000000000000000000000000100000000000000000000000000000000000000020000000000000000000000000000000000000000000000000000000800000000000000000000000000000008000000000000020004000100000000000000000000040000000000000000000000000000000000000000000000000000000000000000000000000000000000000000000000000010000000000000000000000000000000000000000000000000000000000000",
      "type": "0x2",
      "transactionHash": "0xe5263b11dea2b2c9244741558054021e33aeb645820d3360b883d3d021aecfc4",
      "transactionIndex": "0xb",
      "blockHash": "0xba7560e304799d23782d7a928dc63dc8304886fc9438d48a250c56c00d740c1e",
      "blockNumber": "0x2c3005d",
      "gasUsed": "0x66e6",
      "effectiveGasPrice": "0x7a121",
      "blobGasUsed": "0x9c40",
      "from": "0x4b992f2fbf714c0fcbb23bac5130ace48cad00cd",
      "to": "0xf61cd89a9e9b2b23ce0bdac6e19c3db52c56ac07",
      "contractAddress": null,
      "daFootprintGasScalar": "0x190",
      "l1BaseFeeScalar": "0x7d0",
      "l1BlobBaseFee": "0x1",
      "l1BlobBaseFeeScalar": "0xdbba0",
      "l1Fee": "0x76",
      "l1GasPrice": "0x9",
      "l1GasUsed": "0x640"
    },
    {
      "status": "0x1",
      "cumulativeGasUsed": "0xfb4bf",
      "logs": [
        {
          "address": "0x2477b8687745f494931748f5355770ba72ed3830",
          "topics": [
            "0xddf252ad1be2c89b69c2b068fc378daa952ba7f163c4a11628f55a4df523b3ef",
            "0x0000000000000000000000004b992f2fbf714c0fcbb23bac5130ace48cad00cd",
            "0x000000000000000000000000dd008a1209bf0400c3e7c0b5a4d23e691ee43990"
          ],
          "data": "0x00000000000000000000000000000000000000000000152d02c7e14af6800000",
          "blockHash": "0xba7560e304799d23782d7a928dc63dc8304886fc9438d48a250c56c00d740c1e",
          "blockNumber": "0x2c3005d",
          "blockTimestamp": "0x69b0ada9",
          "transactionHash": "0x0b241cbf3a3e6d68b1c74b02d3d46ea7a432e04c71426412dfb9a605aff65944",
          "transactionIndex": "0xc",
          "logIndex": "0xa",
          "removed": false
        },
        {
          "address": "0xf61cd89a9e9b2b23ce0bdac6e19c3db52c56ac07",
          "topics": [
            "0xddf252ad1be2c89b69c2b068fc378daa952ba7f163c4a11628f55a4df523b3ef",
            "0x0000000000000000000000004b992f2fbf714c0fcbb23bac5130ace48cad00cd",
            "0x000000000000000000000000dd008a1209bf0400c3e7c0b5a4d23e691ee43990"
          ],
          "data": "0x00000000000000000000000000000000000000000000152d02c7e14af6800000",
          "blockHash": "0xba7560e304799d23782d7a928dc63dc8304886fc9438d48a250c56c00d740c1e",
          "blockNumber": "0x2c3005d",
          "blockTimestamp": "0x69b0ada9",
          "transactionHash": "0x0b241cbf3a3e6d68b1c74b02d3d46ea7a432e04c71426412dfb9a605aff65944",
          "transactionIndex": "0xc",
          "logIndex": "0xb",
          "removed": false
        },
        {
          "address": "0xdd008a1209bf0400c3e7c0b5a4d23e691ee43990",
          "topics": [
            "0xda5bbcbf3f936186623513e9d6174902ea63913ab38d428da5a3681beb66bf40",
            "0x0000000000000000000000000000000000000000000000000000000000000004",
            "0x0000000000000000000000004b992f2fbf714c0fcbb23bac5130ace48cad00cd",
            "0xb566e82c46dc43d453be3bafdfb898f51610117a92439b0a4bf1433eac0e15dc"
          ],
          "data": "0x00000000000000000000000000000000000000000000152d02c7e14af680000000000000000000000000000000000000000000000000152d02c7e14af680000000000000000000000000000000000000000000000000000000000000000186a0",
          "blockHash": "0xba7560e304799d23782d7a928dc63dc8304886fc9438d48a250c56c00d740c1e",
          "blockNumber": "0x2c3005d",
          "blockTimestamp": "0x69b0ada9",
          "transactionHash": "0x0b241cbf3a3e6d68b1c74b02d3d46ea7a432e04c71426412dfb9a605aff65944",
          "transactionIndex": "0xc",
          "logIndex": "0xc",
          "removed": false
        },
        {
          "address": "0xb4b2d15ebec35e21e2fbce3845bff476082cc628",
          "topics": [
            "0xe3972ae250606e82c6683843383cb8a51755588d2f443af42e8cb5b1e085392d"
          ],
          "data": "0x0000000000000000000000000000000000000000033b2e44290b94c9355704020000000000000000000000000000000000000000033b2e464b9a1e6adb634fe40000000000000000000000000000000000000000000000000004329309f58d0600000000000000000000000000000000000000000000000000006b751a988e1a",
          "blockHash": "0xba7560e304799d23782d7a928dc63dc8304886fc9438d48a250c56c00d740c1e",
          "blockNumber": "0x2c3005d",
          "blockTimestamp": "0x69b0ada9",
          "transactionHash": "0x0b241cbf3a3e6d68b1c74b02d3d46ea7a432e04c71426412dfb9a605aff65944",
          "transactionIndex": "0xc",
          "logIndex": "0xd",
          "removed": false
        },
        {
          "address": "0xf61cd89a9e9b2b23ce0bdac6e19c3db52c56ac07",
          "topics": [
            "0xddf252ad1be2c89b69c2b068fc378daa952ba7f163c4a11628f55a4df523b3ef",
            "0x000000000000000000000000b4b2d15ebec35e21e2fbce3845bff476082cc628",
            "0x000000000000000000000000dd008a1209bf0400c3e7c0b5a4d23e691ee43990"
          ],
          "data": "0x000000000000000000000000000000000000000000000878678326eac9000000",
          "blockHash": "0xba7560e304799d23782d7a928dc63dc8304886fc9438d48a250c56c00d740c1e",
          "blockNumber": "0x2c3005d",
          "blockTimestamp": "0x69b0ada9",
          "transactionHash": "0x0b241cbf3a3e6d68b1c74b02d3d46ea7a432e04c71426412dfb9a605aff65944",
          "transactionIndex": "0xc",
          "logIndex": "0xe",
          "removed": false
        },
        {
          "address": "0xb4b2d15ebec35e21e2fbce3845bff476082cc628",
          "topics": [
            "0xf757d05eea809fa4e0cb84c028b2e1f0e6387cc1fddf8c4ef6751e3a0ed69a71",
            "0x0000000000000000000000000000000000000000000000000000000000000004",
            "0x000000000000000000000000dd008a1209bf0400c3e7c0b5a4d23e691ee43990"
          ],
          "data": "0x000000000000000000000000000000000000000000000878678326eac90000000000000000000000000000000000000000000000000008786769ccca2b19e342",
          "blockHash": "0xba7560e304799d23782d7a928dc63dc8304886fc9438d48a250c56c00d740c1e",
          "blockNumber": "0x2c3005d",
          "blockTimestamp": "0x69b0ada9",
          "transactionHash": "0x0b241cbf3a3e6d68b1c74b02d3d46ea7a432e04c71426412dfb9a605aff65944",
          "transactionIndex": "0xc",
          "logIndex": "0xf",
          "removed": false
        },
        {
          "address": "0xdd008a1209bf0400c3e7c0b5a4d23e691ee43990",
          "topics": [
            "0xd55b73c5d25b64a50c7e028ddac7cb0e47c922911cc59be371745474e6733899",
            "0x0000000000000000000000000000000000000000000000000000000000000004"
          ],
          "data": "0x00000000000000000000000000000000000000000000152d02c7e14af6800000000000000000000000000000000000000000000000001da56a4b0835bf80000000000000000000000000000000000000000000000000000000000000000186a00000000000000000000000000000000000000000000000000000000000003a98",
          "blockHash": "0xba7560e304799d23782d7a928dc63dc8304886fc9438d48a250c56c00d740c1e",
          "blockNumber": "0x2c3005d",
          "blockTimestamp": "0x69b0ada9",
          "transactionHash": "0x0b241cbf3a3e6d68b1c74b02d3d46ea7a432e04c71426412dfb9a605aff65944",
          "transactionIndex": "0xc",
          "logIndex": "0x10",
          "removed": false
        },
        {
          "address": "0x3642fa7e78acfabf2851619acdb92ac560efc746",
          "topics": [
            "0xce95f1d5bc4fd4061928be3b668973283b0d4e2c4622beb1cfc7e83a12dfd327",
            "0x0000000000000000000000000000000000000000000000000000000000000004",
            "0x0000000000000000000000004b992f2fbf714c0fcbb23bac5130ace48cad00cd",
            "0xb566e82c46dc43d453be3bafdfb898f51610117a92439b0a4bf1433eac0e15dc"
          ],
          "data": "0x00000000000000000000000000000000000000000000152d02c7e14af680000000000000000000000000000000000000000000000000152d02c7e14af6800000000000000000000000000000000000000000000000000878678326eac90000000000000000000000000000000000000000000000000000000000000000003a9800000000000000000000000000000000000000000000000027c0649faea10000",
          "blockHash": "0xba7560e304799d23782d7a928dc63dc8304886fc9438d48a250c56c00d740c1e",
          "blockNumber": "0x2c3005d",
          "blockTimestamp": "0x69b0ada9",
          "transactionHash": "0x0b241cbf3a3e6d68b1c74b02d3d46ea7a432e04c71426412dfb9a605aff65944",
          "transactionIndex": "0xc",
          "logIndex": "0x11",
          "removed": false
        }
      ],
      "logsBloom": "0x00000000020000002002000000000000000000000000000000004000000000000000010000000000000000000010000000000002000000000000000000080800120000000000000000000008100820000000000000008000000100000000100008000000000000000000000000020000000082000008000000000010000080000000000000001100000800100000000000020000002000000108000200000000000004001100000000000000000000040000000000000008002010000002000000020002000000000000000008000000000000008000000000000000040000000000000000000000000000000000000000000000000000000800000000000000",
      "type": "0x2",
      "transactionHash": "0x0b241cbf3a3e6d68b1c74b02d3d46ea7a432e04c71426412dfb9a605aff65944",
      "transactionIndex": "0xc",
      "blockHash": "0xba7560e304799d23782d7a928dc63dc8304886fc9438d48a250c56c00d740c1e",
      "blockNumber": "0x2c3005d",
      "gasUsed": "0x61711",
      "effectiveGasPrice": "0x7a121",
      "blobGasUsed": "0x13240",
      "from": "0x4b992f2fbf714c0fcbb23bac5130ace48cad00cd",
      "to": "0x3642fa7e78acfabf2851619acdb92ac560efc746",
      "contractAddress": null,
      "daFootprintGasScalar": "0x190",
      "l1BaseFeeScalar": "0x7d0",
      "l1BlobBaseFee": "0x1",
      "l1BlobBaseFeeScalar": "0xdbba0",
      "l1Fee": "0xe9",
      "l1GasPrice": "0x9",
      "l1GasUsed": "0xc4a"
    },
    {
      "status": "0x1",
      "cumulativeGasUsed": "0x97b9f",
      "logs": [
        {
          "address": "0x2477b8687745f494931748f5355770ba72ed3830",
          "topics": [
            "0xddf252ad1be2c89b69c2b068fc378daa952ba7f163c4a11628f55a4df523b3ef",
            "0x0000000000000000000000004b992f2fbf714c0fcbb23bac5130ace48cad00cd",
            "0x000000000000000000000000dd008a1209bf0400c3e7c0b5a4d23e691ee43990"
          ],
          "data": "0x00000000000000000000000000000000000000000000152d02c7e14af6800000",
          "blockHash": "0x8fb9f38b395ec1dc351de1786efaaa6e3c6e0cba18173288c7517a13e55c3552",
          "blockNumber": "0x2c3005e",
          "blockTimestamp": "0x69b0adaa",
          "transactionHash": "0x8063c97a2bb4d2537de4d5e6854228e05be3cd9aff605b6936046f9e25b45cf6",
          "transactionIndex": "0x4",
          "logIndex": "0x2",
          "removed": false
        },
        {
          "address": "0xf61cd89a9e9b2b23ce0bdac6e19c3db52c56ac07",
          "topics": [
            "0xddf252ad1be2c89b69c2b068fc378daa952ba7f163c4a11628f55a4df523b3ef",
            "0x0000000000000000000000004b992f2fbf714c0fcbb23bac5130ace48cad00cd",
            "0x000000000000000000000000dd008a1209bf0400c3e7c0b5a4d23e691ee43990"
          ],
          "data": "0x00000000000000000000000000000000000000000000152d02c7e14af6800000",
          "blockHash": "0x8fb9f38b395ec1dc351de1786efaaa6e3c6e0cba18173288c7517a13e55c3552",
          "blockNumber": "0x2c3005e",
          "blockTimestamp": "0x69b0adaa",
          "transactionHash": "0x8063c97a2bb4d2537de4d5e6854228e05be3cd9aff605b6936046f9e25b45cf6",
          "transactionIndex": "0x4",
          "logIndex": "0x3",
          "removed": false
        },
        {
          "address": "0xdd008a1209bf0400c3e7c0b5a4d23e691ee43990",
          "topics": [
            "0xda5bbcbf3f936186623513e9d6174902ea63913ab38d428da5a3681beb66bf40",
            "0x0000000000000000000000000000000000000000000000000000000000000005",
            "0x0000000000000000000000004b992f2fbf714c0fcbb23bac5130ace48cad00cd",
            "0xb566e82c46dc43d453be3bafdfb898f51610117a92439b0a4bf1433eac0e15dc"
          ],
          "data": "0x00000000000000000000000000000000000000000000152d02c7e14af680000000000000000000000000000000000000000000000000152d02c7e14af680000000000000000000000000000000000000000000000000000000000000000186a0",
          "blockHash": "0x8fb9f38b395ec1dc351de1786efaaa6e3c6e0cba18173288c7517a13e55c3552",
          "blockNumber": "0x2c3005e",
          "blockTimestamp": "0x69b0adaa",
          "transactionHash": "0x8063c97a2bb4d2537de4d5e6854228e05be3cd9aff605b6936046f9e25b45cf6",
          "transactionIndex": "0x4",
          "logIndex": "0x4",
          "removed": false
        },
        {
          "address": "0xb4b2d15ebec35e21e2fbce3845bff476082cc628",
          "topics": [
            "0xe3972ae250606e82c6683843383cb8a51755588d2f443af42e8cb5b1e085392d"
          ],
          "data": "0x0000000000000000000000000000000000000000033b2e464b9a1e6adb634fe40000000000000000000000000000000000000000033b2e46635d88a2fa605c9800000000000000000000000000000000000000000000000000006d03c8e78d6200000000000000000000000000000000000000000000000000000ae6c74a5af0",
          "blockHash": "0x8fb9f38b395ec1dc351de1786efaaa6e3c6e0cba18173288c7517a13e55c3552",
          "blockNumber": "0x2c3005e",
          "blockTimestamp": "0x69b0adaa",
          "transactionHash": "0x8063c97a2bb4d2537de4d5e6854228e05be3cd9aff605b6936046f9e25b45cf6",
          "transactionIndex": "0x4",
          "logIndex": "0x5",
          "removed": false
        },
        {
          "address": "0xf61cd89a9e9b2b23ce0bdac6e19c3db52c56ac07",
          "topics": [
            "0xddf252ad1be2c89b69c2b068fc378daa952ba7f163c4a11628f55a4df523b3ef",
            "0x000000000000000000000000b4b2d15ebec35e21e2fbce3845bff476082cc628",
            "0x000000000000000000000000dd008a1209bf0400c3e7c0b5a4d23e691ee43990"
          ],
          "data": "0x000000000000000000000000000000000000000000000cb49b44ba602d800000",
          "blockHash": "0x8fb9f38b395ec1dc351de1786efaaa6e3c6e0cba18173288c7517a13e55c3552",
          "blockNumber": "0x2c3005e",
          "blockTimestamp": "0x69b0adaa",
          "transactionHash": "0x8063c97a2bb4d2537de4d5e6854228e05be3cd9aff605b6936046f9e25b45cf6",
          "transactionIndex": "0x4",
          "logIndex": "0x6",
          "removed": false
        },
        {
          "address": "0xb4b2d15ebec35e21e2fbce3845bff476082cc628",
          "topics": [
            "0xf757d05eea809fa4e0cb84c028b2e1f0e6387cc1fddf8c4ef6751e3a0ed69a71",
            "0x0000000000000000000000000000000000000000000000000000000000000005",
            "0x000000000000000000000000dd008a1209bf0400c3e7c0b5a4d23e691ee43990"
          ],
          "data": "0x000000000000000000000000000000000000000000000cb49b44ba602d800000000000000000000000000000000000000000000000000cb49b1e55be4ce16605",
          "blockHash": "0x8fb9f38b395ec1dc351de1786efaaa6e3c6e0cba18173288c7517a13e55c3552",
          "blockNumber": "0x2c3005e",
          "blockTimestamp": "0x69b0adaa",
          "transactionHash": "0x8063c97a2bb4d2537de4d5e6854228e05be3cd9aff605b6936046f9e25b45cf6",
          "transactionIndex": "0x4",
          "logIndex": "0x7",
          "removed": false
        },
        {
          "address": "0xdd008a1209bf0400c3e7c0b5a4d23e691ee43990",
          "topics": [
            "0xd55b73c5d25b64a50c7e028ddac7cb0e47c922911cc59be371745474e6733899",
            "0x0000000000000000000000000000000000000000000000000000000000000005"
          ],
          "data": "0x00000000000000000000000000000000000000000000152d02c7e14af68000000000000000000000000000000000000000000000000021e19e0c9bab2400000000000000000000000000000000000000000000000000000000000000000186a00000000000000000000000000000000000000000000000000000000000004e20",
          "blockHash": "0x8fb9f38b395ec1dc351de1786efaaa6e3c6e0cba18173288c7517a13e55c3552",
          "blockNumber": "0x2c3005e",
          "blockTimestamp": "0x69b0adaa",
          "transactionHash": "0x8063c97a2bb4d2537de4d5e6854228e05be3cd9aff605b6936046f9e25b45cf6",
          "transactionIndex": "0x4",
          "logIndex": "0x8",
          "removed": false
        },
        {
          "address": "0x3642fa7e78acfabf2851619acdb92ac560efc746",
          "topics": [
            "0xce95f1d5bc4fd4061928be3b668973283b0d4e2c4622beb1cfc7e83a12dfd327",
            "0x0000000000000000000000000000000000000000000000000000000000000005",
            "0x0000000000000000000000004b992f2fbf714c0fcbb23bac5130ace48cad00cd",
            "0xb566e82c46dc43d453be3bafdfb898f51610117a92439b0a4bf1433eac0e15dc"
          ],
          "data": "0x00000000000000000000000000000000000000000000152d02c7e14af680000000000000000000000000000000000000000000000000152d02c7e14af6800000000000000000000000000000000000000000000000000cb49b44ba602d8000000000000000000000000000000000000000000000000000000000000000004e200000000000000000000000000000000000000000000000001cb59e018c57d555",
          "blockHash": "0x8fb9f38b395ec1dc351de1786efaaa6e3c6e0cba18173288c7517a13e55c3552",
          "blockNumber": "0x2c3005e",
          "blockTimestamp": "0x69b0adaa",
          "transactionHash": "0x8063c97a2bb4d2537de4d5e6854228e05be3cd9aff605b6936046f9e25b45cf6",
          "transactionIndex": "0x4",
          "logIndex": "0x9",
          "removed": false
        }
      ],
      "logsBloom": "0x00000000020000002002000000000000000000000000000000004000000000000000010000000000000000000010000000000002000000000000000000080800120010000000000000000008100820000000000000008000000100000000100000000000000000000000000000020000000082000008000000000010000080000000000000001100000800100000001000020800002000000108000200000000000004001100000000000000000000040000000000000008000010000002000000020002000000000000000008000000000000000000000000000000040000000000000000000000000000000000000000000000000000000800000000000000",
      "type": "0x2",
      "transactionHash": "0x8063c97a2bb4d2537de4d5e6854228e05be3cd9aff605b6936046f9e25b45cf6",
      "transactionIndex": "0x4",
      "blockHash": "0x8fb9f38b395ec1dc351de1786efaaa6e3c6e0cba18173288c7517a13e55c3552",
      "blockNumber": "0x2c3005e",
      "gasUsed": "0x6171d",
      "effectiveGasPrice": "0x7a121",
      "blobGasUsed": "0x133d0",
      "from": "0x4b992f2fbf714c0fcbb23bac5130ace48cad00cd",
      "to": "0x3642fa7e78acfabf2851619acdb92ac560efc746",
      "contractAddress": null,
      "daFootprintGasScalar": "0x190",
      "l1BaseFeeScalar": "0x7d0",
      "l1BlobBaseFee": "0x1",
      "l1BlobBaseFeeScalar": "0xdbba0",
      "l1Fee": "0xea",
      "l1GasPrice": "0x9",
      "l1GasUsed": "0xc57"
    },
    {
      "status": "0x1",
      "cumulativeGasUsed": "0x9fff9",
      "logs": [
        {
          "address": "0xf61cd89a9e9b2b23ce0bdac6e19c3db52c56ac07",
          "topics": [
            "0xddf252ad1be2c89b69c2b068fc378daa952ba7f163c4a11628f55a4df523b3ef",
            "0x0000000000000000000000000000000000000000000000000000000000000000",
            "0x0000000000000000000000004b992f2fbf714c0fcbb23bac5130ace48cad00cd"
          ],
          "data": "0x0000000000000000000000000000000000000000000069e10de76676d0800000",
          "blockHash": "0x8fb9f38b395ec1dc351de1786efaaa6e3c6e0cba18173288c7517a13e55c3552",
          "blockNumber": "0x2c3005e",
          "blockTimestamp": "0x69b0adaa",
          "transactionHash": "0x54a80d65ef753a93b07f63b8aea54ffd6a6c3fcce711ba81e679037784f730a0",
          "transactionIndex": "0x5",
          "logIndex": "0xa",
          "removed": false
        }
      ],
      "logsBloom": "0x00000000000000000000000000000000000000000000000000000000000000000000010000000000000000000000000000000002000000000000000000000000000000000000000000000008000000000000000000000000000100000000000000000000020000000000000000020800000000000000000000000010000000000000000000000000000800000000000000000000000000000000000000000000000000000000000000000000000000040000000000000000000000000000000000000002000000000000000000000000000000000000000000000000000020000000000000000000000000000000000000000000000000000000000000000000",
      "type": "0x2",
      "transactionHash": "0x54a80d65ef753a93b07f63b8aea54ffd6a6c3fcce711ba81e679037784f730a0",
      "transactionIndex": "0x5",
      "blockHash": "0x8fb9f38b395ec1dc351de1786efaaa6e3c6e0cba18173288c7517a13e55c3552",
      "blockNumber": "0x2c3005e",
      "gasUsed": "0x845a",
      "effectiveGasPrice": "0x7a121",
      "blobGasUsed": "0x9c40",
      "from": "0x4b992f2fbf714c0fcbb23bac5130ace48cad00cd",
      "to": "0xf61cd89a9e9b2b23ce0bdac6e19c3db52c56ac07",
      "contractAddress": null,
      "daFootprintGasScalar": "0x190",
      "l1BaseFeeScalar": "0x7d0",
      "l1BlobBaseFee": "0x1",
      "l1BlobBaseFeeScalar": "0xdbba0",
      "l1Fee": "0x76",
      "l1GasPrice": "0x9",
      "l1GasUsed": "0x640"
    },
    {
      "status": "0x1",
      "cumulativeGasUsed": "0xa66df",
      "logs": [
        {
          "address": "0xf61cd89a9e9b2b23ce0bdac6e19c3db52c56ac07",
          "topics": [
            "0x8c5be1e5ebec7d5bd14f71427d1e84f3dd0314c0f7b2291e5b200ac8c7c3b925",
            "0x0000000000000000000000004b992f2fbf714c0fcbb23bac5130ace48cad00cd",
            "0x000000000000000000000000b4b2d15ebec35e21e2fbce3845bff476082cc628"
          ],
          "data": "0xffffffffffffffffffffffffffffffffffffffffffffffffffffffffffffffff",
          "blockHash": "0x8fb9f38b395ec1dc351de1786efaaa6e3c6e0cba18173288c7517a13e55c3552",
          "blockNumber": "0x2c3005e",
          "blockTimestamp": "0x69b0adaa",
          "transactionHash": "0x60cfb72ad71ed86e348a3b6d0313ba73a173b8df8242bdde40af0d9777366add",
          "transactionIndex": "0x6",
          "logIndex": "0xb",
          "removed": false
        }
      ],
      "logsBloom": "0x00000000000000000000000000000000000000000000000000000000000000000000010000000000000000000000000000000002000000000000000000200000000000000000000000000000000000000000000000000000000100000000000000000000000000000000000000020000000000000000000000000000000000000000000000000000000800000000000000000000000000000008000000000000020004000100000000000000000000040000000000000000000000000000000000000000000000000000000000000000000000000000000000000000000000000010000000000000000000000000000000000000000000000000000000000000",
      "type": "0x2",
      "transactionHash": "0x60cfb72ad71ed86e348a3b6d0313ba73a173b8df8242bdde40af0d9777366add",
      "transactionIndex": "0x6",
      "blockHash": "0x8fb9f38b395ec1dc351de1786efaaa6e3c6e0cba18173288c7517a13e55c3552",
      "blockNumber": "0x2c3005e",
      "gasUsed": "0x66e6",
      "effectiveGasPrice": "0x7a121",
      "blobGasUsed": "0x9c40",
      "from": "0x4b992f2fbf714c0fcbb23bac5130ace48cad00cd",
      "to": "0xf61cd89a9e9b2b23ce0bdac6e19c3db52c56ac07",
      "contractAddress": null,
      "daFootprintGasScalar": "0x190",
      "l1BaseFeeScalar": "0x7d0",
      "l1BlobBaseFee": "0x1",
      "l1BlobBaseFeeScalar": "0xdbba0",
      "l1Fee": "0x76",
      "l1GasPrice": "0x9",
      "l1GasUsed": "0x640"
    },
    {
      "status": "0x1",
      "cumulativeGasUsed": "0xc75ab",
      "logs": [
        {
          "address": "0x2d2a64dcd864ba1c83dd634a8c19c4f695db10c0",
          "topics": [
            "0xdafc01bff220e4f232adb8a23b09d96e1208db536218906218df778e2d8fa5bb",
            "0xb566e82c46dc43d453be3bafdfb898f51610117a92439b0a4bf1433eac0e15dc"
          ],
          "data": "0x0000000000000000000000000000000000000000000000000000000000000000000000000000000000000000000000000000000000000000000000000000000000000000000000000000000000000000000000000000000000000000000000000000000000000000000000000000000000000000000000000000000069b0adaa",
          "blockHash": "0x8fb9f38b395ec1dc351de1786efaaa6e3c6e0cba18173288c7517a13e55c3552",
          "blockNumber": "0x2c3005e",
          "blockTimestamp": "0x69b0adaa",
          "transactionHash": "0x8718b7a6b89efeed7f4c8758b6a1359943aa173d9cefd2ce95a373e25c3dbedb",
          "transactionIndex": "0x8",
          "logIndex": "0xd",
          "removed": false
        }
      ],
      "logsBloom": "0x00000000020000000000800000000000200000000000000000004000000000000000000000000001000000000000000000000000000000000000000000000000000000000000000000000000000000000000000000000000000000000000000000000000000000000000080000000000000000000008000000000000000000000000000000000000000000000000000000000000000000000000000000000100000000000000000000000000000000000000000000000000000000000000400000000000000000000000000000000000000000000000000000000000000000000000000000000000000000000000000000000000000000000000000000000000",
      "type": "0x2",
      "transactionHash": "0x8718b7a6b89efeed7f4c8758b6a1359943aa173d9cefd2ce95a373e25c3dbedb",
      "transactionIndex": "0x8",
      "blockHash": "0x8fb9f38b395ec1dc351de1786efaaa6e3c6e0cba18173288c7517a13e55c3552",
      "blockNumber": "0x2c3005e",
      "gasUsed": "0x9e9a",
      "effectiveGasPrice": "0x7a121",
      "blobGasUsed": "0xb6d0",
      "from": "0x4b992f2fbf714c0fcbb23bac5130ace48cad00cd",
      "to": "0x2d2a64dcd864ba1c83dd634a8c19c4f695db10c0",
      "contractAddress": null,
      "daFootprintGasScalar": "0x190",
      "l1BaseFeeScalar": "0x7d0",
      "l1BlobBaseFee": "0x1",
      "l1BlobBaseFeeScalar": "0xdbba0",
      "l1Fee": "0x8b",
      "l1GasPrice": "0x9",
      "l1GasUsed": "0x752"
    },
    {
      "status": "0x1",
      "cumulativeGasUsed": "0xd20b5",
      "logs": [
        {
          "address": "0x70df6c59673adaee5ac1354f1051bc6a232a3c53",
          "topics": [
            "0x98e2a16c41026ba062c710d54913b272cd3eb309b77cbff68c42dabb8b98ba9b",
            "0xb566e82c46dc43d453be3bafdfb898f51610117a92439b0a4bf1433eac0e15dc"
          ],
          "data": "0x0000000000000000000000000000000000000000000000000000000000000001000000000000000000000000000000000000000000000000000000000000000000000000000000000000000000000000000000000000000000000000000007d000000000000000000000000000000000000000000000000000000000000009c400000000000000000000000000000000000000000000000000000000000005dc0000000000000000000000000000000000000000000000000000000000000fa00000000000000000000000000000000000000000000000000000000000000dac00000000000000000000000000000000000000000000000000000000000000000000000000000000000000000000000000000000000000000000000000000000000000000000000000000000000000000000000000000000000000000000000000000000000000000000000000000000000000000000000000000000000000000000000000000000000000000000000000000000000000000000000000000000000000000000000000000000000000000000000000000000000000000000000100000000000000000000000000000000000000000000000000000000000000010000000000000000000000000000000000000000000000000000000000000001",
          "blockHash": "0x8fb9f38b395ec1dc351de1786efaaa6e3c6e0cba18173288c7517a13e55c3552",
          "blockNumber": "0x2c3005e",
          "blockTimestamp": "0x69b0adaa",
          "transactionHash": "0xba01cc01451cb86c85f18986215e5d043b377426e7f962b4cdac95f63a42179d",
          "transactionIndex": "0x9",
          "logIndex": "0xe",
          "removed": false
        }
      ],
      "logsBloom": "0x00000000020000000000000000000000000000000000000000004000000000000000800000000000000002000000000000000000000000000000000000000000000000000000000000000000000000000000000000000000000000000000000000000000000000000000000000000000000000400008000000000000000000000000200000000000000000000000000000000000000000000000000000000000000000000000000000000000000000000000000000000000000000000000000000000000000000000000000000000000000000000000000000000000000000000040000000000000000000000000000200000000000000000000000000000000",
      "type": "0x2",
      "transactionHash": "0xba01cc01451cb86c85f18986215e5d043b377426e7f962b4cdac95f63a42179d",
      "transactionIndex": "0x9",
      "blockHash": "0x8fb9f38b395ec1dc351de1786efaaa6e3c6e0cba18173288c7517a13e55c3552",
      "blockNumber": "0x2c3005e",
      "gasUsed": "0xab0a",
      "effectiveGasPrice": "0x7a121",
      "blobGasUsed": "0xc670",
      "from": "0x4b992f2fbf714c0fcbb23bac5130ace48cad00cd",
      "to": "0x70df6c59673adaee5ac1354f1051bc6a232a3c53",
      "contractAddress": null,
      "daFootprintGasScalar": "0x190",
      "l1BaseFeeScalar": "0x7d0",
      "l1BlobBaseFee": "0x1",
      "l1BlobBaseFeeScalar": "0xdbba0",
      "l1Fee": "0x97",
      "l1GasPrice": "0x9",
      "l1GasUsed": "0x7f3"
    },
    {
      "status": "0x1",
      "cumulativeGasUsed": "0xfdb31",
      "logs": [
        {
          "address": "0xf61cd89a9e9b2b23ce0bdac6e19c3db52c56ac07",
          "topics": [
            "0xddf252ad1be2c89b69c2b068fc378daa952ba7f163c4a11628f55a4df523b3ef",
            "0x0000000000000000000000004b992f2fbf714c0fcbb23bac5130ace48cad00cd",
            "0x000000000000000000000000b4b2d15ebec35e21e2fbce3845bff476082cc628"
          ],
          "data": "0x00000000000000000000000000000000000000000000065a4da25d3016c00000",
          "blockHash": "0x8fb9f38b395ec1dc351de1786efaaa6e3c6e0cba18173288c7517a13e55c3552",
          "blockNumber": "0x2c3005e",
          "blockTimestamp": "0x69b0adaa",
          "transactionHash": "0xd23eea88410b656fd5fe88964d15e2b39338c1350eddae43ab0db16c47b0de04",
          "transactionIndex": "0xa",
          "logIndex": "0xf",
          "removed": false
        },
        {
          "address": "0xb4b2d15ebec35e21e2fbce3845bff476082cc628",
          "topics": [
            "0x82f3cd1e351c1cf149e065782737f7cd0d51ef52fdb03157f0490fc9d069ab47",
            "0x0000000000000000000000000000000000000000000000000000000000000005",
            "0x0000000000000000000000004b992f2fbf714c0fcbb23bac5130ace48cad00cd"
          ],
          "data": "0x00000000000000000000000000000000000000000000065a4da25d3016c0000000000000000000000000000000000000000000000000065a4d8f2adf2670b302",
          "blockHash": "0x8fb9f38b395ec1dc351de1786efaaa6e3c6e0cba18173288c7517a13e55c3552",
          "blockNumber": "0x2c3005e",
          "blockTimestamp": "0x69b0adaa",
          "transactionHash": "0xd23eea88410b656fd5fe88964d15e2b39338c1350eddae43ab0db16c47b0de04",
          "transactionIndex": "0xa",
          "logIndex": "0x10",
          "removed": false
        },
        {
          "address": "0x2477b8687745f494931748f5355770ba72ed3830",
          "topics": [
            "0xddf252ad1be2c89b69c2b068fc378daa952ba7f163c4a11628f55a4df523b3ef",
            "0x000000000000000000000000dd008a1209bf0400c3e7c0b5a4d23e691ee43990",
            "0x0000000000000000000000004b992f2fbf714c0fcbb23bac5130ace48cad00cd"
          ],
          "data": "0x000000000000000000000000000000000000000000000c482fb15ed470400000",
          "blockHash": "0x8fb9f38b395ec1dc351de1786efaaa6e3c6e0cba18173288c7517a13e55c3552",
          "blockNumber": "0x2c3005e",
          "blockTimestamp": "0x69b0adaa",
          "transactionHash": "0xd23eea88410b656fd5fe88964d15e2b39338c1350eddae43ab0db16c47b0de04",
          "transactionIndex": "0xa",
          "logIndex": "0x11",
          "removed": false
        },
        {
          "address": "0xf61cd89a9e9b2b23ce0bdac6e19c3db52c56ac07",
          "topics": [
            "0xddf252ad1be2c89b69c2b068fc378daa952ba7f163c4a11628f55a4df523b3ef",
            "0x000000000000000000000000dd008a1209bf0400c3e7c0b5a4d23e691ee43990",
            "0x0000000000000000000000004b992f2fbf714c0fcbb23bac5130ace48cad00cd"
          ],
          "data": "0x0000000000000000000000000000000000000000000013a6b2b564871a000000",
          "blockHash": "0x8fb9f38b395ec1dc351de1786efaaa6e3c6e0cba18173288c7517a13e55c3552",
          "blockNumber": "0x2c3005e",
          "blockTimestamp": "0x69b0adaa",
          "transactionHash": "0xd23eea88410b656fd5fe88964d15e2b39338c1350eddae43ab0db16c47b0de04",
          "transactionIndex": "0xa",
          "logIndex": "0x12",
          "removed": false
        },
        {
          "address": "0xdd008a1209bf0400c3e7c0b5a4d23e691ee43990",
          "topics": [
            "0xd9909220d3f3c7fc0f71afb6c8c3eb37b754790fe76a885e628c6dc236ea7fc2",
            "0x0000000000000000000000000000000000000000000000000000000000000005",
            "0x0000000000000000000000004b992f2fbf714c0fcbb23bac5130ace48cad00cd"
          ],
          "data": "0x000000000000000000000000000000000000000000000c482fb15ed4704000000000000000000000000000000000000000000000000013a6b2b564871a0000000000000000000000000000000000000000000000000000000000000000002d50",
          "blockHash": "0x8fb9f38b395ec1dc351de1786efaaa6e3c6e0cba18173288c7517a13e55c3552",
          "blockNumber": "0x2c3005e",
          "blockTimestamp": "0x69b0adaa",
          "transactionHash": "0xd23eea88410b656fd5fe88964d15e2b39338c1350eddae43ab0db16c47b0de04",
          "transactionIndex": "0xa",
          "logIndex": "0x13",
          "removed": false
        },
        {
          "address": "0x9148f61ad2d5cef6a7c43c6c951a816475cd1bfe",
          "topics": [
            "0x842a9eb2150814d981d53767dee1d94d199ddcc22be06a3cb6565b92b68eaf53",
            "0x0000000000000000000000000000000000000000000000000000000000000005",
            "0x0000000000000000000000004b992f2fbf714c0fcbb23bac5130ace48cad00cd"
          ],
          "data": "0x00000000000000000000000000000000000000000000065a4da25d3016c00000000000000000000000000000000000000000000000000c482fb15ed4704000000000000000000000000000000000000000000000000013a6b2b564871a0000000000000000000000000000000000000000000000000000000000000000002d500000000000000000000000000000000000000000000000000000000000000000",
          "blockHash": "0x8fb9f38b395ec1dc351de1786efaaa6e3c6e0cba18173288c7517a13e55c3552",
          "blockNumber": "0x2c3005e",
          "blockTimestamp": "0x69b0adaa",
          "transactionHash": "0xd23eea88410b656fd5fe88964d15e2b39338c1350eddae43ab0db16c47b0de04",
          "transactionIndex": "0xa",
          "logIndex": "0x14",
          "removed": false
        }
      ],
      "logsBloom": "0x00000000000000002000200000000000000000000000000000000000000000000000010000000080000000000000000000000002000000000000000000000000120010000000000000000008000020000000010000000004000100000000000000000000000000000002000000020000000080200000000000000010000000000000000000001100000800000000001000000800002000000008000200000000000004001100000000000000000800040000000000000000000000000002040000020002000020000000000000000000000000000000000000000000000000100000000000000000000000000000000200000000000000000000000000000001",
      "type": "0x2",
      "transactionHash": "0xd23eea88410b656fd5fe88964d15e2b39338c1350eddae43ab0db16c47b0de04",
      "transactionIndex": "0xa",
      "blockHash": "0x8fb9f38b395ec1dc351de1786efaaa6e3c6e0cba18173288c7517a13e55c3552",
      "blockNumber": "0x2c3005e",
      "gasUsed": "0x2ba7c",
      "effectiveGasPrice": "0x7a121",
      "blobGasUsed": "0x9c40",
      "from": "0x4b992f2fbf714c0fcbb23bac5130ace48cad00cd",
      "to": "0x9148f61ad2d5cef6a7c43c6c951a816475cd1bfe",
      "contractAddress": null,
      "daFootprintGasScalar": "0x190",
      "l1BaseFeeScalar": "0x7d0",
      "l1BlobBaseFee": "0x1",
      "l1BlobBaseFeeScalar": "0xdbba0",
      "l1Fee": "0x76",
      "l1GasPrice": "0x9",
      "l1GasUsed": "0x640"
    }
  ],
  "libraries": [],
  "pending": [],
  "returns": {},
  "timestamp": 1773186475239,
  "chain": 1301,
  "commit": "c849825"
}