{
  "transactions": [
    {
      "hash": "0x133fced0327f2dee13dc81c0eb02943efb8aa3cc0d20f040b00afa143f685f0f",
      "transactionType": "CALL",
      "contractName": null,
      "contractAddress": "0x70df6c59673adaee5ac1354f1051bc6a232a3c53",
      "function": "setPoolRiskConfig(bytes32,(bool,bool,uint16,uint16,uint16,uint16,uint16,uint16,uint16,uint16,uint16,uint32,uint24,int24,int24))",
      "arguments": [
        "0xb566e82c46dc43d453be3bafdfb898f51610117a92439b0a4bf1433eac0e15dc",
        "(true, false, 5500, 6500, 3500, 8000, 6800, 1200, 600, 800, 700, 100000, 800, 1200, 1000)"
      ],
      "transaction": {
        "from": "0x4b992f2fbf714c0fcbb23bac5130ace48cad00cd",
        "to": "0x70df6c59673adaee5ac1354f1051bc6a232a3c53",
        "gas": "0xfb1a",
        "value": "0x0",
        "input": "0x7ea66eaab566e82c46dc43d453be3bafdfb898f51610117a92439b0a4bf1433eac0e15dc00000000000000000000000000000000000000000000000000000000000000010000000000000000000000000000000000000000000000000000000000000000000000000000000000000000000000000000000000000000000000000000157c00000000000000000000000000000000000000000000000000000000000019640000000000000000000000000000000000000000000000000000000000000dac0000000000000000000000000000000000000000000000000000000000001f400000000000000000000000000000000000000000000000000000000000001a9000000000000000000000000000000000000000000000000000000000000004b00000000000000000000000000000000000000000000000000000000000000258000000000000000000000000000000000000000000000000000000000000032000000000000000000000000000000000000000000000000000000000000002bc00000000000000000000000000000000000000000000000000000000000186a0000000000000000000000000000000000000000000000000000000000000032000000000000000000000000000000000000000000000000000000000000004b000000000000000000000000000000000000000000000000000000000000003e8",
        "nonce": "0x253",
        "chainId": "0x515"
      },
      "additionalContracts": [],
      "isFixedGasLimit": false
    },
    {
      "hash": "0x8e3d7e466e77e7610f9a883271d8993ecb0ff424a6481dee13cf8f549bcb758a",
      "transactionType": "CALL",
      "contractName": null,
      "contractAddress": "0x2477b8687745f494931748f5355770ba72ed3830",
      "function": "mint(address,uint256)",
      "arguments": [
        "0x4b992F2Fbf714C0fCBb23baC5130Ace48CaD00cd",
        "600000000000000000000000"
      ],
      "transaction": {
        "from": "0x4b992f2fbf714c0fcbb23bac5130ace48cad00cd",
        "to": "0x2477b8687745f494931748f5355770ba72ed3830",
        "gas": "0xb6bd",
        "value": "0x0",
        "input": "0x40c10f190000000000000000000000004b992f2fbf714c0fcbb23bac5130ace48cad00cd000000000000000000000000000000000000000000007f0e10af47c1c7000000",
        "nonce": "0x254",
        "chainId": "0x515"
      },
      "additionalContracts": [],
      "isFixedGasLimit": false
    },
    {
      "hash": "0xca750fb088115f12c57023d02c13361a7a2a95f51357280d5c0138ce84690c1e",
      "transactionType": "CALL",
      "contractName": null,
      "contractAddress": "0xf61cd89a9e9b2b23ce0bdac6e19c3db52c56ac07",
      "function": "mint(address,uint256)",
      "arguments": [
        "0x4b992F2Fbf714C0fCBb23baC5130Ace48CaD00cd",
        "600000000000000000000000"
      ],
      "transaction": {
        "from": "0x4b992f2fbf714c0fcbb23bac5130ace48cad00cd",
        "to": "0xf61cd89a9e9b2b23ce0bdac6e19c3db52c56ac07",
        "gas": "0xb6bd",
        "value": "0x0",
        "input": "0x40c10f190000000000000000000000004b992f2fbf714c0fcbb23bac5130ace48cad00cd000000000000000000000000000000000000000000007f0e10af47c1c7000000",
        "nonce": "0x255",
        "chainId": "0x515"
      },
      "additionalContracts": [],
      "isFixedGasLimit": false
    },
    {
      "hash": "0xbe00d77d9f1c5d5608504ff52d1622adca6f1b80ac7472927cf9bbba497056bd",
      "transactionType": "CALL",
      "contractName": null,
      "contractAddress": "0x2477b8687745f494931748f5355770ba72ed3830",
      "function": "approve(address,uint256)",
      "arguments": [
        "0x3642Fa7E78acFAbf2851619AcdB92Ac560eFc746",
        "115792089237316195423570985008687907853269984665640564039457584007913129639935"
      ],
      "transaction": {
        "from": "0x4b992f2fbf714c0fcbb23bac5130ace48cad00cd",
        "to": "0x2477b8687745f494931748f5355770ba72ed3830",
        "gas": "0x8e20",
        "value": "0x0",
        "input": "0x095ea7b30000000000000000000000003642fa7e78acfabf2851619acdb92ac560efc746ffffffffffffffffffffffffffffffffffffffffffffffffffffffffffffffff",
        "nonce": "0x256",
        "chainId": "0x515"
      },
      "additionalContracts": [],
      "isFixedGasLimit": false
    },
    {
      "hash": "0xbe32caf92fa9fb9da7f8b07b8eb6d8463acf409225d565dd6889567ea8126c94",
      "transactionType": "CALL",
      "contractName": null,
      "contractAddress": "0xf61cd89a9e9b2b23ce0bdac6e19c3db52c56ac07",
      "function": "approve(address,uint256)",
      "arguments": [
        "0x3642Fa7E78acFAbf2851619AcdB92Ac560eFc746",
        "115792089237316195423570985008687907853269984665640564039457584007913129639935"
      ],
      "transaction": {
        "from": "0x4b992f2fbf714c0fcbb23bac5130ace48cad00cd",
        "to": "0xf61cd89a9e9b2b23ce0bdac6e19c3db52c56ac07",
        "gas": "0x8e20",
        "value": "0x0",
        "input": "0x095ea7b30000000000000000000000003642fa7e78acfabf2851619acdb92ac560efc746ffffffffffffffffffffffffffffffffffffffffffffffffffffffffffffffff",
        "nonce": "0x257",
        "chainId": "0x515"
      },
      "additionalContracts": [],
      "isFixedGasLimit": false
    },
    {
      "hash": "0xe54b86acbb5d7f66de79af8e809b813b1bfd17f44808737bfed326f0158f1b6a",
      "transactionType": "CALL",
      "contractName": null,
      "contractAddress": "0xf61cd89a9e9b2b23ce0bdac6e19c3db52c56ac07",
      "function": "approve(address,uint256)",
      "arguments": [
        "0xB4b2d15eBEC35e21E2FbCe3845Bff476082CC628",
        "115792089237316195423570985008687907853269984665640564039457584007913129639935"
      ],
      "transaction": {
        "from": "0x4b992f2fbf714c0fcbb23bac5130ace48cad00cd",
        "to": "0xf61cd89a9e9b2b23ce0bdac6e19c3db52c56ac07",
        "gas": "0x8e20",
        "value": "0x0",
        "input": "0x095ea7b3000000000000000000000000b4b2d15ebec35e21e2fbce3845bff476082cc628ffffffffffffffffffffffffffffffffffffffffffffffffffffffffffffffff",
        "nonce": "0x258",
        "chainId": "0x515"
      },
      "additionalContracts": [],
      "isFixedGasLimit": false
    },
    {
      "hash": "0x87b475c46ac8234e11ac2ea94cbd5474df715da2c8badec4ac740046d3418410",
      "transactionType": "CALL",
      "contractName": null,
      "contractAddress": "0x3642fa7e78acfabf2851619acdb92ac560efc746",
      "function": "openBorrowAndReinvest(((address,address,uint24,int24,address),int24,int24,uint128,uint256,uint256,uint256,uint128,uint256))",
      "arguments": [
        "((0x2477B8687745f494931748F5355770BA72ED3830, 0xf61cD89a9E9b2B23Ce0bDac6E19C3DB52c56AC07, 3000, 60, 0x2d2A64DcD864Ba1C83dd634a8C19C4f695db10C0), -900, 900, 100000, 100000000000000000000000, 100000000000000000000000, 40000000000000000000000, 15000, 1000000000000000000)"
      ],
      "transaction": {
        "from": "0x4b992f2fbf714c0fcbb23bac5130ace48cad00cd",
        "to": "0x3642fa7e78acfabf2851619acdb92ac560efc746",
        "gas": "0x8e822",
        "value": "0x0",
        "input": "0x00cb58390000000000000000000000002477b8687745f494931748f5355770ba72ed3830000000000000000000000000f61cd89a9e9b2b23ce0bdac6e19c3db52c56ac070000000000000000000000000000000000000000000000000000000000000bb8000000000000000000000000000000000000000000000000000000000000003c0000000000000000000000002d2a64dcd864ba1c83dd634a8c19c4f695db10c0fffffffffffffffffffffffffffffffffffffffffffffffffffffffffffffc7c000000000000000000000000000000000000000000000000000000000000038400000000000000000000000000000000000000000000000000000000000186a000000000000000000000000000000000000000000000152d02c7e14af680000000000000000000000000000000000000000000000000152d02c7e14af6800000000000000000000000000000000000000000000000000878678326eac90000000000000000000000000000000000000000000000000000000000000000003a980000000000000000000000000000000000000000000000000de0b6b3a7640000",
        "nonce": "0x259",
        "chainId": "0x515"
      },
      "additionalContracts": [],
      "isFixedGasLimit": false
    },
    {
      "hash": "0x273e0df4a184e4795d784de7c52b64da4ccfe2c5ee535a78aaeaa9c748f01f84",
      "transactionType": "CALL",
      "contractName": null,
      "contractAddress": "0x3642fa7e78acfabf2851619acdb92ac560efc746",
      "function": "repayAndUnwind(uint256,uint256,uint256,uint256,uint128)",
      "arguments": [
        "3",
        "20000000000000000000000",
        "5000000000000000000000",
        "5000000000000000000000",
        "1000"
      ],
      "transaction": {
        "from": "0x4b992f2fbf714c0fcbb23bac5130ace48cad00cd",
        "to": "0x3642fa7e78acfabf2851619acdb92ac560efc746",
        "gas": "0x36a75",
        "value": "0x0",
        "input": "0xc22550b2000000000000000000000000000000000000000000000000000000000000000300000000000000000000000000000000000000000000043c33c193756480000000000000000000000000000000000000000000000000010f0cf064dd5920000000000000000000000000000000000000000000000000010f0cf064dd5920000000000000000000000000000000000000000000000000000000000000000003e8",
        "nonce": "0x25a",
        "chainId": "0x515"
      },
      "additionalContracts": [],
      "isFixedGasLimit": false
    },
    {
      "hash": "0x0b4dda5685e751d26d0911a4e08944792caa07b22e8f4d4288c7f1f17f7be9b8",
      "transactionType": "CALL",
      "contractName": null,
      "contractAddress": "0x3642fa7e78acfabf2851619acdb92ac560efc746",
      "function": "repayAllAndWithdraw(uint256)",
      "arguments": [
        "3"
      ],
      "transaction": {
        "from": "0x4b992f2fbf714c0fcbb23bac5130ace48cad00cd",
        "to": "0x3642fa7e78acfabf2851619acdb92ac560efc746",
        "gas": "0x2943c",
        "value": "0x0",
        "input": "0x39b5bccc0000000000000000000000000000000000000000000000000000000000000003",
        "nonce": "0x25b",
        "chainId": "0x515"
      },
      "additionalContracts": [],
      "isFixedGasLimit": false
    }
  ],
  "receipts": [
    {
      "status": "0x1",
      "cumulativeGasUsed": "0x8e666",
      "logs": [
        {
          "address": "0x70df6c59673adaee5ac1354f1051bc6a232a3c53",
          "topics": [
            "0x98e2a16c41026ba062c710d54913b272cd3eb309b77cbff68c42dabb8b98ba9b",
            "0xb566e82c46dc43d453be3bafdfb898f51610117a92439b0a4bf1433eac0e15dc"
          ],
          "data": "0x00000000000000000000000000000000000000000000000000000000000000010000000000000000000000000000000000000000000000000000000000000000000000000000000000000000000000000000000000000000000000000000157c00000000000000000000000000000000000000000000000000000000000019640000000000000000000000000000000000000000000000000000000000000dac0000000000000000000000000000000000000000000000000000000000001f400000000000000000000000000000000000000000000000000000000000001a9000000000000000000000000000000000000000000000000000000000000004b00000000000000000000000000000000000000000000000000000000000000258000000000000000000000000000000000000000000000000000000000000032000000000000000000000000000000000000000000000000000000000000002bc00000000000000000000000000000000000000000000000000000000000186a0000000000000000000000000000000000000000000000000000000000000032000000000000000000000000000000000000000000000000000000000000004b000000000000000000000000000000000000000000000000000000000000003e8",
          "blockHash": "0xf11bddb8e34516076ca1a480261cb3d1fc6816a2955dbeb31c1617af9ba6826c",
          "blockNumber": "0x2c30041",
          "blockTimestamp": "0x69b0ad8d",
          "transactionHash": "0x133fced0327f2dee13dc81c0eb02943efb8aa3cc0d20f040b00afa143f685f0f",
          "transactionIndex": "0x7",
          "logIndex": "0x5",
          "removed": false
        }
      ],
      "logsBloom": "0x00000000020000000000000000000000000000000000000000004000000000000000800000000000000002000000000000000000000000000000000000000000000000000000000000000000000000000000000000000000000000000000000000000000000000000000000000000000000000400008000000000000000000000000200000000000000000000000000000000000000000000000000000000000000000000000000000000000000000000000000000000000000000000000000000000000000000000000000000000000000000000000000000000000000000000040000000000000000000000000000200000000000000000000000000000000",
      "type": "0x2",
      "transactionHash": "0x133fced0327f2dee13dc81c0eb02943efb8aa3cc0d20f040b00afa143f685f0f",
      "transactionIndex": "0x7",
      "blockHash": "0xf11bddb8e34516076ca1a480261cb3d1fc6816a2955dbeb31c1617af9ba6826c",
      "blockNumber": "0x2c30041",
      "gasUsed": "0xabb2",
      "effectiveGasPrice": "0x7a121",
      "blobGasUsed": "0xef10",
      "from": "0x4b992f2fbf714c0fcbb23bac5130ace48cad00cd",
      "to": "0x70df6c59673adaee5ac1354f1051bc6a232a3c53",
      "contractAddress": null,
      "daFootprintGasScalar": "0x190",
      "l1BaseFeeScalar": "0x7d0",
      "l1BlobBaseFee": "0x1",
      "l1BlobBaseFeeScalar": "0xdbba0",
      "l1Fee": "0xb5",
      "l1GasPrice": "0x9",
      "l1GasUsed": "0x992"
    },
    {
      "status": "0x1",
      "cumulativeGasUsed": "0x96ab4",
      "logs": [
        {
          "address": "0x2477b8687745f494931748f5355770ba72ed3830",
          "topics": [
            "0xddf252ad1be2c89b69c2b068fc378daa952ba7f163c4a11628f55a4df523b3ef",
            "0x0000000000000000000000000000000000000000000000000000000000000000",
            "0x0000000000000000000000004b992f2fbf714c0fcbb23bac5130ace48cad00cd"
          ],
          "data": "0x000000000000000000000000000000000000000000007f0e10af47c1c7000000",
          "blockHash": "0xf11bddb8e34516076ca1a480261cb3d1fc6816a2955dbeb31c1617af9ba6826c",
          "blockNumber": "0x2c30041",
          "blockTimestamp": "0x69b0ad8d",
          "transactionHash": "0x8e3d7e466e77e7610f9a883271d8993ecb0ff424a6481dee13cf8f549bcb758a",
          "transactionIndex": "0x8",
          "logIndex": "0x6",
          "removed": false
        }
      ],
      "logsBloom": "0x00000000000000000000000000000000000000000000000000000000000000000000000000000000000000000000000000000002000000000000000000000000000000000000000000000008000000000000000000000000000100000000000000000000020000000000000000020800000000000000000000000010000000000000000000001000000000000000000000000000000000000000000000000000000000001000000000000000000000000000000000000000000000000002000000000002000000000000000000000000000000000000000000000000000020000000000000000000000000000000000000000000000000000000000000000000",
      "type": "0x2",
      "transactionHash": "0x8e3d7e466e77e7610f9a883271d8993ecb0ff424a6481dee13cf8f549bcb758a",
      "transactionIndex": "0x8",
      "blockHash": "0xf11bddb8e34516076ca1a480261cb3d1fc6816a2955dbeb31c1617af9ba6826c",
      "blockNumber": "0x2c30041",
      "gasUsed": "0x844e",
      "effectiveGasPrice": "0x7a121",
      "blobGasUsed": "0x9c40",
      "from": "0x4b992f2fbf714c0fcbb23bac5130ace48cad00cd",
      "to": "0x2477b8687745f494931748f5355770ba72ed3830",
      "contractAddress": null,
      "daFootprintGasScalar": "0x190",
      "l1BaseFeeScalar": "0x7d0",
      "l1BlobBaseFee": "0x1",
      "l1BlobBaseFeeScalar": "0xdbba0",
      "l1Fee": "0x76",
      "l1GasPrice": "0x9",
      "l1GasUsed": "0x640"
    },
    {
      "status": "0x1",
      "cumulativeGasUsed": "0x9ef02",
      "logs": [
        {
          "address": "0xf61cd89a9e9b2b23ce0bdac6e19c3db52c56ac07",
          "topics": [
            "0xddf252ad1be2c89b69c2b068fc378daa952ba7f163c4a11628f55a4df523b3ef",
            "0x0000000000000000000000000000000000000000000000000000000000000000",
            "0x0000000000000000000000004b992f2fbf714c0fcbb23bac5130ace48cad00cd"
          ],
          "data": "0x000000000000000000000000000000000000000000007f0e10af47c1c7000000",
          "blockHash": "0xf11bddb8e34516076ca1a480261cb3d1fc6816a2955dbeb31c1617af9ba6826c",
          "blockNumber": "0x2c30041",
          "blockTimestamp": "0x69b0ad8d",
          "transactionHash": "0xca750fb088115f12c57023d02c13361a7a2a95f51357280d5c0138ce84690c1e",
          "transactionIndex": "0x9",
          "logIndex": "0x7",
          "removed": false
        }
      ],
      "logsBloom": "0x00000000000000000000000000000000000000000000000000000000000000000000010000000000000000000000000000000002000000000000000000000000000000000000000000000008000000000000000000000000000100000000000000000000020000000000000000020800000000000000000000000010000000000000000000000000000800000000000000000000000000000000000000000000000000000000000000000000000000040000000000000000000000000000000000000002000000000000000000000000000000000000000000000000000020000000000000000000000000000000000000000000000000000000000000000000",
      "type": "0x2",
      "transactionHash": "0xca750fb088115f12c57023d02c13361a7a2a95f51357280d5c0138ce84690c1e",
      "transactionIndex": "0x9",
      "blockHash": "0xf11bddb8e34516076ca1a480261cb3d1fc6816a2955dbeb31c1617af9ba6826c",
      "blockNumber": "0x2c30041",
      "gasUsed": "0x844e",
      "effectiveGasPrice": "0x7a121",
      "blobGasUsed": "0x9c40",
      "from": "0x4b992f2fbf714c0fcbb23bac5130ace48cad00cd",
      "to": "0xf61cd89a9e9b2b23ce0bdac6e19c3db52c56ac07",
      "contractAddress": null,
      "daFootprintGasScalar": "0x190",
      "l1BaseFeeScalar": "0x7d0",
      "l1BlobBaseFee": "0x1",
      "l1BlobBaseFeeScalar": "0xdbba0",
      "l1Fee": "0x76",
      "l1GasPrice": "0x9",
      "l1GasUsed": "0x640"
    },
    {
      "status": "0x1",
      "cumulativeGasUsed": "0xa55e8",
      "logs": [
        {
          "address": "0x2477b8687745f494931748f5355770ba72ed3830",
          "topics": [
            "0x8c5be1e5ebec7d5bd14f71427d1e84f3dd0314c0f7b2291e5b200ac8c7c3b925",
            "0x0000000000000000000000004b992f2fbf714c0fcbb23bac5130ace48cad00cd",
            "0x0000000000000000000000003642fa7e78acfabf2851619acdb92ac560efc746"
          ],
          "data": "0xffffffffffffffffffffffffffffffffffffffffffffffffffffffffffffffff",
          "blockHash": "0xf11bddb8e34516076ca1a480261cb3d1fc6816a2955dbeb31c1617af9ba6826c",
          "blockNumber": "0x2c30041",
          "blockTimestamp": "0x69b0ad8d",
          "transactionHash": "0xbe00d77d9f1c5d5608504ff52d1622adca6f1b80ac7472927cf9bbba497056bd",
          "transactionIndex": "0xa",
          "logIndex": "0x8",
          "removed": false
        }
      ],
      "logsBloom": "0x00000000000000000000000000000000000000000000000000000000000000000000000000000000000000000000000000000002000000000000000000200000000000000000000000000000000000000000000000000000000100000000002000000000001000000000000000020000000000000000000000000000000000000000000000001000000000000000000000000000000000000000000000000000020000001000000000000000000000000000000000000000000000000002000000000000000000000000000000000000000000000000000000000000000000000010000000000000000000000000000010000000000000000000000000000000",
      "type": "0x2",
      "transactionHash": "0xbe00d77d9f1c5d5608504ff52d1622adca6f1b80ac7472927cf9bbba497056bd",
      "transactionIndex": "0xa",
      "blockHash": "0xf11bddb8e34516076ca1a480261cb3d1fc6816a2955dbeb31c1617af9ba6826c",
      "blockNumber": "0x2c30041",
      "gasUsed": "0x66e6",
      "effectiveGasPrice": "0x7a121",
      "blobGasUsed": "0x9c40",
      "from": "0x4b992f2fbf714c0fcbb23bac5130ace48cad00cd",
      "to": "0x2477b8687745f494931748f5355770ba72ed3830",
      "contractAddress": null,
      "daFootprintGasScalar": "0x190",
      "l1BaseFeeScalar": "0x7d0",
      "l1BlobBaseFee": "0x1",
      "l1BlobBaseFeeScalar": "0xdbba0",
      "l1Fee": "0x76",
      "l1GasPrice": "0x9",
      "l1GasUsed": "0x640"
    },
    {
      "status": "0x1",
      "cumulativeGasUsed": "0xabcce",
      "logs": [
        {
          "address": "0xf61cd89a9e9b2b23ce0bdac6e19c3db52c56ac07",
          "topics": [
            "0x8c5be1e5ebec7d5bd14f71427d1e84f3dd0314c0f7b2291e5b200ac8c7c3b925",
            "0x0000000000000000000000004b992f2fbf714c0fcbb23bac5130ace48cad00cd",
            "0x0000000000000000000000003642fa7e78acfabf2851619acdb92ac560efc746"
          ],
          "data": "0xffffffffffffffffffffffffffffffffffffffffffffffffffffffffffffffff",
          "blockHash": "0xf11bddb8e34516076ca1a480261cb3d1fc6816a2955dbeb31c1617af9ba6826c",
          "blockNumber": "0x2c30041",
          "blockTimestamp": "0x69b0ad8d",
          "transactionHash": "0xbe32caf92fa9fb9da7f8b07b8eb6d8463acf409225d565dd6889567ea8126c94",
          "transactionIndex": "0xb",
          "logIndex": "0x9",
          "removed": false
        }
      ],
      "logsBloom": "0x00000000000000000000000000000000000000000000000000000000000000000000010000000000000000000000000000000002000000000000000000200000000000000000000000000000000000000000000000000000000100000000002000000000001000000000000000020000000000000000000000000000000000000000000000000000000800000000000000000000000000000000000000000000020000000000000000000000000000040000000000000000000000000000000000000000000000000000000000000000000000000000000000000000000000000010000000000000000000000000000010000000000000000000000000000000",
      "type": "0x2",
      "transactionHash": "0xbe32caf92fa9fb9da7f8b07b8eb6d8463acf409225d565dd6889567ea8126c94",
      "transactionIndex": "0xb",
      "blockHash": "0xf11bddb8e34516076ca1a480261cb3d1fc6816a2955dbeb31c1617af9ba6826c",
      "blockNumber": "0x2c30041",
      "gasUsed": "0x66e6",
      "effectiveGasPrice": "0x7a121",
      "blobGasUsed": "0x9c40",
      "from": "0x4b992f2fbf714c0fcbb23bac5130ace48cad00cd",
      "to": "0xf61cd89a9e9b2b23ce0bdac6e19c3db52c56ac07",
      "contractAddress": null,
      "daFootprintGasScalar": "0x190",
      "l1BaseFeeScalar": "0x7d0",
      "l1BlobBaseFee": "0x1",
      "l1BlobBaseFeeScalar": "0xdbba0",
      "l1Fee": "0x76",
      "l1GasPrice": "0x9",
      "l1GasUsed": "0x640"
    },
    {
      "status": "0x1",
      "cumulativeGasUsed": "0xb23b4",
      "logs": [
        {
          "address": "0xf61cd89a9e9b2b23ce0bdac6e19c3db52c56ac07",
          "topics": [
            "0x8c5be1e5ebec7d5bd14f71427d1e84f3dd0314c0f7b2291e5b200ac8c7c3b925",
            "0x0000000000000000000000004b992f2fbf714c0fcbb23bac5130ace48cad00cd",
            "0x000000000000000000000000b4b2d15ebec35e21e2fbce3845bff476082cc628"
          ],
          "data": "0xffffffffffffffffffffffffffffffffffffffffffffffffffffffffffffffff",
          "blockHash": "0xf11bddb8e34516076ca1a480261cb3d1fc6816a2955dbeb31c1617af9ba6826c",
          "blockNumber": "0x2c30041",
          "blockTimestamp": "0x69b0ad8d",
          "transactionHash": "0xe54b86acbb5d7f66de79af8e809b813b1bfd17f44808737bfed326f0158f1b6a",
          "transactionIndex": "0xc",
          "logIndex": "0xa",
          "removed": false
        }
      ],
      "logsBloom": "0x00000000000000000000000000000000000000000000000000000000000000000000010000000000000000000000000000000002000000000000000000200000000000000000000000000000000000000000000000000000000100000000000000000000000000000000000000020000000000000000000000000000000000000000000000000000000800000000000000000000000000000008000000000000020004000100000000000000000000040000000000000000000000000000000000000000000000000000000000000000000000000000000000000000000000000010000000000000000000000000000000000000000000000000000000000000",
      "type": "0x2",
      "transactionHash": "0xe54b86acbb5d7f66de79af8e809b813b1bfd17f44808737bfed326f0158f1b6a",
      "transactionIndex": "0xc",
      "blockHash": "0xf11bddb8e34516076ca1a480261cb3d1fc6816a2955dbeb31c1617af9ba6826c",
      "blockNumber": "0x2c30041",
      "gasUsed": "0x66e6",
      "effectiveGasPrice": "0x7a121",
      "blobGasUsed": "0x9c40",
      "from": "0x4b992f2fbf714c0fcbb23bac5130ace48cad00cd",
      "to": "0xf61cd89a9e9b2b23ce0bdac6e19c3db52c56ac07",
      "contractAddress": null,
      "daFootprintGasScalar": "0x190",
      "l1BaseFeeScalar": "0x7d0",
      "l1BlobBaseFee": "0x1",
      "l1BlobBaseFeeScalar": "0xdbba0",
      "l1Fee": "0x76",
      "l1GasPrice": "0x9",
      "l1GasUsed": "0x640"
    },
    {
      "status": "0x1",
      "cumulativeGasUsed": "0x113ac5",
      "logs": [
        {
          "address": "0x2477b8687745f494931748f5355770ba72ed3830",
          "topics": [
            "0xddf252ad1be2c89b69c2b068fc378daa952ba7f163c4a11628f55a4df523b3ef",
            "0x0000000000000000000000004b992f2fbf714c0fcbb23bac5130ace48cad00cd",
            "0x000000000000000000000000dd008a1209bf0400c3e7c0b5a4d23e691ee43990"
          ],
          "data": "0x00000000000000000000000000000000000000000000152d02c7e14af6800000",
          "blockHash": "0xf11bddb8e34516076ca1a480261cb3d1fc6816a2955dbeb31c1617af9ba6826c",
          "blockNumber": "0x2c30041",
          "blockTimestamp": "0x69b0ad8d",
          "transactionHash": "0x87b475c46ac8234e11ac2ea94cbd5474df715da2c8badec4ac740046d3418410",
          "transactionIndex": "0xd",
          "logIndex": "0xb",
          "removed": false
        },
        {
          "address": "0xf61cd89a9e9b2b23ce0bdac6e19c3db52c56ac07",
          "topics": [
            "0xddf252ad1be2c89b69c2b068fc378daa952ba7f163c4a11628f55a4df523b3ef",
            "0x0000000000000000000000004b992f2fbf714c0fcbb23bac5130ace48cad00cd",
            "0x000000000000000000000000dd008a1209bf0400c3e7c0b5a4d23e691ee43990"
          ],
          "data": "0x00000000000000000000000000000000000000000000152d02c7e14af6800000",
          "blockHash": "0xf11bddb8e34516076ca1a480261cb3d1fc6816a2955dbeb31c1617af9ba6826c",
          "blockNumber": "0x2c30041",
          "blockTimestamp": "0x69b0ad8d",
          "transactionHash": "0x87b475c46ac8234e11ac2ea94cbd5474df715da2c8badec4ac740046d3418410",
          "transactionIndex": "0xd",
          "logIndex": "0xc",
          "removed": false
        },
        {
          "address": "0xdd008a1209bf0400c3e7c0b5a4d23e691ee43990",
          "topics": [
            "0xda5bbcbf3f936186623513e9d6174902ea63913ab38d428da5a3681beb66bf40",
            "0x0000000000000000000000000000000000000000000000000000000000000003",
            "0x0000000000000000000000004b992f2fbf714c0fcbb23bac5130ace48cad00cd",
            "0xb566e82c46dc43d453be3bafdfb898f51610117a92439b0a4bf1433eac0e15dc"
          ],
          "data": "0x00000000000000000000000000000000000000000000152d02c7e14af680000000000000000000000000000000000000000000000000152d02c7e14af680000000000000000000000000000000000000000000000000000000000000000186a0",
          "blockHash": "0xf11bddb8e34516076ca1a480261cb3d1fc6816a2955dbeb31c1617af9ba6826c",
          "blockNumber": "0x2c30041",
          "blockTimestamp": "0x69b0ad8d",
          "transactionHash": "0x87b475c46ac8234e11ac2ea94cbd5474df715da2c8badec4ac740046d3418410",
          "transactionIndex": "0xd",
          "logIndex": "0xd",
          "removed": false
        },
        {
          "address": "0xb4b2d15ebec35e21e2fbce3845bff476082cc628",
          "topics": [
            "0xe3972ae250606e82c6683843383cb8a51755588d2f443af42e8cb5b1e085392d"
          ],
          "data": "0x0000000000000000000000000000000000000000033b2e3cb6b29a6758e0e5a20000000000000000000000000000000000000000033b2e4411482aa178b625e1000000000000000000000000000000000000000000000000000e754faba64a2f00000000000000000000000000000000000000000000000000017221912a3a9e",
          "blockHash": "0xf11bddb8e34516076ca1a480261cb3d1fc6816a2955dbeb31c1617af9ba6826c",
          "blockNumber": "0x2c30041",
          "blockTimestamp": "0x69b0ad8d",
          "transactionHash": "0x87b475c46ac8234e11ac2ea94cbd5474df715da2c8badec4ac740046d3418410",
          "transactionIndex": "0xd",
          "logIndex": "0xe",
          "removed": false
        },
        {
          "address": "0xf61cd89a9e9b2b23ce0bdac6e19c3db52c56ac07",
          "topics": [
            "0xddf252ad1be2c89b69c2b068fc378daa952ba7f163c4a11628f55a4df523b3ef",
            "0x000000000000000000000000b4b2d15ebec35e21e2fbce3845bff476082cc628",
            "0x000000000000000000000000dd008a1209bf0400c3e7c0b5a4d23e691ee43990"
          ],
          "data": "0x000000000000000000000000000000000000000000000878678326eac9000000",
          "blockHash": "0xf11bddb8e34516076ca1a480261cb3d1fc6816a2955dbeb31c1617af9ba6826c",
          "blockNumber": "0x2c30041",
          "blockTimestamp": "0x69b0ad8d",
          "transactionHash": "0x87b475c46ac8234e11ac2ea94cbd5474df715da2c8badec4ac740046d3418410",
          "transactionIndex": "0xd",
          "logIndex": "0xf",
          "removed": false
        },
        {
          "address": "0xb4b2d15ebec35e21e2fbce3845bff476082cc628",
          "topics": [
            "0xf757d05eea809fa4e0cb84c028b2e1f0e6387cc1fddf8c4ef6751e3a0ed69a71",
            "0x0000000000000000000000000000000000000000000000000000000000000003",
            "0x000000000000000000000000dd008a1209bf0400c3e7c0b5a4d23e691ee43990"
          ],
          "data": "0x000000000000000000000000000000000000000000000878678326eac9000000000000000000000000000000000000000000000000000878676fa3d967c4ed7e",
          "blockHash": "0xf11bddb8e34516076ca1a480261cb3d1fc6816a2955dbeb31c1617af9ba6826c",
          "blockNumber": "0x2c30041",
          "blockTimestamp": "0x69b0ad8d",
          "transactionHash": "0x87b475c46ac8234e11ac2ea94cbd5474df715da2c8badec4ac740046d3418410",
          "transactionIndex": "0xd",
          "logIndex": "0x10",
          "removed": false
        },
        {
          "address": "0xdd008a1209bf0400c3e7c0b5a4d23e691ee43990",
          "topics": [
            "0xd55b73c5d25b64a50c7e028ddac7cb0e47c922911cc59be371745474e6733899",
            "0x0000000000000000000000000000000000000000000000000000000000000003"
          ],
          "data": "0x00000000000000000000000000000000000000000000152d02c7e14af6800000000000000000000000000000000000000000000000001da56a4b0835bf80000000000000000000000000000000000000000000000000000000000000000186a00000000000000000000000000000000000000000000000000000000000003a98",
          "blockHash": "0xf11bddb8e34516076ca1a480261cb3d1fc6816a2955dbeb31c1617af9ba6826c",
          "blockNumber": "0x2c30041",
          "blockTimestamp": "0x69b0ad8d",
          "transactionHash": "0x87b475c46ac8234e11ac2ea94cbd5474df715da2c8badec4ac740046d3418410",
          "transactionIndex": "0xd",
          "logIndex": "0x11",
          "removed": false
        },
        {
          "address": "0x3642fa7e78acfabf2851619acdb92ac560efc746",
          "topics": [
            "0xce95f1d5bc4fd4061928be3b668973283b0d4e2c4622beb1cfc7e83a12dfd327",
            "0x0000000000000000000000000000000000000000000000000000000000000003",
            "0x0000000000000000000000004b992f2fbf714c0fcbb23bac5130ace48cad00cd",
            "0xb566e82c46dc43d453be3bafdfb898f51610117a92439b0a4bf1433eac0e15dc"
          ],
          "data": "0x00000000000000000000000000000000000000000000152d02c7e14af680000000000000000000000000000000000000000000000000152d02c7e14af6800000000000000000000000000000000000000000000000000878678326eac90000000000000000000000000000000000000000000000000000000000000000003a9800000000000000000000000000000000000000000000000027c0649faea10000",
          "blockHash": "0xf11bddb8e34516076ca1a480261cb3d1fc6816a2955dbeb31c1617af9ba6826c",
          "blockNumber": "0x2c30041",
          "blockTimestamp": "0x69b0ad8d",
          "transactionHash": "0x87b475c46ac8234e11ac2ea94cbd5474df715da2c8badec4ac740046d3418410",
          "transactionIndex": "0xd",
          "logIndex": "0x12",
          "removed": false
        }
      ],
      "logsBloom": "0x00000000020000002002000000000000000000000000000000004000000000000000010000000000000000000010000000000002020000000000000000080800120000000000000000000008100820000000000000008000000100000000100000000000000000000000000000020000000082000008000000000010000080000000000000001100000800100000000000020000002000000108000200000000000004001100000000000000000000040000000000800008000010000002400000020002000000000000000008000000000000000000000000000000040000000000000000000000000000000000000000000000000000000800000000000000",
      "type": "0x2",
      "transactionHash": "0x87b475c46ac8234e11ac2ea94cbd5474df715da2c8badec4ac740046d3418410",
      "transactionIndex": "0xd",
      "blockHash": "0xf11bddb8e34516076ca1a480261cb3d1fc6816a2955dbeb31c1617af9ba6826c",
      "blockNumber": "0x2c30041",
      "gasUsed": "0x61711",
      "effectiveGasPrice": "0x7a121",
      "blobGasUsed": "0x13240",
      "from": "0x4b992f2fbf714c0fcbb23bac5130ace48cad00cd",
      "to": "0x3642fa7e78acfabf2851619acdb92ac560efc746",
      "contractAddress": null,
      "daFootprintGasScalar": "0x190",
      "l1BaseFeeScalar": "0x7d0",
      "l1BlobBaseFee": "0x1",
      "l1BlobBaseFeeScalar": "0xdbba0",
      "l1Fee": "0xe9",
      "l1GasPrice": "0x9",
      "l1GasUsed": "0xc4a"
    },
    {
      "status": "0x1",
      "cumulativeGasUsed": "0x54ffc",
      "logs": [
        {
          "address": "0xb4b2d15ebec35e21e2fbce3845bff476082cc628",
          "topics": [
            "0xe3972ae250606e82c6683843383cb8a51755588d2f443af42e8cb5b1e085392d"
          ],
          "data": "0x0000000000000000000000000000000000000000033b2e4411482aa178b625e10000000000000000000000000000000000000000033b2e44290b94c93557040200000000000000000000000000000000000000000000000000006d03c8c756ef00000000000000000000000000000000000000000000000000000ae6c747224b",
          "blockHash": "0xc8c1a0c7885a9a3b116417e9fb4a9e014678f8200ada003506618138c5fc168c",
          "blockNumber": "0x2c30042",
          "blockTimestamp": "0x69b0ad8e",
          "transactionHash": "0x273e0df4a184e4795d784de7c52b64da4ccfe2c5ee535a78aaeaa9c748f01f84",
          "transactionIndex": "0x3",
          "logIndex": "0x1",
          "removed": false
        },
        {
          "address": "0xf61cd89a9e9b2b23ce0bdac6e19c3db52c56ac07",
          "topics": [
            "0xddf252ad1be2c89b69c2b068fc378daa952ba7f163c4a11628f55a4df523b3ef",
            "0x0000000000000000000000004b992f2fbf714c0fcbb23bac5130ace48cad00cd",
            "0x000000000000000000000000b4b2d15ebec35e21e2fbce3845bff476082cc628"
          ],
          "data": "0x00000000000000000000000000000000000000000000043c33c1937564800000",
          "blockHash": "0xc8c1a0c7885a9a3b116417e9fb4a9e014678f8200ada003506618138c5fc168c",
          "blockNumber": "0x2c30042",
          "blockTimestamp": "0x69b0ad8e",
          "transactionHash": "0x273e0df4a184e4795d784de7c52b64da4ccfe2c5ee535a78aaeaa9c748f01f84",
          "transactionIndex": "0x3",
          "logIndex": "0x2",
          "removed": false
        },
        {
          "address": "0xb4b2d15ebec35e21e2fbce3845bff476082cc628",
          "topics": [
            "0x82f3cd1e351c1cf149e065782737f7cd0d51ef52fdb03157f0490fc9d069ab47",
            "0x0000000000000000000000000000000000000000000000000000000000000003",
            "0x0000000000000000000000004b992f2fbf714c0fcbb23bac5130ace48cad00cd"
          ],
          "data": "0x00000000000000000000000000000000000000000000043c33c193756480000000000000000000000000000000000000000000000000043c33b7b2c70d35d828",
          "blockHash": "0xc8c1a0c7885a9a3b116417e9fb4a9e014678f8200ada003506618138c5fc168c",
          "blockNumber": "0x2c30042",
          "blockTimestamp": "0x69b0ad8e",
          "transactionHash": "0x273e0df4a184e4795d784de7c52b64da4ccfe2c5ee535a78aaeaa9c748f01f84",
          "transactionIndex": "0x3",
          "logIndex": "0x3",
          "removed": false
        },
        {
          "address": "0x2477b8687745f494931748f5355770ba72ed3830",
          "topics": [
            "0xddf252ad1be2c89b69c2b068fc378daa952ba7f163c4a11628f55a4df523b3ef",
            "0x000000000000000000000000dd008a1209bf0400c3e7c0b5a4d23e691ee43990",
            "0x0000000000000000000000004b992f2fbf714c0fcbb23bac5130ace48cad00cd"
          ],
          "data": "0x00000000000000000000000000000000000000000000010f0cf064dd59200000",
          "blockHash": "0xc8c1a0c7885a9a3b116417e9fb4a9e014678f8200ada003506618138c5fc168c",
          "blockNumber": "0x2c30042",
          "blockTimestamp": "0x69b0ad8e",
          "transactionHash": "0x273e0df4a184e4795d784de7c52b64da4ccfe2c5ee535a78aaeaa9c748f01f84",
          "transactionIndex": "0x3",
          "logIndex": "0x4",
          "removed": false
        },
        {
          "address": "0xf61cd89a9e9b2b23ce0bdac6e19c3db52c56ac07",
          "topics": [
            "0xddf252ad1be2c89b69c2b068fc378daa952ba7f163c4a11628f55a4df523b3ef",
            "0x000000000000000000000000dd008a1209bf0400c3e7c0b5a4d23e691ee43990",
            "0x0000000000000000000000004b992f2fbf714c0fcbb23bac5130ace48cad00cd"
          ],
          "data": "0x00000000000000000000000000000000000000000000010f0cf064dd59200000",
          "blockHash": "0xc8c1a0c7885a9a3b116417e9fb4a9e014678f8200ada003506618138c5fc168c",
          "blockNumber": "0x2c30042",
          "blockTimestamp": "0x69b0ad8e",
          "transactionHash": "0x273e0df4a184e4795d784de7c52b64da4ccfe2c5ee535a78aaeaa9c748f01f84",
          "transactionIndex": "0x3",
          "logIndex": "0x5",
          "removed": false
        },
        {
          "address": "0xdd008a1209bf0400c3e7c0b5a4d23e691ee43990",
          "topics": [
            "0xd55b73c5d25b64a50c7e028ddac7cb0e47c922911cc59be371745474e6733899",
            "0x0000000000000000000000000000000000000000000000000000000000000003"
          ],
          "data": "0x00000000000000000000000000000000000000000000141df5d77c6d9d600000000000000000000000000000000000000000000000001c965d5aa3586660000000000000000000000000000000000000000000000000000000000000000186a000000000000000000000000000000000000000000000000000000000000036b0",
          "blockHash": "0xc8c1a0c7885a9a3b116417e9fb4a9e014678f8200ada003506618138c5fc168c",
          "blockNumber": "0x2c30042",
          "blockTimestamp": "0x69b0ad8e",
          "transactionHash": "0x273e0df4a184e4795d784de7c52b64da4ccfe2c5ee535a78aaeaa9c748f01f84",
          "transactionIndex": "0x3",
          "logIndex": "0x6",
          "removed": false
        },
        {
          "address": "0x3642fa7e78acfabf2851619acdb92ac560efc746",
          "topics": [
            "0xc1076f3b2c622d9955b11c55379a2bad508b751d00c996a550d7aaa86aecfd0d",
            "0x0000000000000000000000000000000000000000000000000000000000000003"
          ],
          "data": "0x00000000000000000000000000000000000000000000043c33c193756480000000000000000000000000000000000000000000000000010f0cf064dd5920000000000000000000000000000000000000000000000000010f0cf064dd5920000000000000000000000000000000000000000000000000000000000000000003e80000000000000000000000000000000000000000000000004c30c0d858b3e377",
          "blockHash": "0xc8c1a0c7885a9a3b116417e9fb4a9e014678f8200ada003506618138c5fc168c",
          "blockNumber": "0x2c30042",
          "blockTimestamp": "0x69b0ad8e",
          "transactionHash": "0x273e0df4a184e4795d784de7c52b64da4ccfe2c5ee535a78aaeaa9c748f01f84",
          "transactionIndex": "0x3",
          "logIndex": "0x7",
          "removed": false
        }
      ],
      "logsBloom": "0x00020000000000002000200000000000000000000000000000000000000000000000010000000080000000000000000000000002020000000000000000000800120000000000000000000008100020000000000000000000000100000000100000000000000000000000000000020000000082000000000000000010000080000000000000001100000800100000000000020000002000000008000200000000000004001100000000000000000000040000000000800008000000000002440000020002000000000000000000000000000000000000040000000000040000000000000000100000000000000000000000000000000000000000000000000000",
      "type": "0x2",
      "transactionHash": "0x273e0df4a184e4795d784de7c52b64da4ccfe2c5ee535a78aaeaa9c748f01f84",
      "transactionIndex": "0x3",
      "blockHash": "0xc8c1a0c7885a9a3b116417e9fb4a9e014678f8200ada003506618138c5fc168c",
      "blockNumber": "0x2c30042",
      "gasUsed": "0x2d604",
      "effectiveGasPrice": "0x7a121",
      "blobGasUsed": "0x9c40",
      "from": "0x4b992f2fbf714c0fcbb23bac5130ace48cad00cd",
      "to": "0x3642fa7e78acfabf2851619acdb92ac560efc746",
      "contractAddress": null,
      "daFootprintGasScalar": "0x190",
      "l1BaseFeeScalar": "0x7d0",
      "l1BlobBaseFee": "0x1",
      "l1BlobBaseFeeScalar": "0xdbba0",
      "l1Fee": "0x76",
      "l1GasPrice": "0x9",
      "l1GasUsed": "0x640"
    },
    {
      "status": "0x1",
      "cumulativeGasUsed": "0x72dfc",
      "logs": [
        {
          "address": "0xf61cd89a9e9b2b23ce0bdac6e19c3db52c56ac07",
          "topics": [
            "0xddf252ad1be2c89b69c2b068fc378daa952ba7f163c4a11628f55a4df523b3ef",
            "0x0000000000000000000000004b992f2fbf714c0fcbb23bac5130ace48cad00cd",
            "0x000000000000000000000000b4b2d15ebec35e21e2fbce3845bff476082cc628"
          ],
          "data": "0x00000000000000000000000000000000000000000000043c33c1d1c0b26a8705",
          "blockHash": "0xc8c1a0c7885a9a3b116417e9fb4a9e014678f8200ada003506618138c5fc168c",
          "blockNumber": "0x2c30042",
          "blockTimestamp": "0x69b0ad8e",
          "transactionHash": "0x0b4dda5685e751d26d0911a4e08944792caa07b22e8f4d4288c7f1f17f7be9b8",
          "transactionIndex": "0x4",
          "logIndex": "0x8",
          "removed": false
        },
        {
          "address": "0xb4b2d15ebec35e21e2fbce3845bff476082cc628",
          "topics": [
            "0x82f3cd1e351c1cf149e065782737f7cd0d51ef52fdb03157f0490fc9d069ab47",
            "0x0000000000000000000000000000000000000000000000000000000000000003",
            "0x0000000000000000000000004b992f2fbf714c0fcbb23bac5130ace48cad00cd"
          ],
          "data": "0x00000000000000000000000000000000000000000000043c33c1d1c0b26a870500000000000000000000000000000000000000000000043c33b7f1125a8f1556",
          "blockHash": "0xc8c1a0c7885a9a3b116417e9fb4a9e014678f8200ada003506618138c5fc168c",
          "blockNumber": "0x2c30042",
          "blockTimestamp": "0x69b0ad8e",
          "transactionHash": "0x0b4dda5685e751d26d0911a4e08944792caa07b22e8f4d4288c7f1f17f7be9b8",
          "transactionIndex": "0x4",
          "logIndex": "0x9",
          "removed": false
        },
        {
          "address": "0x2477b8687745f494931748f5355770ba72ed3830",
          "topics": [
            "0xddf252ad1be2c89b69c2b068fc378daa952ba7f163c4a11628f55a4df523b3ef",
            "0x000000000000000000000000dd008a1209bf0400c3e7c0b5a4d23e691ee43990",
            "0x0000000000000000000000004b992f2fbf714c0fcbb23bac5130ace48cad00cd"
          ],
          "data": "0x00000000000000000000000000000000000000000000141df5d77c6d9d600000",
          "blockHash": "0xc8c1a0c7885a9a3b116417e9fb4a9e014678f8200ada003506618138c5fc168c",
          "blockNumber": "0x2c30042",
          "blockTimestamp": "0x69b0ad8e",
          "transactionHash": "0x0b4dda5685e751d26d0911a4e08944792caa07b22e8f4d4288c7f1f17f7be9b8",
          "transactionIndex": "0x4",
          "logIndex": "0xa",
          "removed": false
        },
        {
          "address": "0xf61cd89a9e9b2b23ce0bdac6e19c3db52c56ac07",
          "topics": [
            "0xddf252ad1be2c89b69c2b068fc378daa952ba7f163c4a11628f55a4df523b3ef",
            "0x000000000000000000000000dd008a1209bf0400c3e7c0b5a4d23e691ee43990",
            "0x0000000000000000000000004b992f2fbf714c0fcbb23bac5130ace48cad00cd"
          ],
          "data": "0x000000000000000000000000000000000000000000001c965d5aa35866600000",
          "blockHash": "0xc8c1a0c7885a9a3b116417e9fb4a9e014678f8200ada003506618138c5fc168c",
          "blockNumber": "0x2c30042",
          "blockTimestamp": "0x69b0ad8e",
          "transactionHash": "0x0b4dda5685e751d26d0911a4e08944792caa07b22e8f4d4288c7f1f17f7be9b8",
          "transactionIndex": "0x4",
          "logIndex": "0xb",
          "removed": false
        },
        {
          "address": "0xdd008a1209bf0400c3e7c0b5a4d23e691ee43990",
          "topics": [
            "0xd55b73c5d25b64a50c7e028ddac7cb0e47c922911cc59be371745474e6733899",
            "0x0000000000000000000000000000000000000000000000000000000000000003"
          ],
          "data": "0x0000000000000000000000000000000000000000000000000000000000000000000000000000000000000000000000000000000000000000000000000000000000000000000000000000000000000000000000000000000000000000000186a00000000000000000000000000000000000000000000000000000000000000000",
          "blockHash": "0xc8c1a0c7885a9a3b116417e9fb4a9e014678f8200ada003506618138c5fc168c",
          "blockNumber": "0x2c30042",
          "blockTimestamp": "0x69b0ad8e",
          "transactionHash": "0x0b4dda5685e751d26d0911a4e08944792caa07b22e8f4d4288c7f1f17f7be9b8",
          "transactionIndex": "0x4",
          "logIndex": "0xc",
          "removed": false
        },
        {
          "address": "0x3642fa7e78acfabf2851619acdb92ac560efc746",
          "topics": [
            "0xc1076f3b2c622d9955b11c55379a2bad508b751d00c996a550d7aaa86aecfd0d",
            "0x0000000000000000000000000000000000000000000000000000000000000003"
          ],
          "data": "0x00000000000000000000000000000000000000000000043c33c1d1c0b26a870500000000000000000000000000000000000000000000141df5d77c6d9d600000000000000000000000000000000000000000000000001c965d5aa3586660000000000000000000000000000000000000000000000000000000000000000036b0ffffffffffffffffffffffffffffffffffffffffffffffffffffffffffffffff",
          "blockHash": "0xc8c1a0c7885a9a3b116417e9fb4a9e014678f8200ada003506618138c5fc168c",
          "blockNumber": "0x2c30042",
          "blockTimestamp": "0x69b0ad8e",
          "transactionHash": "0x0b4dda5685e751d26d0911a4e08944792caa07b22e8f4d4288c7f1f17f7be9b8",
          "transactionIndex": "0x4",
          "logIndex": "0xd",
          "removed": false
        }
      ],
      "logsBloom": "0x00020000000000002000200000000000000000000000000000000000000000000000010000000080000000000000000000000002020000000000000000000800120000000000000000000008100020000000000000000000000100000000000000000000000000000000000000020000000080000000000000000010000080000000000000001100000800100000000000020000002000000008000200000000000004001100000000000000000000040000000000800000000000000002440000020002000000000000000000000000000000000000040000000000040000000000000000100000000000000000000000000000000000000000000000000000",
      "type": "0x2",
      "transactionHash": "0x0b4dda5685e751d26d0911a4e08944792caa07b22e8f4d4288c7f1f17f7be9b8",
      "transactionIndex": "0x4",
      "blockHash": "0xc8c1a0c7885a9a3b116417e9fb4a9e014678f8200ada003506618138c5fc168c",
      "blockNumber": "0x2c30042",
      "gasUsed": "0x1de00",
      "effectiveGasPrice": "0x7a121",
      "blobGasUsed": "0x9c40",
      "from": "0x4b992f2fbf714c0fcbb23bac5130ace48cad00cd",
      "to": "0x3642fa7e78acfabf2851619acdb92ac560efc746",
      "contractAddress": null,
      "daFootprintGasScalar": "0x190",
      "l1BaseFeeScalar": "0x7d0",
      "l1BlobBaseFee": "0x1",
      "l1BlobBaseFeeScalar": "0xdbba0",
      "l1Fee": "0x76",
      "l1GasPrice": "0x9",
      "l1GasUsed": "0x640"
    }
  ],
  "libraries": [],
  "pending": [],
  "returns": {},
  "timestamp": 1773186447050,
  "chain": 1301,
  "commit": "c849825"
}